:020000040800F2
:10000000F808002055020008A94D0008D31C00087C
:10001000A74D0008A50600081153000800000000C5
:10002000000000000000000000000000B14E0008C9
:10003000A706000800000000CB4D0008394F00085B
:100040006F0200086F0200086F0200086F020008CC
:100050006F0200086F0200086F0200086F020008BC
:100060006F0200086F0200086F0200086F020008AC
:100070006F0200086F0200086F0200086F0200089C
:100080006F0200086F0200086F0200086F0200088C
:100090006F0200086F0200086F0200086F0200087C
:1000A0006F0200086F0200086F0200086F0200086C
:1000B0006F0200086F0200086F0200086F0200085C
:1000C0006F0200086F0200086F0200086F0200084C
:1000D0006F020008A55200086F0200086F020008B6
:1000E0006F0200086F0200086F0200086F0200082C
:1000F0006F0200086F0200086F0200086F0200081C
:100100006F0200086F0200086F0200086F0200080B
:100110006F0200086F0200086F0200086F020008FB
:100120006F0200086F0200086F0200086F020008EB
:100130006F0200086F0200086F0200086F020008DB
:100140006F0200086F0200086F0200086F020008CB
:100150006F0200086F0200086F0200086F020008BB
:100160006F0200086F0200086F0200086F020008AB
:100170006F0200086F0200086F0200080000000014
:100180006F0200086F0200086F0200086F0200088B
:100190006F0200086F0200086F0200086F0200087B
:1001A0006F0200086F0200086F02000800F002F8FA
:1001B00000F041F80AA090E8000C82448344AAF1C0
:1001C0000107DA4501D100F036F8AFF2090EBAE8BE
:1001D0000F0013F0010F18BFFB1A43F0010318477B
:1001E000789D0000989D0000103A24BF78C878C11F
:1001F000FAD8520724BF30C830C144BF04680C602D
:10020000704700000023002400250026103A28BF74
:1002100078C1FBD8520728BF30C148BF0B60704778
:10022000782900F08180002070471FB505F0CAFAD8
:100230001FBD10B510BD00F003FA1146FFF7F5FF22
:1002400005F0ACF800F021FA03B4FFF7F2FF03BCAD
:1002500005F066F80948804709480047FEE7FEE7D1
:10026000FEE7FEE7FEE7FEE7FEE7FEE7FEE7FEE766
:1002700004480549054A064B704700003D4F0008F9
:10028000AD010008F8020020F8080020F804002062
:10029000F8040020704700000FB4044910B503AA09
:1002A000029800F0B7F910BC5DF814FB20000020A4
:1002B0000FB41CB5074B06AA7B446946009005980D
:1002C00000F08FF90020694600F09EF91CBC5DF833
:1002D00014FB00004D03000070B5044685690068FA
:1002E000C10601D5302600E02026C00707D070BD2A
:1002F000D4E9012130469047206A401C20626D1EDF
:10030000F6D570BD70B5044685690078C00707D181
:1003100070BDD4E9012120209047206A401C206252
:100320006D1EF6D570BD000070B504460D46214621
:100330001068AFF300802188090502D50F4A7A447E
:1003400002E00E4A7A440E32002104F1240305E053
:1003500000F00F060009965D5E54491C0028F7D195
:1003600020780023000704D5702D02D009B10223A4
:1003700011322046BDE8704000F0D4B8DC9B00008C
:100380002DE9F05F894604464FF0000ADFF824B1FA
:10039000FB44C0F820A02046E168884700287DD0B3
:1003A000252806D0D4E901219047206A401C20620C
:1003B000F1E700255F462046E16888472028064689
:1003C00007DB312E05D2B81910F8200C08B105430F
:1003D000F1E7A80701D525F00405C4F81CA0002703
:1003E000C4F818A02A2E09D0304604F092FF38B382
:1003F00004EB8708303EC8F8186019E059F8041B70
:10040000204604EB87029161E1688847012F064688
:1004100018D1E069002820DA25F020051DE0D8F881
:10042000180000EB800006EB40003038C8F81800D8
:100430002046E1688847064604F06BFF0028EED1AD
:10044000012F0AD02E2E08D12046E16888477F1C54
:100450000646022F45F02005C4DBA069002803DA18
:10046000404245F00105A061E80701D025F01005E4
:10047000A6B1A6F14100192802D8203645F400653E
:100480004A463146204625604D46FFF7C9FE60B119
:10049000012807D0ED1D25F0070000E007E000F17E
:1004A000080978E705F1040975E730467AE7206A1C
:1004B000BDE8F09FB29B000010B5203AC0F00B8061
:1004C000B1E81850203AA0E81850B1E81850A0E858
:1004D0001850BFF4F5AF5FEA027C24BFB1E81850B2
:1004E000A0E8185044BF18C918C0BDE810405FEA22
:1004F000827C24BF51F8043B40F8043B08BF70479E
:10050000D20728BF31F8023B48BF11F8012B28BFA2
:1005100020F8023B48BF00F8012B70477047704736
:10052000704770472DE9F0470D46994692460446BC
:1005300000F124080168880604D5E06921F0100163
:10054000216000E00120A84201DD471B00E00027F8
:10055000A1697A1902EB0900081AA0612078C00687
:1005600002D42046FFF7B8FE002608E0D4E90121B6
:100570001AF806009047206A401C761C20624E45FF
:10058000F4DB2078C0060AD52046FFF7A5FE06E07A
:10059000D4E9012130209047206A401C2062381E97
:1005A000A7F10107F4DC07E0D4E9012118F8050000
:1005B0009047206A401C2062281EA5F10105F3DC4B
:1005C0002046FFF79FFE2078000602D50220BDE8F6
:1005D000F0870120FBE7000001694A1C02610878EE
:1005E000704700B58FB0CDE9013100210591054973
:1005F0007944CDE9031011466846FFF7C1FE0FB0FC
:1006000000BD0000E5FFFFFF0A6802F8010B0A6069
:1006100070470000074B70B50D467B44FFF7E1FFC4
:100620000446284600F008F810B14FF0FF3070BDC6
:10063000204670BD6B4D0000007B00F080007047CD
:10064000754600F02BF8AE4605006946534620F08B
:100650000700854618B020B5FFF70AFEBDE8204028
:100660004FF000064FF000074FF000084FF0000B6E
:1006700021F00701AC46ACE8C009ACE8C009ACE821
:10068000C009ACE8C0098D46704710B50446AFF309
:1006900000802046BDE81040FFF7D6BD00487047F7
:1006A00098020020FEE7704770B5B3F5804F05D083
:1006B0006FF0704140F82210002070BD50F82230D9
:1006C000084C2340D1E9004544EA05148D688E8921
:1006D0002D0245EA064589692C430C431C4340F82A
:1006E0002240E9E70000F0CFF0B50C6850F8245044
:1006F000194A1540D1E90123D1E903671A433E4362
:1007000032434E6932438E693243CE6932430E6AB8
:1007100032434E6A32438E6A3243CE6A3243CE6BE4
:1007200032430E6B32434E6B32432A43082B01D1C6
:1007300042F0400240F824204A6BB2F5801F08D1F5
:100740000A6832B14FF480720A61044902681143A9
:1007500001600020F0BD00008000E0FF00011000FB
:10076000F0B500EB820253688E8903F04044D1E972
:10077000003543EA05138D682D0245EA06452B43F3
:100780000E8A0D4D05EB065633430E7D6F0107EBC8
:10079000066633438E693343234353600268D202B3
:1007A00007D54268098A22F4700205EB0151114312
:1007B00041600020F0BD00000000F0FF30B5D1E93D
:1007C00001231A43D1E9033423431A434B690D68CB
:1007D0001A438B691A43D1E90734012D496A056828
:1007E0006FF30E0505D01A4322430A432A430260E1
:1007F00008E0234329430B43416803606FF30E0174
:100800000A434260002030BD426942EA4101416131
:1008100000207047F8B514460546D1E900021043A0
:100820008A686FF01F03C96803EB421242EA412154
:1008300008430090286100F047F9064609E0601C73
:1008400007D024B100F040F9801BA04201D9032059
:10085000F8BDA8698006F2D40020F8BDF0B56FF0AD
:100860000F05D1E9003405EB04145B1E2E01234370
:100870008C682F0306EB04244FEA054C23430D8AB2
:100880008E8ACC68097E4FF07F4E07EB05450CEB56
:1008900006560EEB0161012A0CD082683F1107EB6E
:1008A000043423432B43334302F070420B4313437E
:1008B00083600FE0C2682B430B4302F070428168F3
:1008C000134301F070422103A1F5805131431143DC
:1008D000C36081600020F0BD2DE9F84FDFF8A091E2
:1008E000002209F1040A0AF1040B4FF00F080BF182
:1008F000040E01260B6896403340B34271D14C6818
:10090000022C01D0122C11D1D40800EB84073D6ACF
:100910005407E40E08FA04FC25EA0C05D1F810C0CF
:100920000CFA04FC4CEA050CC7F820C00768540018
:10093000032591F804C0A5400CF0030CAF430CFA5A
:1009400004FC4CEA070CC0F800C04F68012F05D02A
:10095000022F03D0112F01D0122F11D18768D1F8A7
:100960000CC0AF430CFA04FC4CEA070CC0F808C0FA
:100970004768B7430E79C6F3001696403E4346607B
:10098000C668AE438D68A5403543C5604C68E40039
:100990006FD53C4C256845F480452560246822F0DD
:1009A000030504F480440094374C2E19D6F80878D7
:1009B0009407250F08FA05F4A743344CA04201D14F
:1009C00000242EE0324CA04201D1012429E0314C18
:1009D000A04201D1022424E02F4CA04202D10324E2
:1009E0001FE046E02D4CA04201D1042419E02C4C1C
:1009F000A04201D1052414E02A4CA04201D10624D2
:100A00000FE0294CA04201D107240AE0274CA04264
:100A100001D1082405E0264CA04201D1092400E0C0
:100A20000A24AC403C43C6F80848D9F800404D467B
:100A30004E689C43F60300D51C432C60DAF8004056
:100A400055464E689C43B60300D51C432C60DBF82A
:100A500000405D464E689C43F60200D51C432C6066
:100A6000DEF8004075464E689C43B60200D51C4334
:100A70002C60521C102AFFF43CAFBDE8F88F000038
:100A8000003C014044380240003001400000024078
:100A90000004024000080240000C02400010024026
:100AA0000014024000180240001C024000200240D6
:100AB000002402400069084000D0012070470AB1BC
:100AC000816170470904FBE7014800687047000036
:100AD0001400002002480168491C016070470000B2
:100AE0001400002010B5044600F04AFC4FF47A715F
:100AF000B0FBF1F000F07EFF00222146501E00F016
:100B000083F9002010BD2DE9F041044690F8A000C3
:100B100015460F4601281DD0012684F8A06002204A
:100B200084F8A10005EB850000EBC50004EB800014
:100B300034223830FFF7C0FC2A463946204604F0FC
:100B400081F82068466284F8A160002084F8A00043
:100B5000BDE8F0810220FBE770B5040004D094F8F2
:100B6000A100002510B106E0012070BD84F8A0505E
:100B7000204600F06FF8022084F8A1002068816907
:100B800021F070418161D4E901100143D4E90302ED
:100B900010430143206882691143816120688268A3
:100BA0002B490A408260A08A020420688368A669F3
:100BB0003343134383602068C2680A40C260A08B3D
:100BC00002042068C368266A33431343C360206865
:100BD00002690A400261A08C020420680369A66AC7
:100BE000334313430361206842690A404261A08D88
:100BF000010420684269236B1A430A43426194F856
:100C00003500020294F8360001042068C36A03F03C
:100C10007F43C3622068C36A94F83460114333434E
:100C20000B43C3622068416B41F0040141632068BB
:100C3000416B41F0020141632068816941F001018B
:100C40008161C4F8A450012084F8A100002070BD87
:100C500000F800F030B5364887B00025016841F053
:100C600080610160006800F08060059030481438B1
:100C7000016841F400010160016801F4000105917F
:100C8000016841F002010160016801F00201059173
:100C9000016841F020010160016801F02001059127
:100CA000016841F040010160016801F040010591D7
:100CB000016841F080010160016801F08001059147
:100CC000016841F4807101600068032400F48070C1
:100CD0000590202000900120CDE902040190694692
:100CE0001448FFF7F9FD4FF4806000900220CDE931
:100CF00001050E20CDE9034069460F48FFF7ECFDE2
:100D00004FF40C60009069460C48FFF7E5FD4FF486
:100D10007E40009069460A48FFF7DEFD40F2F7602A
:100D2000009069460748FFF7D7FD07B030BD0000C7
:100D300044380240000402400014024000180240FF
:100D4000001C02400020024070B5044690F8A0004C
:100D50000E46012820D0012584F8A050022084F8F6
:100D6000A10003EB830000EBC30004EB800141F81A
:100D7000386F886A3044C1E90102C86A1044C8600B
:100D80001A46204603F05EFF2068456284F8A150B1
:100D9000002084F8A00070BD022070BD2DE9F04154
:100DA000044690F8A0000F4601281FD0012584F8C2
:100DB000A050022084F8A10003EB830000EBC300E5
:100DC00004EB80010026E1E90E672046C1E90262DA
:100DD000C1E90A721A4603F035FF2068456284F8BB
:100DE000A15084F8A0600020BDE8F0810220FBE75C
:100DF00000F01F02012191404009800000F1E02035
:100E0000C0F8001170470000F0B40E4B1B68C3F32C
:100E10000223C3F10704042C00D904241D1D072D4F
:100E200001D2002300E0DB1E012606FA04F56D1E48
:100E30000D409D409E40761E164045EA0601F0BCDE
:100E400003F0B3BF0CED00E02DE9F8431D48016845
:100E500041F0805101600068012700F0805000904F
:100E6000380490FAA0F0DFF86080B0FA80F048F81B
:100E70002070FFF729FE04464FF47A75134E04E004
:100E8000FFF722FE001BA84213D87068C003F7D5F5
:100E90004FF4003090FAA0F0B0FA80F048F82070DB
:100EA000FFF712FE044607E0FFF70EFE001BA84204
:100EB00002D90320BDE8F88370688003F4D50020D0
:100EC000F8E700004038024000000E420070004089
:100ED0002DE9F84F04460068DFF878829E4DC1077F
:100EE00047F6C07A4FF0E0464FF0010B4FF0000993
:100EF00001D180074BD59949C1F86890FFF7E4FD0F
:100F0000074604E0FFF7E0FDC01B64287ED8286890
:100F10000001F7D420789249C0070DD09AFAAAF2BE
:100F20006068B2FA82F2904096FAA6F3A268B3FA29
:100F300083F39A40104308602078800718D508682A
:100F400096FAA6F200F0E040B2FA82F2D04062686F
:100F5000237B920142EA036242EA00700860D8F8FB
:100F60000010E26921F01F01521E1143C8F8001061
:100F70007A49C1F868B0FFF7A7FD074604E0FFF71C
:100F8000A3FDC01B642841D828680001F7D520685C
:100F9000410701D4000776D57049C1F87090FFF77A
:100FA00093FD074604E0FFF78FFDC01B64282DD892
:100FB0002868C0438000F6D520786A4F40074FF07C
:100FC000706C29D5386896FAA6F100F0E040B1FAC5
:100FD00081F1C8409AFAAAF22169B2FA82F29140EC
:100FE0009CFAACF36269B3FA83F39A40114396FA20
:100FF000A6F2B2FA82F2904001433960D8F80010AC
:101000006FF0FF0321F4F851226A00E079E003EB6E
:1010100002221143C8F800102078000723D5386851
:101020009CFAACF100F07060B1FA81F1C8409AFA14
:10103000AAF22169B2FA82F291409CFAACF2B2FAB9
:1010400082F29040014396FAA6F2A069B2FA82F2C7
:10105000904001433960D8F80010626A21F44031B1
:101060001143C8F800103D49C1F870B0FFF72CFDDE
:10107000064604E0FFF728FD801B642841D8286855
:10108000C0438000F6D42078800651D532484F46C0
:101090004030016841F0805101600068324E00F03C
:1010A00080500090306840F480703060FFF70CFD95
:1010B000054604E0FFF708FD401B642821D830688E
:1010C000C005F7D5264E143E3068218D00F44070DF
:1010D00001F4407188422BD03068244920F44070DC
:1010E000C1F800B00F603060800710D5FFF7ECFC4E
:1010F000054641F2883707E0FFF7E6FC401BB8429F
:1011000002D90320BDE8F88F30688007F4D5A06AC3
:101110001149C0F301220831032A13D0086820F4D2
:10112000F81008603068218DC1F30B01084330606E
:101130002078C00604D50E4994F82C00C1F8E001CF
:101140000020DFE70A680B4B22F4F8121840024334
:101150000A60E7E78C38024000380240000047424E
:10116000843802408838024000700040400E4742F8
:1011700000104742FFFCFF0F2DE9F05FDFF8F8A1F8
:1011800004460F46DAF80000DFF8F08100F00F02A5
:10119000C8B27A49814641F2883608F10808BA4255
:1011A00061D202468AF80020DAF8000000F00F0051
:1011B000B8427DD12078800707D5D8F80020A368F1
:1011C00022F0F0021A43C8F800202078C0072DD082
:1011D000606801281AD002281BD0032819D009689A
:1011E0008907002964DAD8F80010474621F0030186
:1011F0000143C8F80010FFF767FC05466068012846
:101200000FD0022818D003281CD027E009688903D2
:10121000E7E709688901E4E7FFF756FC401BB042A5
:1012200058D83868C0F381000128F5D188E0FFF76D
:101230004BFC401BB0424DD83868C0F381000228F7
:10124000F5D17DE03868FFF73FFC401BB042F9D98B
:1012500040E0FFF739FC401BB0423BD8386810F043
:101260000C0FF6D16CE02078800707D5D8F8002065
:10127000A36822F0F0021A43C8F800202078C007C3
:101280004CD06068012828D0022829D0032827D014
:1012900009688907002949DAD8F8002022F00302FA
:1012A0000243C8F80020FFF70FFC0546606800E025
:1012B0003CE001281DD0022829D0032838D0B346AD
:1012C0004646306810F00C0F28D0FFF7FDFB411B9D
:1012D0005945F6D90320BDE8F09F09688903D9E78D
:1012E00009688901D6E7FFF7EFFB411B594502D991
:1012F000F0E7B34646463068C0F381000128F2D1DA
:101300000CE0FFF7E1FB411B594502D9E2E7B34688
:1013100046463068C0F381000228F2D18AF8009076
:10132000DAF8000000F00F00B84209D00120D2E73F
:1013300044462068FFF7C8FB401BB042F9D9C9E713
:101340002078400707D5D8F80010E26821F4E05172
:101350001143C8F800102078000708D5D8F800100D
:10136000226921F4604141EAC201C8F800100F204F
:10137000FFF7B8FB0020AEE7003C02400038024017
:1013800010B500F043F808490968F02292FAA2F279
:1013900001F0F001B2FA82F2D140044A515CC84037
:1013A0000349086010BD000008380240CE5700080D
:1013B0000000002010B5FFF7E3FF074909684FF46C
:1013C000E05292FAA2F201F4E051B2FA82F2D14074
:1013D000024A515CC84010BD08380240CE57000890
:1013E00010B5FFF7CDFF074909684FF4604292FA44
:1013F000A2F201F46041B2FA82F2D140024A515C99
:10140000C84010BD08380240CE57000830B5194812
:10141000006810F00C01184812D0184C04290ED0A6
:1014200008290DD1134A121F1168136801F03F01FA
:101430005D0247F6C07304D5B4FBF1F003E020462B
:1014400030BDB0FBF1F01168194093FAA3F3B3FA81
:1014500083F3D940484311684FF4403292FAA2F224
:1014600001F44031B2FA82F2D140491C4900B0FB8C
:10147000F1F030BD083802400024F40040787D01CE
:101480002DE9F84F04460078DFF8FCA2BF4DC007F5
:101490004FF0000648D0DAF800105046C1F3810141
:1014A000012908D00068C0F3810002280AD1281D54
:1014B0000068400206D52868800335D5606800289A
:1014C00073D031E0DFF8C49209F1020989F80060B5
:1014D000FFF7FAFA074641F2883804E0FFF7F4FA1A
:1014E000C11B41457AD828688003F7D4207989F850
:1014F0000000606860B1FFF7E7FA074604E0FFF715
:10150000E3FAC11B4145EDD828688003F7D50BE00D
:10151000FFF7DAFA074604E0FFF7D6FAC11B4145A8
:10152000E0D828688003F7D42078DFF86492800739
:1015300044D5DAF80010504611F00C0F4FF0F808BF
:1015400009D00068C0F3810002280BD18E48001F2B
:101550000068400206D42868800714D5E068012896
:1015600023D110E0E068D0B10120C9F80000FFF7F6
:10157000ABFA074604E0FFF7A7FAC01B6428B1D80E
:1015800028688007F7D5286898FAA8F22169B2FA86
:1015900082F220F0F8009140084328600EE0C9F87C
:1015A0000060FFF791FA074605E0EAE0FFF78CFAE2
:1015B000C01B642812D828688007F7D42078000759
:1015C00025D5DFF8C4817348616908F16C0881B1E1
:1015D00001210160FFF778FA074605E07EE0FFF79A
:1015E00073FAC01B642879D8D8F800008007F6D5B4
:1015F0000DE00660FFF768FA074604E0FFF764FABB
:10160000C01B64286AD8D8F800008007F6D4207878
:10161000400753D55C483830016841F08051016083
:101620000068DFF8748100F080500090D8F8001056
:1016300041F48071C8F80010FFF746FA074604E04D
:10164000FFF742FAC01B642848D8D8F80000C0054C
:10165000F6D5DFF834B10BF1680B8BF80060FFF7BB
:1016600033FA074641F2883804E0FFF72DFAC11B30
:1016700041457ED8DBF800008007F6D4207A8BF84D
:101680000000A06868B1FFF71FFA074604E0FFF703
:101690001BFAC11B41456CD8DBF800008007F6D56A
:1016A0000CE0FFF711FA074604E0FFF70DFAC11B43
:1016B00041455ED8DBF800008007F6D4A069E8B3A6
:1016C000DAF80010C1F3810102295AD0022806D0AD
:1016D000C9F86060FFF7F8F904464DE049E04F466D
:1016E000C9F86060FFF7F0F9064604E0FFF7ECF98F
:1016F000801B64283DD828688001F7D4D4E907010D
:10170000084347F6C07191FAA1F1626AB1FA81F11A
:101710008A40A16A4FF0FF3303EB51014FF440338D
:1017200093FAA3F3B3FA83F399400A4310434FF0BB
:10173000706292FAA2F2B2FA82F200E01FE0E16A6D
:10174000914008431049091F086001203866FFF7DF
:10175000BBF9044604E0FFF7B7F9001B642808D87A
:1017600028688001F7D50AE0FFF7AEF9001B64286E
:1017700002D90320BDE8F88F28688001F4D4002046
:10178000F8E70120F6E70000083802400038024080
:1017900000004742800E47420070004070B50D4681
:1017A000040003D094F82C0010B107E0012070BDB4
:1017B000002084F82D00204600F012F8022084F862
:1017C0002C00211D2068FEF7F9FFD4E9000229460C
:1017D000FFF744F8012084F82C00002070BD0000C1
:1017E000304800B5016887B041F001010160006830
:1017F00000F0010005902B480838016841F0040111
:101800000160016801F004010591016841F00801DF
:101810000160016801F008010591016841F01001C3
:101820000160016801F010010591016841F020019B
:101830000160016801F020010591016841F040015B
:1018400001600068694600F0400005900D2000909E
:101850000220019001200290032003900C200490AC
:101860001148FFF739F84CF20370009069460F48B1
:10187000FFF732F84FF68370009069460C48FFF787
:101880002BF84FF63F00009069460A48FFF724F80E
:1018900048F23710009069460748FFF71DF807B077
:1018A00000BD00003838024000080240000C024031
:1018B00000100240001402400018024010B5044617
:1018C00090F82C00022809D0022084F82C0020680F
:1018D000FEF79AFF012084F82C00002010BD70B59F
:1018E000044690F82C000D4602280CD0022084F803
:1018F0002C002068FEF78EFF2868022804D0012003
:1019000084F82C00002070BD0520F9E770B515465D
:101910000E46040003D094F8490010B107E00120FE
:1019200070BD002084F84800204600F01BF804F148
:1019300008012068FEF7D8FE3146A2682068FEF74D
:101940000FFFD4E901022946236BFEF7ADFEA16823
:10195000206850F8212042F0010240F821200020A8
:1019600070BD00001A4800B5016887B041F0010160
:101970000160006800F00100059015480838016812
:1019800041F008010160016801F00801059101685A
:1019900041F0100101600068694600F010000590F8
:1019A0004EF2B370009002200190012002900320BB
:1019B00003900C2004900748FEF78EFF4FF68070CE
:1019C000009069460448FEF787FF07B000BD00009D
:1019D00038380240000C0240001002404FF0E02175
:1019E0000428086903D020F004000861704740F023
:1019F0000400FAE710B5401EB0F1807F01D301204A
:101A000010BD4FF0E02460610F21601703F0CDF9A5
:101A10000020A06107202061002010BD704738B56C
:101A2000016804460868CA68C0F3000002F48072C6
:101A300038B132B1086848680090E06B40F00100AE
:101A4000E06308684A69C0F3400002F0010238B15F
:101A500032B1086848680090E06B40F00400E06331
:101A600008684A69C0F3800002F0010238B132B15F
:101A7000086848680090E06B40F00200E063086886
:101A80004A69C0F3C00002F0010238B132B10868FF
:101A900048680090E06B40F00800E0630868C9689F
:101AA000C0F3401001F0200118B111B1204603F03D
:101AB0006FFA20680168C068C1F3C01100F08000AF
:101AC00019B110B1204603F071FB21680868CA689B
:101AD000C0F3801002F04002012568B162B1CA680B
:101AE000204622F04002CA6094F8391032290CD006
:101AF00080F8395000F0ECF8E06B002804D084F84E
:101B000039502046FFF78AFF38BD222180F839106E
:101B1000F0E770B5040004D094F83900002510B146
:101B200006E0012070BD84F83850204600F020F80F
:101B3000022084F839002068C16821F40051C16096
:101B4000204603F079FA2068016921F4904101618F
:101B50002068416921F02A0141612068C16841F48F
:101B60000051C160E563012084F83900002070BD98
:101B700030B504460068204987B0884239D11F48F3
:101B8000016841F001010160006800F0010005906A
:101B90001A481430016841F0100101600068012109
:101BA00000F0100005904FF4007000900220CDE985
:101BB000010103900720124D049069462846FEF764
:101BC0008BFE2815009069462846FEF785FE2068A2
:101BD000C16821F04001C1602068C16841F0200166
:101BE000C1602520FFF704F9032211462520FFF7E5
:101BF0000BF907B030BD0000001001403038024042
:101C0000000002402DE9F047044690F8390099465B
:101C10000D46012801D0122857D125B31AB394F8E4
:101C20003800012851D0012684F838600027E76386
:101C300094F83900122819D0222084F83900A2859E
:101C4000E2854FF48058E08D4B46401EE085A06849
:101C50004FF0000240454FF02001204616D103F01E
:101C6000D8FAB0B904E00120BDE8F0873220E4E7FB
:101C7000206900282068406803D0C1B225F8011B04
:101C800012E0C0F3080125F8021B0DE003F0C1FAD1
:101C900008B10320E8E7206900282068406801D0E7
:101CA00000F07F0005F8010BE08D0028CBD194F8FF
:101CB0003900322805D084F8396084F83870002063
:101CC000D2E7122084F83900F7E70220CCE770470A
:101CD0007047FEE770B51B4886B00025016841F0EB
:101CE00001010160016801F001010591016841F005
:101CF00004010160016801F004010591016841F0EF
:101D0000800101600068032400F08000059002203B
:101D10000126CDE90204CDE9006569460A48FEF7CF
:101D2000DBFD700303948DE8610069460748FEF708
:101D3000D3FD0C20009069460548FEF7CDFD06B0A6
:101D400070BD000030380240000002400008024030
:101D5000001C024070B50E490E4A064608881268FB
:101D6000002422B13046BDE8704002F04BBD4D88E2
:101D700000214543084602F0DBFB02F00BFDB1B247
:101D8000054801E00180641CAC42FBD370BD00003B
:101D90008C01002078020020000008602DE9F05F2F
:101DA000394C3A4DA071296839B102F04BFDE88AEF
:101DB0002080288B6080BDE8F09F33492C232A25A2
:101DC00089884FF0F00949F2413A2B2645F2105B21
:101DD0004FF4305E4FF448774FF4A07845F2103C52
:101DE0004FF4F07258B1A4F80080A4F80290514565
:101DF00001D0614529D123816581A68139E0A4F80C
:101E00000090A4F80280514501D0614508D123819A
:101E10006581A681614531D1A4F8008062802DE002
:101E2000594508D1A4F808E04FF4285060814FF4D8
:101E30002C50A08106E0A1F5C85063381ED1238143
:101E40006681A5812280678018E0594508D1A4F8F1
:101E500008E04FF4285060814FF42C50A08106E038
:101E6000A1F5C850633804D123816581A6812780FC
:101E70006280614502D12280A4F80280BDE8F05F53
:101E8000002002F079BA00008C01002078020020C6
:101E90002DE9F041044639480D46006820B120463E
:101EA000BDE8F04102F0E2BC354E270A3146B08869
:101EB0004989A0F513434FEA1528413B0BD0A0F503
:101EC000A643103B07D0B3F5007311D0A0F5C8535B
:101ED000633B27D04BE0084602F050FC384602F046
:101EE00041FCE0B202F03EFCB08902F047FC38E071
:101EF000084602F043FC384602F034FC7089401C6E
:101F000080B202F03BFCE0B202F02CFCB08902F09F
:101F100035FC404602F026FCB089401C80B202F03D
:101F20002DFC21E0B07918B93088001B401E84B226
:101F3000084602F023FC270A384602F013FCE0B200
:101F400002F010FC384602F00DFCE0B202F00AFC90
:101F5000B08902F013FC404602F004FCE8B202F043
:101F600001FC404602F0FEFBE8B202F0FBFB054933
:101F700030890880881C0280BDE8F081780200204A
:101F80008C010020FEFF07602DE9F04F95B002F0B4
:101F9000FDFDFE4D4FF0010AA5F15009A88049F260
:101FA000413B45F2103645F2105441F6631818B122
:101FB00002F0D4FC02F08BB9F5480027016841F02B
:101FC00002010160006810A900F0020000902020CA
:101FD000CDE9100A0320CDE912A0EE48FEF77CFC03
:101FE0004FF020414846C9F80010EB49C0E90117FD
:101FF0001021C9F80C70C0E90471C9F81870090201
:10200000C9F81C70C0E909718900C0E90B71C9F8F1
:1020100034708901C9E90E7146210B910F20CDE979
:102020000907CDE902070490D8480F9702AA09A929
:1020300008975038FFF76AFC322003F07DF9D3206F
:1020400002F09CFB02F066F9A88002F063F9A88018
:1020500002F060F94FF6FF7202EA0020A88002F059
:1020600059F9A9885F460843A880B84248D0D420CF
:1020700002F084FB02F04EF9A88002F04BF9A88030
:1020800002F048F902EA0020A88002F043F9A9888A
:102090000843A880B04233D04FF45A4002F06EFBA0
:1020A00002F038F9A8804FF45B4002F067FB02F0C1
:1020B00031F902EA0020A8804FF45C4002F05EFB98
:1020C00002F028F9A9880843A880B0F5004F7DD018
:1020D000A04215D0A12002F051FB02F01BF9A8800C
:1020E00002F018F902EA0020A88002F013F9A9888A
:1020F0000843A0F5AE41A880613901D1A5F804805C
:10210000A988A6A0FEF7C8F8A888B8427ED1CF203B
:1021100002F034FB002002F025FBC12002F022FB7C
:10212000302002F01FFBED2002F028FB642002F0BB
:1021300019FB032002F016FB122002F013FB812092
:1021400002F010FBE82002F019FB852002F00AFBE8
:10215000102002F007FB7A2002F004FBCB2002F0F3
:102160000DFB392002F0FEFA2C2002F0FBFA0020D1
:1021700002F0F8FA342002F0F5FA022002F0F2FA46
:10218000F72002F0FBFA202002F0ECFAEA2002F03D
:10219000F5FA002002F0E6FA002002F0E3FAC0208F
:1021A00002F0ECFA1B2002F0DDFAC12002F0E6FAA0
:1021B000012002F0D7FAC52002F0E0FA302002F048
:1021C000D1FA302002F0CEFAC72000E0B7E002F0EA
:1021D000D5FAB72002F0C6FA362002F0CFFA48202E
:1021E00002F0C0FA3A2002F0C9FA552002F0BAFA19
:1021F000B12002F0C3FA002002F0B4FA1A2002F073
:10220000B1FAB62002F0BAFA0A2000E099E002F032
:10221000A9FAA22002F0A6FAF22002F0AFFA0020FA
:1022200002F0A0FA262002F0A9FA012002F09AFAA0
:10223000E02002F0A3FA0F2002F094FA2A2002F024
:1022400091FA282002F08EFA082002F08BFA0E2074
:1022500002F088FA082002F085FA542002F082FA8F
:10226000A92002F07FFA432002F07CFA0A2002F053
:1022700079FA0F2002F076FA002002F073FA0020BB
:1022800002F070FA002002F06DFA002002F06AFA03
:10229000E12002F073FA002002F064FA152002F047
:1022A00061FA172002F05EFA072002F05BFA1120B3
:1022B00002F058FA062002F055FA2B2002F052FAEA
:1022C000562002F04FFA3C2002F04CFA052002F0B2
:1022D00049FA102002F046FA0F2002F043FA3F209C
:1022E00002F040FA3F2002F03DFA0F2002F03AFAE5
:1022F0002B2002F043FA002002F034FA002002F012
:1023000031FA012002F02EFA3F2002F02BFA2A20A7
:1023100002F034FA002002F025FA002002F022FA3E
:10232000002002F01FFAEF2002F01CFA112002F048
:1023300025FA782003F000F8292001F00BBFAC80CB
:10234000DEE6B0427ED1ED2002F018FA012002F064
:1023500009FAFE2002F006FAEE2002F00FFADE2063
:1023600002F000FA212002F0FDF9F12002F006FA55
:10237000012002F0F7F9DF2002F000FA102002F04D
:10238000F1F9C42002F0FAF98F200FE08C0100204F
:102390003038024000040240040100A0204C4344B5
:1023A0002049443A25780D0A0000000002F0DAF9CD
:1023B000C62002F0E3F9002002F0D4F9E22002F096
:1023C000D1F9E22002F0CEF9E22002F0CBF9BF20F1
:1023D00002F0D4F9AA2002F0C5F9B02002F0CEF93B
:1023E0000D2002F0BFF9002002F0BCF90D2002F030
:1023F000B9F9002002F0B6F9112002F0B3F900207B
:1024000002F0B0F9192002F0ADF9002002F0AAF9AB
:10241000212002F0A7F9002002F0A4F92D2002F0FB
:10242000A1F9002002F09EF93D2002F09BF9002066
:1024300002F098F95D2002F095F9002002F092F97F
:102440005D2000E0FEE302F08DF9002002F08AF941
:10245000B12002F093F9802002F084F9002002F00C
:1024600081F98B2002F07EF9002002F07BF99620A2
:1024700002F078F9002002F075F9B22002F07EF93E
:10248000002002F06FF9002002F06CF9022002F047
:1024900069F9002002F066F9032002F063F90020D8
:1024A00002F060F9B32002F069F9002002F05AF955
:1024B000002002F057F9002002F054F9002002F049
:1024C00051F9002002F04EF9002002F04BF90020F3
:1024D00002F048F9002002F045F9002002F042F92C
:1024E000002002F03FF9002002F03CF9002002F049
:1024F00039F9002002F036F9002002F033F900200B
:1025000002F030F9002002F02DF9002002F02AF943
:10251000002002F027F9002002F024F9002002F048
:1025200021F9002002F01EF9002002F01BF9002022
:1025300002F018F9002002F015F9B42002F01EF99B
:102540008B2002F00FF9002002F00CF9962002F027
:1025500009F9002002F006F9A12002F003F9002099
:1025600002F000F9B52002F009F9022002F0FAF8B1
:10257000002002F0F7F8032002F0F4F8002002F047
:10258000F1F8042002F0EEF8002002F0EBF8B6209B
:1025900002F0F4F8002002F0E5F8002002F0E2F882
:1025A000B72002F0EBF8002002F0DCF8002002F087
:1025B000D9F83F2002F0D6F8002002F0D3F85E20D0
:1025C00002F0D0F8002002F0CDF8642002F0CAF842
:1025D000002002F0C7F88C2002F0C4F8002002F0BE
:1025E000C1F8AC2002F0BEF8002002F0BBF8DC20FD
:1025F00002F0B8F8002002F0B5F8702002F0B2F84E
:10260000002002F0AFF8902002F0ACF8002002F0B9
:10261000A9F8EB2002F0A6F8002002F0A3F8DC20D5
:1026200002F0A0F8002002F09DF8B82002F0A6F811
:10263000002002F097F8002002F094F8002002F049
:1026400091F8002002F08EF8002002F08BF80020B4
:1026500002F088F8002002F085F8002002F082F8ED
:10266000BA2002F08BF8242002F07CF8002002F05F
:1026700079F8002002F076F8002002F073F8C1200B
:1026800002F07CF8202002F06DF8002002F06AF8D9
:10269000542002F067F8002002F064F8FF2002F0F6
:1026A00061F8002002F05EF8C22002F067F80A200C
:1026B00002F058F8002002F055F8042002F052F819
:1026C000002002F04FF8C32002F058F83C2002F03E
:1026D00049F8002002F046F83A2002F043F80020C2
:1026E00002F040F8392002F03DF8002002F03AF8FC
:1026F000372002F037F8002002F034F83C2002F0D6
:1027000031F8002002F02EF8362002F02BF80020DD
:1027100002F028F8322002F025F8002002F022F81A
:102720002F2002F01FF8002002F01CF82C2002F0ED
:1027300019F8002002F016F8292002F013F8002002
:1027400002F010F8262002F00DF8002002F00AF83E
:10275000242002F007F8002002F004F8242002F000
:1027600001F8002001F0FEFF232001F0FBFF002014
:1027700001F0F8FF3C2001F0F5FF002001F0F2FF2E
:10278000362001F0EFFF002001F0ECFF322001F0D5
:10279000E9FF002001F0E6FF2F2001F0E3FF002019
:1027A00001F0E0FF2C2001F0DDFF002001F0DAFF56
:1027B000292001F0D7FF002001F0D4FF262001F0EE
:1027C000D1FF002001F0CEFF242001F0CBFF00203C
:1027D00001F0C8FF242001F0C5FF002001F0C2FF76
:1027E000232001F0BFFF002001F0BCFFC42001F056
:1027F000C5FF622001F0B6FF002001F0B3FF052005
:1028000001F0B0FF002001F0ADFF842001F0AAFF2D
:10281000002001F0A7FFF02001F0A4FF002001F04C
:10282000A1FF182001F09EFF002001F09BFFA420D3
:1028300001F098FF002001F095FF182001F092FFB1
:10284000002001F08FFF502001F08CFF002001F0EC
:1028500089FF0C2001F086FF002001F083FF172084
:1028600001F080FF002001F07DFF952001F07AFF4C
:10287000002001F077FFF32001F074FF002001F049
:1028800071FFE62001F06EFF002001F06BFFC52014
:1028900001F074FF322001F065FF002001F062FFBB
:1028A000442001F05FFF002001F05CFF652001F093
:1028B00059FF002001F056FF762001F053FF002061
:1028C00001F050FF882001F04DFF002001F04AFF89
:1028D000C62001F053FF202001F044FF002001F04A
:1028E00041FF172001F03EFF002001F03BFF0120D7
:1028F00001F038FF002001F035FFC72001F03EFF56
:10290000002001F02FFF002001F02CFF002001F03B
:1029100029FF002001F026FFC82001F02FFF002032
:1029200001F020FF002001F01DFF002001F01AFF40
:10293000002001F017FFC92001F020FF002001F066
:1029400011FF002001F00EFF002001F00BFF00201E
:1029500001F008FF002001F005FF002001F002FF58
:10296000002001F0FFFE002001F0FCFE002001F03D
:10297000F9FE002001F0F6FE002001F0F3FE002039
:1029800001F0F0FE002001F0EDFE002001F0EAFE73
:10299000002001F0E7FE002001F0E4FEE02001F05D
:1029A000EDFE162001F0DEFE002001F0DBFE1C2013
:1029B00001F0D8FE002001F0D5FE212001F0D2FE6A
:1029C000002001F0CFFE362001F0CCFE002001F007
:1029D000C9FE462001F0C6FE002001F0C3FE5220D1
:1029E00001F0C0FE002001F0BDFE642001F0BAFE3F
:1029F000002001F0B7FE7A2001F0B4FE002001F0C3
:102A0000B1FE8B2001F0AEFE002001F0ABFE99205C
:102A100001F0A8FE002001F0A5FEA82001F0A2FE12
:102A2000002001F09FFEB92001F09CFE002001F083
:102A300099FEC42001F096FE002001F093FECA200A
:102A400001F090FE002001F08DFED22001F08AFE00
:102A5000002001F087FED92001F084FE002001F063
:102A600081FEE02001F07EFE002001F07BFEF320DD
:102A700001F078FE002001F075FEE12001F07EFEFD
:102A8000162001F06FFE002001F06CFE1C2001F00A
:102A900069FE002001F066FE222001F063FE0020A6
:102AA00001F060FE362001F05DFE002001F05AFECC
:102AB000452001F057FE002001F054FE522001F0A5
:102AC00051FE002001F04EFE642001F04BFE00207C
:102AD00001F048FE7A2001F045FE002001F042FEA0
:102AE0008B2001F03FFE002001F03CFE992001F018
:102AF00039FE002001F036FEA82001F033FE002050
:102B000001F030FEB92001F02DFE002001F02AFE78
:102B1000C42001F027FE002001F024FECA2001F0AD
:102B200021FE002001F01EFED22001F01BFE00203D
:102B300001F018FED82001F015FE002001F012FE71
:102B4000E02001F00FFE002001F00CFEF32001F068
:102B500009FE002001F006FEE22001F00FFE052034
:102B600001F000FE002001F0FDFD0B2001F0FAFD58
:102B7000002001F0F7FD1B2001F0F4FD002001F022
:102B8000F1FD342001F0EEFD002001F0EBFD4420CA
:102B900001F0E8FD002001F0E5FD4F2001F0E2FD2D
:102BA000002001F0DFFD612001F0DCFD002001F0DC
:102BB000D9FD792001F0D6FD002001F0D3FD882059
:102BC00001F0D0FD002001F0CDFD972001F0CAFDFD
:102BD000002001F0C7FDA62001F0C4FD002001F097
:102BE000C1FDB72001F0BEFD002001F0BBFDC220F9
:102BF00001F0B8FD002001F0B5FDC72001F0B2FDE5
:102C0000002001F0AFFDD12001F0ACFD002001F06B
:102C1000A9FDD62001F0A6FD002001F0A3FDDD20D6
:102C200001F0A0FD002001F09DFDF32001F09AFDD0
:102C3000002001F097FDE32001F0A0FD052001F048
:102C400091FD00E00AE3002001F08CFD0A2001F074
:102C500089FD002001F086FD1C2001F083FD00208D
:102C600001F080FD332001F07DFD002001F07AFDB0
:102C7000442001F077FD002001F074FD502001F0A8
:102C800071FD002001F06EFD622001F06BFD00205F
:102C900001F068FD782001F065FD002001F062FD83
:102CA000882001F05FFD002001F05CFD972001F01D
:102CB00059FD002001F056FDA62001F053FD002033
:102CC00001F050FDB72001F04DFD002001F04AFD5C
:102CD000C22001F047FD002001F044FDC72001F0B3
:102CE00041FD002001F03EFDD12001F03BFD002020
:102CF00001F038FDD52001F035FD002001F032FD56
:102D0000DD2001F02FFD002001F02CFDF32001F06B
:102D100029FD002001F026FDE42001F02FFD012017
:102D200001F020FD002001F01DFD012001F01AFD41
:102D3000002001F017FD022001F014FD002001F039
:102D400011FD2A2001F00EFD002001F00BFD3C20BA
:102D500001F008FD002001F005FD4B2001F002FD0F
:102D6000002001F0FFFC5D2001F0FCFC002001F0E0
:102D7000F9FC742001F0F6FC002001F0F3FC842043
:102D800001F0F0FC002001F0EDFC932001F0EAFCE2
:102D9000002001F0E7FCA22001F0E4FC002001F09B
:102DA000E1FCB32001F0DEFC002001F0DBFCBE20E2
:102DB00001F0D8FC002001F0D5FCC42001F0D2FCC9
:102DC000002001F0CFFCCD2001F0CCFC002001F070
:102DD000C9FCD32001F0C6FC002001F0C3FCDD20BB
:102DE00001F0C0FC002001F0BDFCF32001F0BAFCB2
:102DF000002001F0B7FCE52001F0C0FC002001F04C
:102E0000B1FC002001F0AEFC002001F0ABFC002082
:102E100001F0A8FC022001F0A5FC002001F0A2FCBA
:102E2000292001F09FFC002001F09CFC3C2001F0D7
:102E300099FC002001F096FC4B2001F093FC00204F
:102E400001F090FC5D2001F08DFC002001F08AFC77
:102E5000742001F087FC002001F084FC842001F044
:102E600081FC002001F07EFC932001F07BFC00201F
:102E700001F078FCA22001F075FC002001F072FC4A
:102E8000B32001F06FFC002001F06CFCBE2001F0CB
:102E900069FC002001F066FCC42001F063FC002006
:102EA00001F060FCCD2001F05DFC002001F05AFC37
:102EB000D32001F057FC002001F054FCDC2001F08D
:102EC00051FC002001F04EFCF32001F04BFC0020EF
:102ED00001F048FCE62001F051FC112001F042FC19
:102EE000002001F03FFC342001F03CFC002001F008
:102EF00039FC562001F036FC002001F033FC76202E
:102F000001F030FC002001F02DFC772001F02AFCBC
:102F1000002001F027FC662001F024FC002001F0D5
:102F200021FC882001F01EFC002001F01BFC9920F0
:102F300001F018FC002001F015FCBB2001F012FC90
:102F4000002001F00FFC992001F00CFC002001F0A2
:102F500009FC662001F006FC002001F003FC55206E
:102F600001F000FC002001F0FDFB552001F0FAFB10
:102F7000002001F0F7FB452001F0F4FB002001F0F8
:102F8000F1FB432001F0EEFB002001F0EBFB4420BD
:102F900001F0E8FB002001F0E5FBE72001F0EEFB8B
:102FA000322001F0DFFB002001F0DCFB552001F0B6
:102FB000D9FB002001F0D6FB762001F0D3FB0020E6
:102FC00001F0D0FB662001F0CDFB002001F0CAFB30
:102FD000672001F0C7FB002001F0C4FB672001F06F
:102FE000C1FB002001F0BEFB872001F0BBFB0020ED
:102FF00001F0B8FB992001F0B5FB002001F0B2FB15
:10300000BB2001F0AFFB002001F0ACFB992001F0E8
:10301000A9FB002001F0A6FB772001F0A3FB002014
:1030200001F0A0FB442001F09DFB002001F09AFB81
:10303000562001F097FB002001F094FB232001F0C3
:1030400091FB002001F08EFB332001F08BFB002070
:1030500001F088FB452001F085FB002001F082FB98
:10306000E82001F08BFB002001F07CFB002001F048
:1030700079FB992001F076FB002001F073FB87209B
:1030800001F070FB002001F06DFB882001F06AFB6D
:10309000002001F067FB772001F064FB002001F0C5
:1030A00061FB662001F05EFB002001F05BFB8820E5
:1030B00001F058FB002001F055FBAA2001F052FB63
:1030C000002001F04FFBBB2001F04CFB002001F081
:1030D00049FB992001F046FB002001F043FB6620EC
:1030E00001F040FB002001F03DFB552001F03AFBD0
:1030F000002001F037FB552001F034FB002001F0E7
:1031000031FB442001F02EFB002001F02BFB44207A
:1031100001F028FB002001F025FB552001F022FBE7
:10312000002001F01FFBE92001F028FBAA2001F09C
:1031300019FB002001F016FB002001F013FB00201A
:1031400001F010FB002001F019FBAA2001F00AFB9E
:10315000CF2001F013FB002001F004FB002001F060
:1031600001FB002001F0FEFA002001F0FBFA002034
:1031700001F0F8FA002001F0F5FA002001F0F2FA6F
:10318000002001F0EFFA002001F0ECFA002001F03D
:10319000E9FA002001F0E6FA002001F0E3FA00204D
:1031A00001F0E0FA002001F0DDFA002001F0DAFA87
:1031B000002001F0D7FA002001F0D4FAF02001F04D
:1031C000DDFA002001F0CEFA502001F0CBFA002009
:1031D00001F0C8FA002001F0C5FA002001F0C2FA9F
:1031E000F32001F0CBFA002001F0BCFAF92001F045
:1031F000C5FA062001F0B6FA102001F0B3FA292032
:1032000001F0B0FA002001F0ADFA3A2001F0B6FA70
:10321000552001F0A7FA112001F0B0FA642002F065
:103220008BF8292001F0AAFA352001F0A7FA002036
:1032300001F098FA512001F0A1FAFF2001F092FA72
:10324000532001F09BFA2C2001F08CFA552001F05C
:1032500095FA822001F086FA2C20FDE3A0427DD170
:103260004FF470435521184601F09EFA4FF20107C2
:10327000AA21384601F098FA5221781C01F094FAFC
:103280000821B81C01F090FA0121F81C01F08CFA19
:103290000D214FF4304001F087FA0D214BF201006F
:1032A00001F082FA0D214BF2020001F07DFA342187
:1032B0004FF4364001F078FA34214BF2016001F00E
:1032C00073FA34214BF2026001F06EFA0D214FF4D3
:1032D000314001F069FA0D214BF2011001F064FA5E
:1032E0000D214BF2021001F05FFA34214FF4374008
:1032F00001F05AFA34214BF2017001F055FA3421F1
:103300004BF2027001F050FA00214FF4324001F00C
:103310004BFA00214BF2012001F046FA00214BF25A
:10332000022001F041FA24214FF4384001F03CFA28
:1033300024214BF6010001F037FA24214BF602005C
:1033400001F032FA01214FF43F4001F02DFA0F2134
:103350004FF4334001F028FA0F2100E0FEE34BF276
:10336000013001F021FA0F214BF2023001F01CFA7A
:1033700034214FF4394001F017FA34214BF6011093
:1033800001F012FA34214BF6021001F00DFA082177
:103390004FF4354001F008FA08214BF2015001F0DA
:1033A00003FA08214BF2025001F0FEF903214FF419
:1033B000424001F0F9F924214FF43A4001F0F4F9C8
:1033C00024214BF6012001F0EFF924214BF60220D5
:1033D00001F0EAF900214FF43C4001F0E5F97821D1
:1033E0004BF6014001F0E0F900214BF6024001F0FC
:1033F000DBF900214FF43D4001F0D6F978214BF67E
:10340000015001F0D1F900214BF6025001F0CCF946
:1034100000214FF43E4001F0C7F964214BF60160F2
:1034200001F0C2F900214FF4514001F0BDF9332100
:103430004DF2011001F0B8F900214DF2021001F037
:10344000B3F934214DF2031001F0AEF900214DF231
:10345000041001F0A9F93A214DF2051001F0A4F988
:1034600000214DF2061001F09FF94A214DF207109C
:1034700001F09AF900214DF2081001F095F95C2154
:103480004DF2091001F090F900214DF20A1001F0FF
:103490008BF981214DF20B1001F086F900214DF2DC
:1034A0000C1001F081F9A6214DF20D1001F07CF90C
:1034B00000214DF20E1001F077F9E5214DF20F10C9
:1034C00001F072F901214DF2101001F06DF9132194
:1034D0004DF2111001F068F901214DF2121001F0C6
:1034E00063F954214DF2131001F05EF901214DF200
:1034F000141001F059F982214DF2151001F054F920
:1035000001214DF2161001F04FF9CA214DF21710AA
:1035100001F04AF902214DF2181001F045F900219D
:103520004DF2191001F040F902214DF21A1001F08C
:103530003BF901214DF21B1001F036F902214DF249
:103540001C1001F031F934214DF21D1001F02CF95D
:1035500002214DF21E1001F027F967214DF21F10D4
:1035600001F022F902214DF2201001F01DF9842111
:103570004DF2211001F018F902214DF2221001F054
:1035800013F9A4214DF2231001F00EF902214DF29E
:10359000241001F009F9B7214DF2251001F004F9CA
:1035A00002214DF2261001F0FFF8CF214DF2271035
:1035B00001F0FAF802214DF2281001F0F5F8DE21B1
:1035C0004DF2291001F0F0F802214DF22A1001F01D
:1035D000EBF8F2214DF22B1001F0E6F802214DF24A
:1035E0002C1001F0E1F8FE214DF22D1001F0DCF875
:1035F00003214DF22E1001F0D7F810214DF22F10BB
:1036000001F0D2F803214DF2301001F0CDF8332152
:103610004DF2311001F0C8F803214DF2321001F0E3
:10362000C3F86D214DF2331001F0BEF800214FF4C4
:10363000524001F0B9F833214DF2012001F0B4F805
:1036400000214DF2022001F0AFF834214DF20320A9
:1036500001F0AAF800214DF2042001F0A5F83A216A
:103660004DF2052001F0A0F800214DF2062001F0F6
:103670009BF84A214DF2072001F096F800214DF207
:10368000082001F091F85C214DF2092001F08CF83E
:1036900000214DF20A2001F087F881214DF20B2024
:1036A00001F082F800214DF20C2001F07DF8A621F6
:1036B0004DF20D2001F078F800214DF20E2001F0BE
:1036C00073F8E5214DF20F2001F06EF801214DF263
:1036D000102001F069F813214DF2112001F064F877
:1036E00001214DF2122001F05FF854214DF2132018
:1036F00001F05AF801214DF2142001F055F8822111
:103700004DF2152001F050F801214DF2162001F084
:103710004BF8CA214DF2172001F046F802214DF274
:10372000182001F041F800214DF2192001F03CF879
:1037300002214DF21A2001F037F801214DF21B2031
:1037400001F032F802214DF21C2001F02DF8342155
:103750004DF21D2001F028F802214DF21E2001F04B
:1037600023F867214DF21F2001F01EF802214DF2CF
:10377000202001F019F884214DF2212001F014F8E5
:1037800002214DF2222001F00FF8A4214DF2232056
:1037900001F00AF802214DF2242001F005F8B721CA
:1037A0004DF2252001F000F802214DF2262000F014
:1037B000FBFFCF214DF2272000F0F6FF02214DF252
:1037C000282000F0F1FFDE214DF2292000F0ECFF6F
:1037D00002214DF22A2000F0E7FFF2214DF22B20CA
:1037E00000F0E2FF02214DF22C2000F0DDFFFE216F
:1037F0004DF22D2000F0D8FF03214DF22E2000F0D5
:10380000D3FF10214DF22F2000F0CEFF03214DF207
:10381000302000F0C9FF33214DF2312000F0C4FF09
:1038200003214DF2322000F0BFFF6D214DF2332015
:1038300000F0BAFF00214FF4534000F0B5FF3321F0
:103840004DF2013000F0B0FF00214DF2023000F0E7
:10385000ABFF34214DF2033000F0A6FF00214DF202
:10386000043000F0A1FF3A214DF2053000F09CFF3A
:1038700000214DF2063000F097FF4A214DF207304B
:1038800000F092FF00214DF2083000F08DFF5C2126
:103890004DF2093000F088FF00214DF20A3000F0AF
:1038A00083FF81214DF20B3000F07EFF00214DF2AD
:1038B0000C3000F079FFA6214DF20D3000F074FFBE
:1038C00000214DF20E3000F06FFFE5214DF20F3078
:1038D00000F06AFF01214DF2103000F065FF132166
:1038E0004DF2113000F060FF01214DF2123000F076
:1038F0005BFF54214DF2133000F056FF01214DF2D1
:10390000143000F051FF82214DF2153000F04CFFD1
:1039100001214DF2163000F047FFCA214DF2173059
:1039200000F042FF02214DF2183000F03DFF00216F
:103930004DF2193000F038FF02214DF21A3000F03C
:1039400033FF01214DF21B3000F02EFF02214DF21A
:103950001C3000F029FF34214DF21D3000F024FF0F
:1039600002214DF21E3000F01FFF67214DF21F3083
:1039700000F01AFF02214DF2203000F015FF8421E3
:103980004DF2213000F010FF02214DF2223000F004
:103990000BFFA4214DF2233000F006FF02214DF26F
:1039A000243000F001FFB7214DF2253000F0FCFE7D
:1039B00002214DF2263000F0F7FECF214DF22730E4
:1039C00000F0F2FE02214DF2283000F0EDFEDE2183
:1039D0004DF2293000F0E8FE02214DF22A3000F0CD
:1039E000E3FEF2214DF22B3000F0DEFE02214DF21B
:1039F0002C3000F0D9FEFE214DF22D3000F0D4FE27
:103A000003214DF22E3000F0CFFE10214DF22F3069
:103A100000F0CAFE03214DF2303000F0C5FE332124
:103A20004DF2313000F0C0FE03214DF2323000F093
:103A3000BBFE6D214DF2333000F0B6FE00214FF495
:103A4000544000F0B1FE33214DF2014000F0ACFED5
:103A500000214DF2024000E07CE300F0A5FE34219D
:103A60004DF2034000F0A0FE00214DF2044000F0B2
:103A70009BFE3A214DF2054000F096FE00214DF2EA
:103A8000064000F091FE4A214DF2074000F08CFE06
:103A900000214DF2084000F087FE5C214DF2094004
:103AA00000F082FE00214DF20A4000F07DFE8121EF
:103AB0004DF20B4000F078FE00214DF20C4000F07A
:103AC00073FEA6214DF20D4000F06EFE00214DF276
:103AD0000E4000F069FEE5214DF20F4000F064FE5B
:103AE00001214DF2104000F05FFE13214DF2114014
:103AF00000F05AFE01214DF2124000F055FE542113
:103B00004DF2134000F050FE01214DF2144000F040
:103B10004BFE82214DF2154000F046FE01214DF290
:103B2000164000F041FECA214DF2174000F03CFE65
:103B300002214DF2184000F037FE00214DF21940ED
:103B400000F032FE02214DF21A4000F02DFE01215C
:103B50004DF21B4000F028FE022100E0FDE24DF294
:103B60001C4000F021FE34214DF21D4000F01CFEEF
:103B700002214DF21E4000F017FE67214DF21F405A
:103B800000F012FE02214DF2204000F00DFE8421D3
:103B90004DF2214000F008FE02214DF2224000F0DB
:103BA00003FEA4214DF2234000F0FEFD02214DF260
:103BB000244000F0F9FDB7214DF2254000F0F4FD5E
:103BC00002214DF2264000F0EFFDCF214DF22740BB
:103BD00000F0EAFD02214DF2284000F0E5FDDE2173
:103BE0004DF2294000F0E0FD02214DF22A4000F0A4
:103BF000DBFDF2214DF22B4000F0D6FD02214DF20B
:103C00002C4000F0D1FDFE214DF22D4000F0CCFD06
:103C100003214DF22E4000F0C7FD10214DF22F4040
:103C200000F0C2FD03214DF2304000F0BDFD332114
:103C30004DF2314000F0B8FD03214DF2324000F06A
:103C4000B3FD6D214DF2334000F0AEFD00214FF485
:103C5000554000F0A9FD33214DF2015000F0A4FDC4
:103C600000214DF2025000F09FFD34214DF203502F
:103C700000F09AFD00214DF2045000F095FD3A212C
:103C80004DF2055000F090FD00214DF2065000F07D
:103C90008BFD4A214DF2075000F086FD00214DF2C8
:103CA000085000F081FD5C214DF2095000F07CFDD0
:103CB00000214DF20A5000F077FD81214DF20B50AA
:103CC00000F072FD00214DF20C5000F06DFDA621B8
:103CD0004DF20D5000F068FD00214DF20E5000F045
:103CE00063FDE5214DF20F5000F05EFD01214DF224
:103CF000105000F059FD13214DF2115000F054FD09
:103D000001214DF2125000F04FFD54214DF213509D
:103D100000F04AFD01214DF2145000F045FD8221D2
:103D20004DF2155000F040FD01214DF2165000F00B
:103D30003BFDCA214DF2175000F036FD02214DF235
:103D4000185000F031FD00214DF2195000F02CFD0B
:103D500002214DF21A5000F027FD01214DF21B50B7
:103D600000F022FD02214DF21C5000F01DFD342117
:103D70004DF21D5000F018FD02214DF21E5000F0D2
:103D800013FD67214DF21F5000F00EFD02214DF290
:103D9000205000F009FD84214DF2215000F004FD77
:103DA00002214DF2225000F0FFFCA4214DF22350DD
:103DB00000F0FAFC02214DF2245000F0F5FCB7218E
:103DC0004DF2255000F0F0FC02214DF2265000F09B
:103DD000EBFCCF214DF2275000F0E6FC02214DF222
:103DE000285000F0E1FCDE214DF2295000F0DCFC0F
:103DF00002214DF22A5000F0D7FCF2214DF22B5057
:103E000000F0D2FC02214DF22C5000F0CDFCFE213E
:103E10004DF22D5000F0C8FC03214DF22E5000F061
:103E2000C3FC10214DF22F5000F0BEFC03214DF2D7
:103E3000305000F0B9FC33214DF2315000F0B4FCA9
:103E400003214DF2325000F0AFFC6D214DF23350A2
:103E500000F0AAFC00214FF4564000F0A5FC3321ED
:103E60004DF2016000F0A0FC00214DF2026000F074
:103E70009BFC34214DF2036000F096FC00214DF2D2
:103E8000046000F091FC3A214DF2056000F08CFCDA
:103E900000214DF2066000F087FC4A214DF20760D8
:103EA00000F082FC00214DF2086000F07DFC5C21F6
:103EB0004DF2096000F078FC00214DF20A6000F03C
:103EC00073FC81214DF20B6000F06EFC00214DF27D
:103ED0000C6000F069FCA6214DF20D6000F064FC5E
:103EE00000214DF20E6000F05FFCE5214DF20F6005
:103EF00000F05AFC01214DF2106000F055FC132136
:103F00004DF2116000F050FC01214DF2126000F002
:103F10004BFC54214DF2136000F046FC01214DF2A0
:103F2000146000F041FC82214DF2156000F03CFC71
:103F300001214DF2166000F037FCCA214DF21760E6
:103F400000F032FC02214DF2186000F02DFC00213F
:103F50004DF2196000F028FC02214DF21A6000F0C9
:103F600023FC01214DF21B6000F01EFC02214DF2EA
:103F70001C6000F019FC34214DF21D6000F014FCAF
:103F800002214DF21E6000F00FFC67214DF21F6010
:103F900000F00AFC02214DF2206000F005FC8421B3
:103FA0004DF2216000F000FC02214DF2226000F091
:103FB000FBFBA4214DF2236000F0F6FB02214DF241
:103FC000246000F0F1FBB7214DF2256000F0ECFB1E
:103FD00002214DF2266000F0E7FBCF214DF2276071
:103FE00000F0E2FB02214DF2286000F0DDFBDE2153
:103FF0004DF2296000F0D8FB02214DF22A6000F05A
:10400000D3FBF2214DF22B6000F0CEFB02214DF2EA
:104010002C6000F0C9FBFE214DF22D6000F0C4FBC6
:1040200003214DF22E6000F0BFFB10214DF22F60F6
:1040300000F0BAFB03214DF2306000F0B5FB3321F4
:104040004DF2316000F0B0FB03214DF2326000F020
:10405000ABFB6D214DF2336000F0A6FB55211846F5
:1040600000F0A2FBAA21384600F09EFB5221781CEA
:1040700000F09AFB0821B81C00F096FB0021F81C08
:1040800000F092FBCC214FF4314000F08DFB002179
:104090004BF2011000F088FB05214FF4364000F090
:1040A00083FB70214FF4374000F07EFB70214BF210
:1040B000017000F079FB01214FF4384000F074FBEF
:1040C00003214BF6010000F06FFB03214BF60200C9
:1040D00000F06AFB03214BF6030000F065FB0221B0
:1040E0004FF43C4000F060FB00214BF6014000F033
:1040F0005BFB00214BF6024000F056FBD0214FF451
:10410000494000F051FB02214CF6011000F04CFB3D
:1041100050214CF6021000F047FB50214CF60310E2
:1041200000F042FB50214CF6041000F03DFB002152
:104130004FF4545000F038FB55214FF4685000F014
:1041400033FB4FF4885000F019FB782001F002F99E
:104150004FF4245000F012FBB9E04045FCD1E220BE
:1041600000F00CFB1D2000F0FDFA022000F0FAFA2E
:10417000042000F0F7FA642001F0ECF8E02000F0F1
:10418000FDFA012000F0EEFA0A2001F0D5F8E02057
:1041900000F0F4FA032000F0E5FA0C2001F0CCF86E
:1041A000012000F0EBFA0A2001F0C6F8E62000F04A
:1041B000E5FA2F2000F0D6FAFF2000F0D3FAFF2016
:1041C00000F0D0FAB02000F0D9FA202000F0CAFAAE
:1041D000002000F0C7FA032000F0C4FA40F21F30BC
:1041E00000F0C0FA012000F0BDFA40F2DF1000F04C
:1041F000B9FA002000F0B6FAB42000F0BFFA0420AB
:1042000000F0B0FA40F21F4000F0ACFA002000F0DD
:10421000A9FA2E2000F0A6FA002000F0A3FA002050
:1042200000F0A0FA002000F09DFA002000F09AFAB9
:10423000B62000F0A3FA022000F094FA4FF40370C5
:1042400000F090FA002000F08DFA172000F08AFAB2
:10425000152000F087FA002000F084FA002000F01A
:1042600081FAF02000F08AFA032000F07BFA29207E
:1042700000F084FAD02000F081FA002000F072FAF9
:10428000BE2000F07BFA052000F06CFAFE2000F062
:1042900069FA012000F066FA002000F063FA0020BD
:1042A00000F060FA002000F05DFAB82000F066FA35
:1042B000032000F057FA012000F054FABA2000F071
:1042C0005DFA012000F04EFA642000F02DF8A88875
:1042D000584505D0B04203D0A04201D0404509D195
:1042E000042002900490D9E9010202A9D9F83030E3
:1042F000FCF7DAF90020FDF751FD0549C1F894A259
:104300004FF6FF70FDF726FD15B0BDE8F08F0000F9
:1043100000804042034808B50088ADF80000BDF8B1
:10432000000008BD0000086010B50246BE2000F085
:1043300025FA052000F016FA104601F032F99FED3B
:104340000C1B53EC112B01F03FF901F0FDF880B28A
:1043500000F008FA012000F005FAFF2000F002FA50
:10436000002000F0FFF9BDE81040002000F0FAB98D
:104370006666666666660440F0B56C4D00232946A5
:10438000AA79898841F66314012A01D01AB11BE089
:10439000A14202D118E0A14216D1082814D2DFE8C8
:1043A00000F00406080A0C0E101206200CE007208C
:1043B0000AE0042008E0052006E0012004E00020D7
:1043C00002E0032000E00220A1F5134745F210327D
:1043D00045F21056413F05D0914203D0B14201D081
:1043E000A14277D1082812D2DFE800F011040608B4
:1043F0000A0C0E1080230AE0402308E0C02306E0E8
:10440000202304E0602302E0A02300E0E023B14287
:1044100002D14FF4585000E03620914205D0B1420D
:1044200003D0A14201D043F00803194600F0BCF9C3
:10443000AA88A2420AD098062888698802D58842AC
:1044400002D303E0884201D9298068806889B2429A
:1044500041D100F093F9002000F084F96889401CF4
:1044600080B200F08BF9002000F07CF96889801C94
:1044700080B200F083F92888401EC0F30F2000F0BE
:1044800071F96889C01C80B200F078F92878401E64
:10449000C0B200F067F9A88900F070F9002000F0C0
:1044A00061F9A889401C80B200F068F9002000F092
:1044B00059F9A889801C80B200F060F96888401E14
:1044C000C0F30F2000F04EF9A889C01C80B200F0A4
:1044D00055F922E028E000F051F9002000F042F9FF
:1044E000002000F03FF92888401EC0F30F2000F0A4
:1044F00039F92878401EC0B200F034F9A88900F0DC
:104500003DF9002000F02EF9002000F02BF968881A
:10451000401EC0F30F2000F025F9A878BDE8F04058
:10452000401EC0B200F01EB9F0BD00008C0100209A
:10453000F0B53F4D0C460246060AA9882846270AD0
:104540004089A1F51343413B28D0A1F5A643103B78
:1045500024D0A1F5C853633B2FD0A1F5AA43103B4B
:1045600064D100F00BF9304600F0FCF86889401C7B
:1045700080B200F003F9D0B200F0F4F8A88900F09E
:10458000FDF8384600F0EEF8A889401C80B200F033
:10459000F5F8E0B2BDE8F04000F0E4B800F0EEF865
:1045A000304600F0DFF8D0B200F0DCF8A88900F067
:1045B000E5F8384600F0D6F8EBE7A97929B300F022
:1045C000DDF8304600F0CEF8D0B200F0CBF8288805
:1045D000401EC0F30F2000F0C5F82878401EC0B27E
:1045E00000F0C0F8A88900F0C9F8384600F0BAF821
:1045F000E0B200F0B7F86888401EC0F30F2000F06A
:10460000B1F8A878401EC0B2C4E72988891A491EAB
:104610008AB200F0B3F8002000F0A4F8002000F007
:10462000A1F8100A00F09EF8D0B2D9E7F0BD000062
:104630008C0100202DE9F84F82461F460E468B461E
:10464000580700D0012000EBD700790810FB01F0DB
:10465000203AC0B202F0FF090025009047E00C2F7D
:1046600010D0102F12D0182F14D0202F42D1224951
:1046700001EBC9104FF00008445D200610D51F481B
:10468000026811E009EB49001D4906E01D4901EBF4
:104690000910EFE71C4909EBC90001EB8000E9E7CD
:1046A0000A9828B91548426831465046FDF7F0FB94
:1046B0006006040E1548761CB6B24088B04219D97F
:1046C000A6EB0B00B84209D10AF101001FFA80FAEB
:1046D0000E485E46018851450CD906E008F10100FC
:1046E00000F0FF08B8F1080FC7D36D1CEDB20098B9
:1046F0008542B4D3BDE8F88F9E6F000824000020E7
:10470000DE570008525C0008426200088C0100205D
:104710002DE9F84F044600F0FF0810190D46DDE9B9
:104720000A761FFA80FA58191FFA80F94FF0000B29
:1047300011E0544502D3E819444685B24D450FD2E5
:104740003B4629462046CDF800B0FFF773FF04EB47
:10475000570084B2761C3278A2F120005E28E8D996
:10476000BDE8F88F01B5BDF80000ADF80000BDF858
:1047700000000149088008BD0000086001B5BDF8CF
:104780000000ADF80000BDF800000149088008BD38
:10479000FEFF076002480349008908807047000057
:1047A0008C010020FEFF0760024A1080901C0180EF
:1047B00070470000FEFF0760104810B5016886B022
:1047C00041F0020101600068012100F00200059043
:1047D0000320CDE90210CDE90001094C69462046CD
:1047E000FCF77AF8012211462046FCF768F901220D
:1047F00002212046FCF763F906B010BD30380240B4
:104800000004024008B500900548018BC08A491E8B
:104810008BB2401E82B20021084600F045F808BD68
:104820007802002000B58DB008230992049000930F
:1048300006916846FCF74CFB002800D001200DB023
:1048400000BD000010B5084B1C465875A1888AB2FF
:10485000218889B220B1012801D1D9821A8310BDE3
:10486000DA82198310BD000078020020F0B50C4FE9
:1048700094B23D46DFF82CC02B68EA692D7D7E7D21
:104880005CF8255026B103FB01004243AC52F0BD59
:104890007E68301A401E03FB001050432C52F0BDBE
:1048A000780200202C0000202DE9F843274EDDF887
:1048B00020900024757D0DB1054606E077680D4611
:1048C000B91A1A463B1A491E5B1E306896F814C086
:1048D000DFF87C80521B871A58F82CC0F66900FB61
:1048E000015006FB00C51B487F1EBFB2066846F498
:1048F00000060660006800F4000000901648066894
:1049000026F0010606604FF4403606600226466334
:104910000764C563591AF30303EB0242491C1143B0
:104920004164C0F83890016841F0010101605A010A
:1049300002E0641C944202D241688907F9D581687B
:1049400041F002018160BDE8F88300007802002098
:104950002C0000203038024000B002402DE9FF4119
:1049600000F014F90126634CA0F586424FF4F07173
:1049700047F28405423A14D032044FF44873A842F7
:1049800021D1C4E90031268166812E20A081172023
:10499000E081D22020821620608203214FF4C6706D
:1049A00030E04FF48870C4E9001026816681282029
:1049B000A0810820E08105212182820360820421F8
:1049C0004FF490701EE0A0F5E0454FF48061163D75
:1049D00006D0AA1E19D0A0F50042173A1AD01DE041
:1049E0004FF41670C4E90010142020810321618166
:1049F0008C21A181E081A02020820C2060820221F4
:104A00004FF4B470FFF70EFF08E04FF4A060C4E964
:104A1000000303E04FF44070C4E9001036482268F8
:104A2000374F0280616841800220E061334838607E
:104A30003048344BA8380025C0E900358560C56092
:104A40000561B4F808C0ACF1010343616389A3F1C7
:104A5000010EC0F818E0B4F80CE0F444ACF1010E1B
:104A6000C0F81CE0B4F80EE07344A3F1010EC0F8E6
:104A700020E0A2F1010EE644C0F824E0A1F1010E0D
:104A80009E44C0F828E0B4F810E072446244521E1C
:104A9000C262628A11441944491E016380F836508B
:104AA00080F8355080F83450FCF756F8072006217E
:104AB000CDE90205CDE90051FF230222002039682B
:104AC00000F024F8A088002280B2009020881146CF
:104AD00083B2104600F048F80020FFF7B3FE0A4802
:104AE0002575C0F8946204B0681EBDE8F041FFF778
:104AF00089BE0000780200208C010020000000C068
:104B00002C00002000680140008040422DE9F04365
:104B10008DB0164614AA002492E88013114D00941B
:104B200002942A6801926D68CDE904634FEA082374
:104B3000CDE9067303954FEA09230DF1240E08937E
:104B40008EE8260002468DF8324006488DF8314046
:104B50008DF830C06946A838FBF7D5FF0DB0BDE829
:104B6000F08300007802002070B51E46044603461C
:104B70000548049DFCF7E8F823462A463146BDE87F
:104B800070400148FCF70AB9D001002030B52A482E
:104B900087B00021026842F040020260026802F021
:104BA00040020592026842F4807202600068234C61
:104BB00000F4807005904020CDE9000101200290B2
:104BC0000320039069462046FBF786FE84201C4D97
:104BD000009069462846FBF77FFE40212046FBF700
:104BE00069FF044604212846FBF764FF44EA4004B9
:104BF00080212846FBF75EFF44EA800010F0FF00AA
:104C00000AD001280BD002280CD003280DD004288C
:104C10000ED0002007B030BD44F24230FAE747F230
:104C20008400F7E747F21600F4E747F21800F1E7CF
:104C300048F21700EEE7000030380240001802404A
:104C400000200240F0B504688B88E568C5F30B4589
:104C50002B441D04882303EBC213E65806F4704668
:104C6000E65004680F68E668C6F30B46761C3E44BF
:104C70002E43E65003688C89DD68C5F30A052C4491
:104C800025048C2404EBC2141E5906F470461E51F0
:104C900003688F68DE68C6F30A06761C3E442E431E
:104CA0001E519423046803EBC213E55825F0070551
:104CB000E55005680C69EC5091F8313005681F0229
:104CC00091F832301C040B7E1E069C2303EBC213AA
:104CD00055F803C04FF0000C45F803C091F8305070
:104CE00034433D4325430468E5509823046803EBAF
:104CF000C213E55825F0FF05E55005684C69EC50F6
:104D0000A023046803EBC213E55840F20776B543CD
:104D1000E550D1E907452C430568EC50AC23046805
:104D200003EBC213E55844F803C005684C6AEC5025
:104D30000B698BB3012B32D0042B32D0022B30D035
:104D4000032B2ED0072B2CD00123B024056804EBB5
:104D5000C2142E5906F0E0262E51D1E90065AD1B94
:104D60000E8D5D435E43ED1C45EA064305682B51FD
:104D7000B423046803EBC213E5586FF30A05E5504A
:104D80000468C96AE1500068842101EBC2114258ED
:104D900042F001024250F0BDFFE70423D5E70323B0
:104DA000D3E70223D1E7FEE770470907090E002881
:104DB00006DA00F00F0000F1E02080F8141D7047C3
:104DC00000F1E02080F800147047704700B51648E5
:104DD00087B014490022C0E9001201218160082136
:104DE0001023C0E90313402343614FF4C073C0E9AB
:104DF00006320A0202624A0242628A028262022089
:104E0000CDE9000106210291CDE90310059006903D
:104E100069460548FCF7C2FC034800F007F807B0F4
:104E200000BD0000400100A09C01002010B500233F
:104E300001221146184600F021F84FF4FA7000F0F4
:104E400089FA002301220221184600F017F80023F6
:104E500008220321184600F011F84FF40C730122C8
:104E60000421002000F00AF8BDE8104040F2AB2118
:104E70000148FCF723BD00009C0100201FB5002461
:104E800010B1012802D002E0102400E00824CDE98E
:104E90000014CDE902234FF4805269460348FCF721
:104EA0001EFD002800D0012004B010BD9C01002090
:104EB0007047000070B51E4C92B00025266846F081
:104EC00080562660246804F080541194194C26689A
:104ED00046F44046266024680DF1240C04F4404456
:104EE0001194012400940194022406948CE80D008E
:104EF0006605CDE907616846FCF7C2FA00B1FEE736
:104F0000FBF7A2FF00B1FEE70CA90F2081E83100FA
:104F10004FF4A0500F904FF48050109005210CA832
:104F2000FCF72AF9002800D0FEE712B070BD00009F
:104F30004038024000700040FBF7CCBD10480168CB
:104F400041F4700101600F48016841F00101016006
:104F50000C4A00210832116002680B4B1A400260B3
:104F6000031D0A4A1A60026822F480220260054882
:104F70000C30016002495806803908607047000013
:104F800088ED00E000380240FFFFF6FE10300024FC
:104F900010B590F83910222903D0322901D002200F
:104FA00010BD8168B1F5805F11D0016900290168E9
:104FB0001FD0496801F07F03816A4A1C82620B702E
:104FC000C18D491E0904090CC18518D02FE0026962
:104FD000816A002A0268526805D0D2B20A80816ACA
:104FE000491C8162ECE7C2F308020A80816A891CCD
:104FF000F7E74A68816A4B1C83620A70E0E7016840
:10500000CA6822F02002CA6090F83910322910D004
:105010000168CA6822F48072CA6001684A6922F095
:1050200001024A61012180F83910FCF750FE00208E
:1050300010BD1221F7E700002DE9F0410446006899
:105040000169E26821F440510A4302612068C168A5
:1050500049F20C6291432369A268E5691A436369C6
:105060002B431A430A43C2602068416921F440720D
:10507000A16911434161E06964263225B0F5004F12
:10508000484A494920681DD0884201D0904269D1E0
:10509000FCF7A6F900EBC00101EB00106168B04617
:1050A0008900B0FBF1F1B1FBF8F6FCF799F900EBE0
:1050B000C00101EB001061688900B0FBF1F7FCF75B
:1050C0008FF968E0884201D0904219D1FCF788F945
:1050D00000EBC00101EB00106168B0464900B0FB75
:1050E000F1F1B1FBF8F6FCF77BF900EBC00101EB45
:1050F000001061684900B0FBF1F7FCF771F918E0A6
:10510000FCF758F900EBC00101EB00106168B046F4
:105110004900B0FBF1F1B1FBF8F6FCF74BF900EBFD
:10512000C00101EB001061684900B0FBF1F7FCF72A
:1051300041F900EBC00101EB001061684900B0FBD0
:10514000F1F1B1FBF8F06FF01801484307EB800074
:1051500005EB0011B1FBF8F0216866F31F108860C1
:10516000BDE8F081FCF726F900EBC00101EB00106F
:105170006168B0468900B0FBF1F1B1FBF8F6FCF7CD
:1051800019F900EBC00101EB001061688900B0FB68
:10519000F1F7FCF70FF900EBC00101EB00106168BB
:1051A0008900CCE7001401400010014090F839104C
:1051B000122903D0322901D0022070478168B1F54D
:1051C000805F016A0BD04A1C026202680978516054
:1051D000C18C491E0904090CC1840ED017E009884E
:1051E0000268C1F30801516001690029016A02D017
:1051F000491C0162ECE7891CFBE70168CA6822F0E0
:105200008002CA600068C16841F04001C1600020AE
:1052100070472DE9F0471D4690460F460446FBF7C0
:1052200053FC06465FEA08004FF000094FF0010802
:1052300008D030E0681C05D095B1FBF745FC801B19
:10524000A8420DD82068006837EA0000F2D127E0B4
:10525000681C20D025B1FBF737FC801BA8421AD967
:105260002068C16821F08001C1602068C16821F018
:105270002001C1602068C16821F48071C16020688C
:10528000416921F00101416184F8398084F8389046
:105290000320BDE8F0872068006837EA0000D7D017
:1052A0000020F6E738B5184800680068C04380065B
:1052B00022D44FF47A73012269461348FCF7A2FC0A
:1052C000124A1088010417D441049DF800104FF0D1
:1052D000000304D50A290ED140F4004012E00D2944
:1052E0000ED0C0F30D04084D401CC83D80B22955B6
:1052F0001080C72800D913800348FCF790FB38BD05
:1053000040F480401080F7E7FC0000201C000020E3
:10531000FEE730380A2801D201207047002070478C
:105320007047000010B504460420FCF757FB014805
:10533000046010BD1800002070B5054600244FF42D
:105340007A7603E0304600F005F8641CAC42F9D3ED
:1053500070BD000070B54FF0E02500216C69094A6E
:10536000AB6912685043AA699A42FCD002D2A3EBFF
:10537000020302E0A4EB02063344194413468142BF
:10538000F1D370BD1800002003490A685206FCD50D
:10539000C2B24A60704700000010014086B000248D
:1053A0000823022219214FF4B470FFF783FDB420C3
:1053B000FFF7B8FF4FF4E13000F0B4F8FFF7FCF965
:1053C000FCF788FCFFF702FDFCF7DEFD404E41488C
:1053D0004FF47845356082883FA102A8FAF768FF4C
:1053E000DFF800810DF108094FF0200A4FF0180B8B
:1053F00010270C2C0DD2DFE804F006094042444788
:105400004A4D505356594FF6FF7000E00020FCF70C
:10541000A1FC35A13560CDE900A120234FF48272B3
:1054200028210A20FFF774F934A1CDE900B118232F
:10543000F02250210A20FFF76BF933A0CDE900706C
:105440001023F0226E210A20FFF762F9CDE90079DE
:105450001023F02282210A20FFF75AF90C202EA1F6
:10546000CDE900010346F02296210A20FFF750F90A
:10547000641CE4B20C2C1CD01CE01F20C7E728469B
:10548000C5E74FF61F00C2E74FF4FC60BFE747F6E1
:10549000FF70BCE74FF6E070B9E74FF60740B6E79C
:1054A00048F23040B3E74CF21860B0E74BF64040AA
:1054B000ADE70024D8F88402414638B10020C1F895
:1054C00084024FF47A70FFF737FF92E70120F6E786
:1054D000240000208C0100204C43442049443A25FC
:1054E000303458000080404241706F6C6C6F205324
:1054F000544D333246342F46370000004C54444359
:10550000205445535400000041544F4D40414C49F4
:10551000454E54454B000000323031362F312F3686
:10552000000000000749064AC1E900200020886009
:10553000C860086188610C2048610846FCF7E9BA38
:1055400000100140FC0000204FEA1153A3F58063D6
:10555000D3F11E03A8BFD3F1200C08DB4FF00042AB
:1055600042EAC12252EA505232FA03F0704709422D
:105570000BD4102BC4BF0020704703F5787CBCF11E
:10558000FF3F05D04FF0FF3070474FF000007047ED
:1055900070B500F0C3F800BF499224800020704726
:1055A000F0E7B0FA80F310FA03F10AD0C3F11D035B
:1055B00003F580634FEA41504FEA035202EBD121D9
:1055C00070474FF000007047DFF848C170B51CEA23
:1055D000111E1EBF1CEA13159EEA0C0F95EA0C0F54
:1055E00000F06F8081EA030423EA4C134EEAD47E74
:1055F00021EA4C1141F4801143F48013AE44A1FB25
:10560000024CA0FB0365AEF17F7E361955EB0C050D
:10561000A1FB034C4CF10003A0FB021C16EB0C0693
:10562000654153F10003094218BF46F0010613F427
:10563000007F0BD14FEA03314FEA0530340341EAD2
:10564000155140EA16506FF003020AE04FEAC321F9
:105650004FEAC520F40241EA555140EA56506FF036
:10566000020202EB2E4201EB025585EACE710AD00E
:105670005FEA440C18BF24F0004450F1000041F1EF
:10568000000120EAD47040F2FE7C624500D270BD79
:10569000A84214BF4FF080444FF04044002E08BF92
:1056A0000024BEF1806FA8BFA1F1C041BDE87040E9
:1056B00080F282804FF0000001F1C04101F0004112
:1056C00070479EEA0C0F0CEA131518BF95EA0C0FF1
:1056D00006D04FF0000081EA030E0EF0004170BDCD
:1056E00000F01CF88900013E00F007B800F009B88E
:1056F0004FEA430C5FEA5C5C08D081EA030100F0EA
:105700005BB84FEA410C5FEA5C5CF6D14FF00000F9
:10571000014970470000FF070000F87F0EF1020EFC
:105720002EF0030E5EF8046B364205D4012A43EBDB
:10573000030515F5001F12D8012841EB010C1CF5DB
:10574000001F0CD80ED14FEAD17C15F5001F0CEBD1
:105750004C0C0CF1020C08BF4CEBD37C04E04FF076
:10576000080C01E04FEAD37C0CEB4C0526FA05F659
:1057700006F00706B6F1040C06D20EEB860CBDE867
:1057800070404CF0010C6047DFE80CF0090B02029E
:105790004FF000414FF00000A1F5002170BD194607
:1057A0001046012851EB010418BFD4F5001484BF42
:1057B000002001F0004170BD0808A0F500114FEA7B
:1057C000310170474FF04070E1EE100A7047000061
:1057D0000000010203040102030406070809000097
:1057E00000000000000000000000000000003F403A
:1057F00000000000000000003000400030004000C9
:10580000000009000BC03D000BC03D00090018C09E
:1058100024407FE0224031800000180024C01B009B
:105820000D803240018003801C4027401C800740CF
:1058300000401000600000000000000000000000B8
:10584000000000001F802040402000004020204039
:105850001F8000000000090006001F8006000900EC
:105860000000040004003F80040004000000001059
:1058700000600000000000000000040004000400BC
:1058800004000400000000000040000000000000D0
:105890000000002001C006003800400000001F800A
:1058A0002040204020401F800000000010403FC0EA
:1058B00000400000000018C0214022402440184051
:1058C000000010802040244024401B800000020083
:1058D0000D0011003FC0014000003C8024402440E6
:1058E0002440238000001F80244024403440038053
:1058F00000003000200027C03800200000001B807E
:105900002440244024401B8000001C0022C0224070
:1059100022401F800000000000000840000000003E
:105920000000000000000460000000000000000013
:1059300004000A001100208040400900090009000D
:1059400009000900000000004040208011000A000A
:1059500004001800200023402400180000001F80CD
:105960002040274029401F400000004007C0390068
:105970000F0001C0004020403FC0244024401B8055
:1059800000001F8020402040204030800000204048
:105990003FC0204020401F80000020403FC02440E6
:1059A0002E4030C0000020403FC024402E00300078
:1059B00000000F0010802040224033800200204071
:1059C0003FC0040004003FC02040204020403FC0B2
:1059D0002040204000000060202020203FC0200008
:1059E000200020403FC024400B0030C02040204019
:1059F0003FC020400040004000C03FC03C0003C00A
:105A00003C003FC0000020403FC00C4023003FC08E
:105A100020001F802040204020401F8000002040A8
:105A20003FC024402400180000001F802140214076
:105A300020E01FA0000020403FC02440260019C0E5
:105A4000004018C024402440224031800000300033
:105A500020403FC020403000000020003F80004038
:105A600000403F80200020003E0001C007003800B9
:105A70002000380007C03C0007C03800000020406C
:105A800039C0060039C0204000002000384007C05F
:105A9000384020000000304021C02640384020C05F
:105AA0000000000000007FE04020402000000000D7
:105AB00070000C00038000400000000040204020E7
:105AC0007FE00000000000002000400020000000F7
:105AD0000000001000100010001000100010000066
