:020000040800F2
:10000000380900205502000803580008CD220008D6
:10001000FF570008A50600088D5F000800000000DB
:100020000000000000000000000000004959000826
:10003000A9060008000000003D580008055A000805
:100040006F0200086F0200086F0200086F020008CC
:100050006F0200086F0200086F0200086F020008BC
:100060006F0200086F0200086F0200086F020008AC
:100070006F0200086F0200086F0200086F0200089C
:100080006F0200086F0200086F0200086F0200088C
:100090006F0200086F0200086F0200086F0200087C
:1000A0006F0200086F0200086F0200086F0200086C
:1000B0006F0200086F0200086F0200086F0200085C
:1000C0006F0200086F0200086F0200086F0200084C
:1000D0006F020008ED5E00086F0200086F02000862
:1000E0006F0200086F0200086F0200086F0200082C
:1000F0006F0200086F0200086F0200086F0200081C
:100100006F0200086F0200086F0200086F0200080B
:100110006F0200086F0200086F0200086F020008FB
:100120006F0200086F0200086F0200086F020008EB
:100130006F0200086F0200086F0200086F020008DB
:100140006F0200086F0200086F0200086F020008CB
:100150006F0200086F0200086F0200086F020008BB
:100160006F0200086F0200086F0200086F020008AB
:100170006F0200086F0200086F0200080000000014
:100180006F0200086F0200086F0200086F0200088B
:100190006F0200086F0200086F0200086F0200087B
:1001A0006F0200086F0200086F02000800F002F8FA
:1001B00000F041F80AA090E8000C82448344AAF1C0
:1001C0000107DA4501D100F036F8AFF2090EBAE8BE
:1001D0000F0013F0010F18BFFB1A43F0010318477B
:1001E00044AA000064AA0000103A24BF78C878C16D
:1001F000FAD8520724BF30C830C144BF04680C602D
:10020000704700000023002400250026103A28BF74
:1002100078C1FBD8520728BF30C148BF0B60704778
:10022000782900F08180002070471FB506F030F972
:100230001FBD10B510BD00F003FA1146FFF7F5FF22
:1002400005F0F8FE00F021FA03B4FFF7F2FF03BC5B
:1002500005F0A5FE0948804709480047FEE7FEE78C
:10026000FEE7FEE7FEE7FEE7FEE7FEE7FEE7FEE766
:1002700004480549054A064B704700000D5A00081E
:10028000AD0100083803002038090020380500209F
:1002900038050020704700000FB4044910B503AAC8
:1002A000029800F0B7F910BC5DF814FB1C000020A8
:1002B0000FB41CB5074B06AA7B446946009005980D
:1002C00000F08FF90020694600F09EF91CBC5DF833
:1002D00014FB00004D03000070B5044685690068FA
:1002E000C10601D5302600E02026C00707D070BD2A
:1002F000D4E9012130469047206A401C20626D1EDF
:10030000F6D570BD70B5044685690078C00707D181
:1003100070BDD4E9012120209047206A401C206252
:100320006D1EF6D570BD000070B504460D46214621
:100330001068AFF300802188090502D50F4A7A447E
:1003400002E00E4A7A440E32002104F1240305E053
:1003500000F00F060009965D5E54491C0028F7D195
:1003600020780023000704D5702D02D009B10223A4
:1003700011322046BDE8704000F0D4B8A8A80000B3
:100380002DE9F05F894604464FF0000ADFF824B1FA
:10039000FB44C0F820A02046E168884700287DD0B3
:1003A000252806D0D4E901219047206A401C20620C
:1003B000F1E700255F462046E16888472028064689
:1003C00007DB312E05D2B81910F8200C08B105430F
:1003D000F1E7A80701D525F00405C4F81CA0002703
:1003E000C4F818A02A2E09D0304605F0D1FD38B344
:1003F00004EB8708303EC8F8186019E059F8041B70
:10040000204604EB87029161E1688847012F064688
:1004100018D1E069002820DA25F020051DE0D8F881
:10042000180000EB800006EB40003038C8F81800D8
:100430002046E1688847064605F0AAFD0028EED16F
:10044000012F0AD02E2E08D12046E16888477F1C54
:100450000646022F45F02005C4DBA069002803DA18
:10046000404245F00105A061E80701D025F01005E4
:10047000A6B1A6F14100192802D8203645F400653E
:100480004A463146204625604D46FFF7C9FE60B119
:10049000012807D0ED1D25F0070000E007E000F17E
:1004A000080978E705F1040975E730467AE7206A1C
:1004B000BDE8F09F7EA8000010B5203AC0F00B8088
:1004C000B1E81850203AA0E81850B1E81850A0E858
:1004D0001850BFF4F5AF5FEA027C24BFB1E81850B2
:1004E000A0E8185044BF18C918C0BDE810405FEA22
:1004F000827C24BF51F8043B40F8043B08BF70479E
:10050000D20728BF31F8023B48BF11F8012B28BFA2
:1005100020F8023B48BF00F8012B70477047704736
:10052000704770472DE9F0470D46994692460446BC
:1005300000F124080168880604D5E06921F0100163
:10054000216000E00120A84201DD471B00E00027F8
:10055000A1697A1902EB0900081AA0612078C00687
:1005600002D42046FFF7B8FE002608E0D4E90121B6
:100570001AF806009047206A401C761C20624E45FF
:10058000F4DB2078C0060AD52046FFF7A5FE06E07A
:10059000D4E9012130209047206A401C2062381E97
:1005A000A7F10107F4DC07E0D4E9012118F8050000
:1005B0009047206A401C2062281EA5F10105F3DC4B
:1005C0002046FFF79FFE2078000602D50220BDE8F6
:1005D000F0870120FBE7000001694A1C02610878EE
:1005E000704700B58FB0CDE9013100210591054973
:1005F0007944CDE9031011466846FFF7C1FE0FB0FC
:1006000000BD0000E5FFFFFF0A6802F8010B0A6069
:1006100070470000074B70B50D467B44FFF7E1FFC4
:100620000446284600F008F810B14FF0FF3070BDC6
:10063000204670BDFB590000007B00F08000704731
:10064000754600F02BF8AE4605006946534620F08B
:100650000700854618B020B5FFF70AFEBDE8204028
:100660004FF000064FF000074FF000084FF0000B6E
:1006700021F00701AC46ACE8C009ACE8C009ACE821
:10068000C009ACE8C0098D46704710B50446AFF309
:1006900000802046BDE81040FFF7D6BD00487047F7
:1006A000D802002000BFFEE77047000070B5044686
:1006B0001D460023B5F5804F13D154F822300C4865
:1006C0000340D1E9000640EA06108E6840EA0620A1
:1006D0008E8940EA06408E693043034344F8223055
:1006E00003E06FF0704044F82200002070BD00006D
:1006F0000000F0CF10B502460023086852F8203001
:100700001B480340D1E901042043CC6820430C6915
:1007100020434C6920438C692043CC6920430C6AF8
:1007200020434C6A20438C6A2043CC6A2043CC6B24
:1007300020430C6B20434C6B2043034388680828FC
:1007400001D143F04003086842F82030486BB0F50F
:10075000801F0AD1086840B14FF4807008614C6B6B
:1007600008692043146820431060002010BD000079
:100770008000E0FF30B5034614460022601C53F8A9
:10078000202002F04042D1E9000540EA05108D68C2
:1007900040EA05208D8940EA0545088A401E45EA61
:1007A0000055087D801E45EA00608D69284302439C
:1007B000601C43F82020186800F4801038B1586895
:1007C00020F47002088A401E42EA00525A6000205B
:1007D00030BD30B50246002300240868012816D039
:1007E00013686FF30E03D1E901052843CD68284350
:1007F0000D6928434D6928438D692843CD692843F5
:100800000D6A28434D6A28430343136019E01368B7
:100810006FF30E03D1E9070528434D6A28430343CC
:1008200054686FF30E04D1E901052843CD682843CD
:100830000D6928434D6928438D692843044313609B
:100840005460002030BD0246506940EA41005061CA
:1008500000207047F8B506460C461546002000906B
:100860000027D4E900010843A168491E40EA41106D
:10087000E16840EA412000900098306100F074F98E
:10088000074609E0681C38B125B100F06DF9C01BBE
:10089000A84201D90320F8BDB06900F0200000286B
:1008A000F0D100BFF7E770B50346154600220024DB
:1008B000012D1FD09A6802F070420868401E4E68F1
:1008C000761E40EA06168868401E46EA0026C8687A
:1008D000401E46EA0036088A401E46EA0046888ADC
:1008E000401E46EA0056087E401E46EA006002436B
:1008F0009A6022E0DA6802F070420868401E4E6892
:10090000761E40EA06168868401E46EA0026088AD7
:10091000401E46EA0046087E401E46EA006002434A
:100920009C6804F07044C868401E0603888A401E14
:1009300046EA00500443DA609C60002070BD00006D
:10094000F8B502460B460025002400200021E6E011
:10095000012606FA01F51E6806EA0504AC4273D1C9
:100960005E68022E02D05E68122E13D1CF0802F10B
:10097000200656F827004E07F70E0F26BE40B0435C
:100980004F07FF0E1E69BE403043CF0802F120061C
:1009900046F8270010684F000326BE40B0431E797A
:1009A00006F003064F00BE40304310605E68012E23
:1009B00008D05E68022E05D05E68112E02D05E68F7
:1009C000122E13D190684F000326BE40B0434F0053
:1009D000DE68BE4030439060506801268E40B043D0
:1009E0001E79C6F300168E4030435060D0684F0029
:1009F0000326BE40B0434F009E68BE403043D060E7
:100A00005E6806F08056B6F1805FA8D100BF002670
:100A10000096454E366846F48046434F3E603E465B
:100A2000366806F48046009600BF00BF3F4E8F0830
:100A300056F827008E07370F0F26BE40B0433C4EB6
:100A4000B24202D100262EE068E03A4EB24201D115
:100A5000012628E0384EB24201D1022623E0374E6B
:100A6000B24201D103261EE0354EB24201D1042626
:100A700019E0344EB24201D1052614E0324EB242A2
:100A800001D106260FE0314EB24201D107260AE01D
:100A90002F4EB24201D1082605E02E4EB24201D1BE
:100AA000092600E00A268F073F0FBE4030431F4E45
:100AB0008F0846F82700284E3068A0435E6806F489
:100AC0008036B6F5803F00D12043234E3060361D7E
:100AD0003068A0435E6806F40036B6F5003F00D1EA
:100AE00020431D4E361D3060361D3068A0435E68C1
:100AF00006F48016B6F5801F00D12043164E083646
:100B00003060361D3068A0435E6806F40016B6F506
:100B1000001F00D12043104E0C363060491C1029B4
:100B2000FFF416AFF8BD0000443802400838014019
:100B3000000002400004024000080240000C024095
:100B4000001002400014024000180240001C024045
:100B50000020024000240240003C01400AB18161B3
:100B600001E00B0483617047014800687047000092
:100B70001400002002480068401C014908607047CA
:100B80001400002070B5044600F08AFD4FF47A711D
:100B9000B0FBF1F5284601F0D7F900222146501E9E
:100BA00000F0E1F9002070BD70B504460E46154610
:100BB00000BF94F8A000012801D1022070BD0120DF
:100BC00084F8A00000BF022084F8A10005EB850195
:100BD00001EBC50204F1380101EB820034223146F9
:100BE000FFF76AFC2A463146204604F0FFFC01204C
:100BF0002168486284F8A10000BF002084F8A000AA
:100C000000BF00BFDAE7000070B5044600250026EB
:100C10000CB9012070BD94F8A10028B9002084F817
:100C2000A000204600F084F8022084F8A10020688B
:100C3000806920F0704021688861D4E9010108438F
:100C4000E1680843216908432168896908432168EC
:100C50008861206880683549084021688860A08ADA
:100C6000050420688068A1692943084321688860D9
:100C70002068C0682D4908402168C860A08B050421
:100C80002068C068216A294308432168C860206839
:100C900000692649084021680861A08C0504206885
:100CA0000069A16A294308432168086120684069F6
:100CB0001E49084021684861A08D050420684069EC
:100CC000216B294308432168486194F835000502E7
:100CD00094F8360006042068C06A00F07F4021685E
:100CE000C86246EA050094F8341008432168C96ACE
:100CF00008432168C8622068406B40F00400216806
:100D000048632068406B40F0020021684863206817
:100D1000806940F00100216888610020C4F8A400C7
:100D2000012084F8A100002074E7000000F800F022
:100D300010B586B0044600BF002000904648006809
:100D400040F08060444908600846006800F0806018
:100D5000009000BF00BF00BF002000903E48143844
:100D6000006840F400003C491439086008460068F7
:100D700000F40000009000BF00BF00BF0020009002
:100D80000846006840F0020008600846006800F06D
:100D90000200009000BF00BF00BF00200090084686
:100DA000006840F0200008600846006800F020005D
:100DB000009000BF00BF00BF002000900846006800
:100DC00040F4807008600846006800F4807000906D
:100DD00000BF00BF00BF002000900846006840F43C
:100DE000007008600846006800F40070009000BFC2
:100DF00000BF00BF002000900846006840F48060FB
:100E000008600846006800F48060009000BF00BFE2
:100E10000815019002200290002003900320049006
:100E20000E20059001A90D48FFF78AFD4FF4704090
:100E3000019001A90A48FFF783FD4FF6FF7001906A
:100E400001A90848FFF77CFDF720019001A9064899
:100E5000FFF776FD06B010BD443802400014024092
:100E60000020024000240240002802402DE9F04109
:100E700004460E461746984600BF94F8A000012885
:100E800002D10220BDE8F081012084F8A00000BF5B
:100E9000022084F8A10008EB880000EBC80104F1EF
:100EA000380000EB81052E60A86A30446860AF60AE
:100EB000E86A3844E86042462946204604F096FB3A
:100EC00001202168486284F8A10000BF002084F856
:100ED000A00000BF00BFD5E72DE9F04105460E4652
:100EE0001746984600BF95F8A000012802D10220BD
:100EF000BDE8F081012085F8A00000BF022085F840
:100F0000A10008EB880000EBC80105F1380000EBF8
:100F10008104002020602068304460600020A060D0
:100F2000A0683844E060A662E7624246214628464F
:100F300004F05CFB01202968486285F8A10000BF2D
:100F4000002085F8A00000BF00BFD1E700BF00F07F
:100F50001F02012191404209920002F1E022C2F8F1
:100F6000001100BF70472DE9F05F80460D46164620
:100F7000002704F047FC074639462A46334601F06D
:100F80000700C0F1070ABAF1040F02D94FF0040AB2
:100F900001E0C0F1070AD14600F1040ABAF1070FD7
:100FA00002D24FF0000A01E0A0F1030AD4464FF04C
:100FB000010A0AFA09FAAAF1010A0AEA020A0AFA75
:100FC0000CFA4FF0010B0BFA0CFBABF1010B0BEA27
:100FD000030B4AEA0B042146404604F01BFCBDE823
:100FE000F09F000038B5002400BF00200090234887
:100FF000006840F08050214908600846006800F011
:101000008050009000BF00BF0120010491FAA1F1BF
:10101000B1FA81F11A4A42F82100FFF7A5FD044612
:1010200007E0FFF7A1FD001BB0F57A7F01D903208F
:1010300038BD1448406800F48030B0F5803FF0D1EE
:101040000120410491FAA1F1B1FA81F10C4A42F870
:101050002100FFF789FD044607E0FFF785FD001B2F
:10106000B0F57A7F01D90320E2E70648406800F432
:101070000030B0F5003FF0D10020D9E74038024001
:1010800000000E4200700040F8B50446002500261E
:10109000207800F0010020B9207800F0020002283A
:1010A00066D10020CC498866FFF75EFD054606E064
:1010B000FFF75AFD401B642801D90320F8BDC7483B
:1010C0000068C0F3C0600028F2D1207800F0010071
:1010D00098B147F6C07191FAA1F1B1FA81F1606857
:1010E00088404FF0E04292FAA2F2B2FA82F2A1688E
:1010F00091400843B94984310860207800F002002B
:10110000022821D1B5488430006800F0E0404FF05B
:10111000E04191FAA1F1B1FA81F120FA01F660689B
:101120008101207B41EA006040EA0670AB498431CE
:101130000860AA488C30006820F01F00E169491E51
:101140000843A6498C3108600120A3498866FFF74F
:101150000BFD054606E0FFF707FD401B642801D99B
:101160000320ABE79D480068C0F3C0600028F2D0C0
:10117000207800F00400042804D0207800F0080053
:1011800008287DD1002094490867FFF7EDFC05464B
:1011900006E0FFF7E9FC401B642801D903208DE736
:1011A0008E480068C0F340700028F2D1207800F02B
:1011B0000400042834D189488830006800F0E040F9
:1011C0004FF0E04191FAA1F1B1FA81F120FA01F674
:1011D00047F6C07191FAA1F1B1FA81F12069884016
:1011E0004FF0706292FAA2F2B2FA82F26169914013
:1011F00008434FF0E04191FAA1F1B1FA81F106FA0A
:1012000001F10843754988310860081D006820F421
:10121000F851206A401E41EA002070498C31086074
:10122000207800F00800082834D16C488830006825
:1012300000F070604FF0706191FAA1F1B1FA81F1A4
:1012400020FA01F647F6C07191FAA1F1B1FA81F1E5
:10125000206988404FF0706191FAA1F1B1FA81F1F3
:1012600006FA01F108434FF0E04292FAA2F2B2FA14
:1012700082F2A1699140084358498831086000E032
:101280001CE0081D006820F44030616A084353499F
:101290008C310860012050490867FFF765FC05465E
:1012A00006E0FFF761FC401B642801D9032005E735
:1012B0004A480068C0F340700028F2D0207800F05F
:1012C000200020287DD100BF0020009043484030FE
:1012D000006840F08050414940310860084600688D
:1012E00000F08050009000BF00BF3D48006840F40F
:1012F00080703B490860FFF737FC054606E0FFF7C2
:1013000033FC401B642801D90320D7E63448006829
:1013100000F480700028F2D030487030006800F48B
:101320004070218D01F4407188424AD02B487030C2
:10133000006820F4407601202A49086000200860F7
:1013400026487030066006F0020098B1FFF70CFCEA
:10135000054608E0FFF708FC401B41F2883188424F
:1013600001D90320AAE61D4870300068C0F3400090
:101370000028EFD000BF208D00F44070B0F5407F12
:101380000CD116480830006820F4F810164AA16AFB
:101390001140084311490831086007E00F48083040
:1013A000006820F4F8100D49083108600B487030CF
:1013B0000068218DC1F30B010843084970310860B2
:1013C00000BF207800F01000102803D194F82C0002
:1013D00006490860002071E60000474200380240DC
:1013E00000700040400E4742FFFCFF0FE0114742F3
:1013F00070B504460E460025A748006800F00F00AF
:10140000B0426FD2A4490E700846006800F00F0089
:10141000B04201D0012070BD207800F00200022807
:1014200007D19E48006820F0F000A16808439B495E
:101430000860207800F0010000283ED06068012894
:1014400007D1964808380068C0F34040B8B9012079
:10145000E1E76068022802D06068032807D18F485E
:1014600008380068C0F3406048B90120D3E78B48D2
:1014700008380068C0F3400008B90120CBE787486E
:10148000006820F003006168084384490860FFF7A2
:101490006BFB05466068012810D108E0FFF764FB8C
:1014A000401B41F28831884201D90320B3E77B48D1
:1014B000006800F00C000428F0D1CDE0606802283C
:1014C00011D108E0FFF750FB401B41F28831884200
:1014D00001D903209FE77148006800F00C0008283C
:1014E000F0D1B9E024E06068032810D108E0FFF7EC
:1014F0003BFB401B41F28831884201D903208AE737
:101500006648006800F00C000328F0D1A4E008E071
:10151000FFF72AFB401B41F28831884201D90320A2
:1015200079E75E48006800F00C000028F0D193E0F5
:10153000207800F00200022807D15848006820F007
:10154000F000A168084355490860207800F00100C8
:10155000002877D06068012807D150480838006813
:10156000C0F34040B8B9012055E76068022802D0B6
:101570006068032807D1494808380068C0F3406014
:1015800048B9012047E7454808380068C0F34000E3
:1015900008B901203FE74148006820F00300616876
:1015A00008433E490860FFF7DFFA054660680128F6
:1015B00010D108E0FFF7D8FA401B41F28831884289
:1015C00001D9032027E73548006800F00C00042803
:1015D000F0D137E06068022810D108E0FFF7C4FAC4
:1015E000401B41F28831884201D9032013E72B4880
:1015F000006800F00C000828F0D123E060680328A0
:1016000010D108E0FFF7B0FA401B41F28831884260
:1016100001D90320FFE62148006800F00C000328F0
:10162000F0D10FE008E0FFF79FFA401B41F288314C
:10163000884201D90320EEE61848006800F00C004B
:101640000028F0D114490E700846006800F00F0021
:10165000B04201D00120DEE6207800F0040004282A
:1016600007D10E48006820F4E050E16808430B49B8
:101670000860207800F00800082808D107480068B2
:1016800020F46040216940EAC100044908600F204D
:10169000FFF778FA0020BEE6003C0240083802401E
:1016A00010B500F045F80949096801F0F001F02291
:1016B00092FAA2F2B2FA82F2D140054A515CC840D5
:1016C000044908600846006810BD00000838024060
:1016D0009A6400080000002010B5FFF7E1FF0749F9
:1016E000096801F4E0514FF4E05292FAA2F2B2FA22
:1016F00082F2D140024A515CC84010BD0838024015
:101700009A64000810B5FFF7CBFF0749096801F498
:1017100060414FF4604292FAA2F2B2FA82F2D140F2
:10172000024A515CC84010BD083802409A64000863
:1017300070B50021002200230020274C246804F00B
:101740000C0424B1042C04D0082C41D103E023481C
:1017500040E023483EE0204C241F246804F03F0171
:101760001D4C241F246804F4800484B11C4CB4FB79
:10177000F1F5194C241F246847F6C076344096FAD8
:10178000A6F6B6FA86F6F44005FB04F20FE0134C19
:10179000B4FBF1F5104C241F246847F6C0763440A2
:1017A00096FAA6F6B6FA86F6F44005FB04F20A4C61
:1017B000241F246804F440344FF4403595FAA5F50D
:1017C000B5FA85F5EC40641C6300B2FBF3F001E070
:1017D000024800BF00BF70BD083802400024F4007A
:1017E00040787D0138B504460025207800F00100DE
:1017F000002866D0F748006800F00C0004280DD0DF
:10180000F448006800F00C00082813D1F148001FCC
:10181000006800F48000B0F5800F0BD1ED48083867
:101820000068C0F3404000284BD06068002848D1D1
:10183000012038BD0020E749891F0870FFF794F99F
:10184000054608E0FFF790F9401B41F288318842D5
:1018500001D90320EDE7DF4808380068C0F34040B5
:101860000028EFD12079DB49891F08706068A0B19A
:10187000FFF77AF9054608E0FFF776F9401B41F2D9
:101880008831884201D90320D3E7D248083800685C
:10189000C0F340400028EFD013E0FFF765F905469C
:1018A00008E0FFF761F9401B41F28831884201D915
:1018B0000320BEE7C74808380068C0F3404000284E
:1018C000EFD1207800F00200022869D1C1480068F9
:1018D00000F00C0058B1BF48006800F00C00082868
:1018E00021D1BC48001F006800F48000D8B9B94875
:1018F00008380068C0F3400020B1E068012801D03A
:10190000012096E7B3480838006820F0F800F82274
:1019100092FAA2F2B2FA82F2216991400843AD49EB
:10192000083908603CE0E06828B30120AA49086053
:10193000FFF71AF9054606E0FFF716F9401B642881
:1019400001D9032075E7A34808380068C0F34000B8
:101950000028F1D09F480838006820F0F800F822ED
:1019600092FAA2F2B2FA82F22169914008439949AF
:101970000839086014E0002097490860FFF7F4F880
:10198000054606E0FFF7F0F8401B642801D9032064
:101990004FE7904808380068C0F340000028F1D1B4
:1019A000207800F0080008282CD16069A8B1012037
:1019B0008A490860FFF7D8F8054606E0FFF7D4F833
:1019C000401B642801D9032033E782486C3000684B
:1019D000C0F340000028F1D014E000207F490860E7
:1019E000FFF7C2F8054606E0FFF7BEF8401B642883
:1019F00001D903201DE777486C300068C0F3400030
:101A00000028F1D1207800F0040004286FD100BF35
:101A1000002000906F483830006840F080506D49D9
:101A2000383108600846006800F08050009000BF20
:101A300000BF6B48006840F4807069490860FFF798
:101A400093F8054606E0FFF78FF8401B642801D99C
:101A50000320EEE66248006800F480700028F2D0AF
:101A600000205C4968310870FFF77EF8054608E001
:101A7000FFF77AF8401B41F28831884201D90320F0
:101A8000D7E6544868300068C0F340000028EFD122
:101A9000207A504968310870A068A0B1FFF764F857
:101AA000054608E0FFF760F8401B41F288318842A4
:101AB00001D90320BDE6474868300068C0F3400004
:101AC0000028EFD013E0FFF74FF8054608E0FFF7D6
:101AD0004BF8401B41F28831884201D90320A8E627
:101AE0003C4868300068C0F340000028EFD1A0698E
:101AF000F0B33848006800F00C00082872D0A069E4
:101B0000022850D1002034490866FFF72DF8054619
:101B100006E0FFF729F8401B642801D9032088E676
:101B20002C4808380068C0F340600028F1D1D4E99F
:101B30000701084347F6C07292FAA2F2B2FA82F2A3
:101B4000616A914008430122A16AC2EB51014FF43E
:101B5000403292FAA2F2B2FA82F2914008434FF078
:101B6000706292FAA2F2B2FA82F2E16A914000E067
:101B70003AE008431749091F086001201649086622
:101B8000FEF7F2FF054606E0FEF7EEFF401B642875
:101B900001D903204DE60F4808380068C0F34060C3
:101BA0000028F1D020E000200B490866FEF7DCFF9A
:101BB000054606E0FEF7D8FF401B642801D9032044
:101BC00037E6044808380068C0F340600028F1D1C7
:101BD0000AE007E00838024000004742800E474212
:101BE00000700040012024E6002022E670B5044683
:101BF0000D460CB9012070BD94F82C0028B90020C6
:101C000084F82D00204600F011F8022084F82C0002
:101C1000211D2068FEF7DDFD2946D4E90002FEF70C
:101C200042FE012084F82C000020E4E710B586B0C5
:101C3000044600BF002000905948006840F00100B1
:101C4000574908600846006800F00100009000BF96
:101C500000BF00BF0020009051480838006840F0E5
:101C600004004F49083908600846006800F0040085
:101C7000009000BF00BF00BF002000900846006831
:101C800040F0080008600846006800F00800009076
:101C900000BF00BF00BF002000900846006840F071
:101CA000100008600846006800F01000009000BFB7
:101CB00000BF00BF002000900846006840F02000F0
:101CC00008600846006800F02000009000BF00BFD8
:101CD00000BF002000900846006840F04000086007
:101CE0000846006800F04000009000BF00BF00BF41
:101CF000002000900846006840F080000860084618
:101D0000006800F08000009000BF00BF00BF00200E
:101D100000900846006840F480700860084600683B
:101D200000F48070009000BF00BF012001900220ED
:101D3000029001200390032004900C20059001A93B
:101D40001848FEF7FDFD4CF20370019001A91648FA
:101D5000FEF7F6FD4FF68370019001A91348FEF7D8
:101D6000EFFD4FF63F00019001A91148FEF7E8FD95
:101D700048F23310019001A90E48FEF7E1FD4FF63D
:101D8000C070019001A90C48FEF7DAFD40F2FF6037
:101D9000019001A90948FEF7D3FD06B010BD00006F
:101DA0003838024000080240000C02400010024097
:101DB0000014024000180240001C024000200240B3
:101DC00070B504460D4694F82C00022800D170BD71
:101DD000022084F82C0029462068FEF734FD0120FB
:101DE00084F82C000020F2E770B504460D46164634
:101DF00094F82C00022800D170BD022084F82C0039
:101E0000324629462068FEF725FD2868022803D1BE
:101E1000052084F82C0002E0012084F82C0000202A
:101E2000EAE770B504460E4615460CB9012070BDB0
:101E300094F8490028B9002084F84800204600F0B2
:101E40001DF804F108012068FEF754FC3146A26831
:101E50002068FEF78FFC2946236BD4E90102FEF7C8
:101E600025FCA168206850F8210040F00100A2681C
:101E7000216841F822000020D9E7000010B586B0A3
:101E8000044600BF002000902248006840F0010096
:101E9000204908600846006800F00100009000BF7B
:101EA00000BF00BF002000901A480838006840F0CA
:101EB00008001849083908600846006800F0080062
:101EC000009000BF00BF00BF0020009008460068DF
:101ED00040F0100008600846006800F01000009014
:101EE00000BF00BF4EF2B3700190022002900120AB
:101EF0000390032004900C20059001A90648FEF7EA
:101F00001FFD4FF68070019001A90448FEF718FDEF
:101F100006B010BD38380240000C024000100240EC
:101F2000042808D14FF0E021096941F004014FF085
:101F3000E022116107E04FF0E021096921F004017E
:101F40004FF0E0221161704770B504462546681EC7
:101F5000B0F1807F01D301200FE0681E4FF0E02137
:101F600048610F214FF0FF3003F054FC00204FF088
:101F7000E021886107200861002070BD7047F8B536
:101F80000446002500262068006800F0010520684E
:101F9000C06800F480767DB176B100BF002000906B
:101FA00020680068009020684068009000BF00BF73
:101FB000E06B40F00100E06320680068C0F340057A
:101FC0002068406900F001067DB176B100BF0020B5
:101FD000009020680068009020684068009000BF72
:101FE00000BFE06B40F00400E06320680068C0F3CD
:101FF00080052068406900F001067DB176B100BF20
:1020000000200090206800680090206840680090E0
:1020100000BF00BFE06B40F00200E0632068006892
:10202000C0F3C0052068406900F001067DB176B1BB
:1020300000BF002000902068006800902068406881
:10204000009000BF00BFE06B40F00800E063206834
:102050000068C0F340152068C06800F020061DB17C
:1020600016B1204603F01CFD20680068C0F3C015BF
:102070002068C06800F080061DB116B1204603F04C
:102080007FFE20680068C0F380152068C06800F0FB
:1020900040061DB116B1204603F0EAFCE06B28B102
:1020A000012084F839002046FFF768FFF8BD10B51D
:1020B00004460CB9012010BDA06900B100E000BFCA
:1020C00094F8390028B9002084F83800204600F040
:1020D00025F8022084F839002068C06820F40050F8
:1020E0002168C860204603F039FD2068006920F4AB
:1020F0009040216808612068406920F02A0021682A
:1021000048612068C06840F400502168C860002021
:10211000E063012084F839000020CCE710B586B0D8
:1021200004462849206888424AD100BF0020009018
:102130002548006840F0010023490860084600680F
:1021400000F00100009000BF00BF00BF0020009021
:102150001D481430006840F010001B49143108601D
:102160000846006800F01000009000BF00BF48154E
:102170000190022002900120039002200490072089
:10218000059001A91148FEF7DBFB4FF48060019038
:1021900001A90E48FEF7D4FB2068C06820F040007B
:1021A0002168C8602068C06840F020002168C860CD
:1021B0002520FEF7CBFE032211462520FEF7D3FE95
:1021C00006B010BD0010014030380240000002404F
:1021D0002DE9F04704460D46164699464FF0000893
:1021E00094F83980B8F1010F02D0B8F1120F69D11B
:1021F00005B116B90120BDE8F08700BF94F838009A
:10220000012801D10220F6E7012084F8380000BF40
:102210000020E06394F83900122803D1322084F8BA
:10222000390002E0222084F83900A685E68535E0F1
:10223000E08D401EE085A068B0F5805F18D14B4668
:1022400000222021204603F0D3FD08B10320D2E76D
:102250002F46206930B920684068C0F308003880F4
:10226000AD1C1BE020684068C0B238806D1C15E0D2
:102270004B4600222021204603F0BAFD08B103207E
:10228000B9E7206920B92068406805F8010B05E02E
:102290002068406800F07F0005F8010BE08D002801
:1022A000C6DC94F83900322803D1122084F83900B2
:1022B00002E0012084F8390000BF002084F83800D3
:1022C00000BF98E7022096E77047704700BFFEE71F
:1022D00070B5044600260D4805880D48006818B101
:1022E000204602F0F7FE0FE00848408845430021F1
:1022F000084602F007FD02F08BFE002602E00549C9
:102300000C80761CAE42FAD370BD00008C01002018
:10231000B80200200000086010B504465C488471D3
:102320005C48006850B1204602F0FAFE5948C08A65
:10233000574908805748008B488010BD002C51D168
:10234000F020534908804FF4A070488008468088E8
:1023500049F24131884205D04D48808845F210311C
:10236000884214D12C204A4908812A2048812B20F8
:1023700088810846808845F21031884206D14FF4A2
:10238000A070434908804FF4F07048807BE04048DB
:10239000808845F21051884210D14FF430503C49AA
:1023A00008814FF4285048814FF42C5088814FF415
:1023B000F07008804FF44870488064E034488088AA
:1023C00041F6631188425ED12C20314908812B20CF
:1023D00048812A2088814FF4F07008804FF44870BB
:1023E000488050E04FF4A07029490880F0204880D0
:1023F0000846808849F24131884205D024488088C7
:1024000045F21031884207D12C20214908812A2029
:1024100048812B20888129E01D48808845F2105191
:10242000884210D14FF43050194908814FF4285098
:1024300048814FF42C5088814FF4487008804FF445
:10244000F070488012E01248808841F6631188429B
:102450000CD12C200E4908812A2048812B2088810C
:102460004FF4487008804FF4F07048800848808826
:1024700045F21031884206D14FF4F07004490880CB
:102480004FF4A0704880002002F002FB00BF54E728
:102490008C010020B802002070B504460D46164697
:1024A0004348006828B132462946204602F04EFED5
:1024B00070BD4048808849F24131884205D03D488E
:1024C000808845F21031884214D13A49488902F097
:1024D00093FD201202F084FDE0B202F081FD354947
:1024E000888902F089FD281202F07AFDE8B202F034
:1024F00077FD54E02F48808845F21051884220D162
:102500002C49488902F078FD201202F069FD294922
:102510004989491C88B202F06FFDE0B202F060FD0B
:102520002449888902F068FD281202F059FD2149EA
:102530008989491C88B202F05FFDE8B202F050FDC3
:102540002DE01C48808841F66311884227D1194844
:10255000807920B917480088401E001B84B21549B5
:10256000488902F049FD201202F03AFDE0B202F083
:1025700037FD201202F034FDE0B202F031FD0D49CA
:10258000888902F039FD281202F02AFDE8B202F033
:1025900027FD281202F024FDE8B202F021FD0548D3
:1025A000008905490880891C0E8000BF80E7000073
:1025B000B80200208C010020FEFF076000B595B036
:1025C0000120FE4988800846808818B102F098FEF4
:1025D00002F0F0B900BF00200190F948006840F017
:1025E0000200F74908600846006800F00200019008
:1025F00000BF00BF202010900120119012900320F6
:10260000139010A9EF48FEF79BF94FF02040EE49D8
:102610000860EE484860002088600021EA48C160F8
:1026200001611021416100218161C16141624FF46A
:10263000805181620021C1624FF480410163002119
:10264000416381634FF48011C1630F200990002022
:102650000A9046200B9000200F900F20029000203F
:1026600003900F2004900020089002AA09A9D648E0
:10267000FFF7D7FB322003F09FFCD32002F0BCFC15
:1026800002F0CCF9CD49888002F0C8F9CB498880A6
:1026900002F0C4F9C9498880084680884FF6FF7166
:1026A00001EA0020C549888002F0B8F9C349898849
:1026B0000843C24988800846808849F241318842EF
:1026C00078D0D42002F098FC02F0A8F9BB498880A9
:1026D00002F0A4F9B949888002F0A0F9B7498880CE
:1026E000084680884FF6FF7101EA0020B3498880D0
:1026F00002F094F9B14989880843B04988800846B6
:10270000808845F21031884254D04FF45A4002F08C
:1027100073FC02F083F9A94988804FF45B4002F012
:102720006BFC02F07BF9A5498880084680884FF64B
:10273000FF7101EA0020A14988804FF45C4002F05B
:102740005BFC02F06BF99D49898808439B498880AE
:1027500008468088B0F5004F02D145F210508880BD
:102760009648808845F21051884223D0A12002F07B
:1027700043FC02F053F99149888002F04FF98F49E8
:102780008880084680884FF6FF7101EA00208B4957
:10279000888002F043F989498988084387498880FD
:1027A0000846808845F26171884203D141F6631082
:1027B000824988808148818885A0FDF76DFD7F482A
:1027C000808849F2413188427ED1CF2002F014FC4A
:1027D000002002F005FCC12002F002FC302002F0D3
:1027E000FFFBED2002F008FC642002F0F9FB03205F
:1027F00002F0F6FB122002F0F3FB812002F0F0FB66
:10280000E82002F0F9FB852002F0EAFB102002F03C
:10281000E7FB7A2002F0E4FBCB2002F0EDFB39204D
:1028200002F0DEFB2C2002F0DBFB002002F0D8FBE4
:10283000342002F0D5FB022002F0D2FBF72002F098
:10284000DBFB202002F0CCFBEA2002F0D5FB0020CD
:1028500002F0C6FB002002F0C3FBC02002F0CCFB5C
:102860001B2002F0BDFBC12002F0C6FB012002F0DC
:10287000B7FBC52002F0C0FB302002F0B1FB3020D6
:1028800002F0AEFBC72002F0B7FBB72002F0A8FBB6
:10289000362002F0B1FB482002F0A2FB3A2002F001
:1028A000ABFB552002F09CFBB12002F0A5FB002001
:1028B00002F096FB1A2002F093FBB62002F09CFB7C
:1028C0000A2002F08DFB00E0A9E0A22002F088FBC4
:1028D000F22002F091FB002002F082FB262002F0A1
:1028E0008BFB012002F07CFBE02002F085FB0F2037
:1028F00002F076FB2A2002F073FB282002F070FB26
:10290000082002F06DFB0E2002F06AFB082002F0A6
:1029100067FB542002F064FBA92002F061FB432016
:1029200002F05EFB0A2002F05BFB0F2002F058FB76
:10293000002002F055FB002002F052FB002002F0C4
:102940004FFB002002F04CFBE12002F055FB002081
:1029500002F046FB152002F043FB172002F040FB7B
:10296000072002F03DFB112002F03AFB062002F0A6
:1029700037FB2B2002F034FB562002F031FB3C20C9
:1029800002F02EFB052002F02BFB102002F028FBAA
:102990000F2002F025FB3F2002F022FB3F2002F037
:1029A0001FFB0F2002F01CFB2B2002F025FB002058
:1029B00002F016FB002002F013FB11E08C01002056
:1029C00030380240000402403C010020040100A015
:1029D000204C43442049443A25780D0A0000000069
:1029E000012002F0FDFA3F2002F0FAFA2A2002F05C
:1029F00003FB002002F0F4FA002002F0F1FA0020BC
:102A000002F0EEFAEF2002F0EBFA112002F0F4FAF5
:102A1000782003F0D1FA292002F0EEFAD8E5FE483A
:102A2000808845F21031884240F07C87ED2002F02A
:102A3000E3FA012002F0D4FAFE2002F0D1FAEE20EF
:102A400002F0DAFADE2002F0CBFA212002F0C8FA16
:102A5000F12002F0D1FA012002F0C2FADF2002F0E8
:102A6000CBFA102002F0BCFAC42002F0C5FA8F2085
:102A700002F0B6FAC62002F0BFFA002002F0B0FA67
:102A8000E22002F0ADFAE22002F0AAFAE22002F01F
:102A9000A7FABF2002F0B0FAAA2002F0A1FAB020F3
:102AA00002F0AAFA0D2002F09BFA002002F098FA38
:102AB0000D2002F095FA002002F092FA112002F0A7
:102AC0008FFA002002F08CFA192002F089FA002017
:102AD00002F086FA212002F083FA002002F080FA48
:102AE0002D2002F07DFA002002F07AFA3D2002F05B
:102AF00077FA002002F074FA5D2002F071FA0020EB
:102B000002F06EFA5D2002F06BFA002002F068FA23
:102B1000B12002F071FA802002F062FA002002F087
:102B20005FFA8B2002F05CFA002002F059FA96203E
:102B300002F056FA002002F053FAB22002F05CFADA
:102B4000002002F04DFA002002F04AFA022002F0C2
:102B500047FA002002F044FA032002F041FA002074
:102B600002F03EFAB32002F047FA002002F038FAF1
:102B7000002002F035FA002002F032FA002002F0C4
:102B80002FFA002002F02CFA002002F029FA00208F
:102B900002F026FA002002F023FA002002F020FAC8
:102BA000002002F01DFA002002F01AFA002002F0C4
:102BB00017FA002002F014FA002002F011FA0020A7
:102BC00002F00EFA002002F00BFA002002F008FAE0
:102BD000002002F005FA002002F002FA002002F0C4
:102BE000FFF9002002F0FCF9002002F0F9F90020C2
:102BF00002F0F6F9002002F0F3F9B42002F0FCF93B
:102C00008B2002F0EDF9002002F0EAF9962002F0A4
:102C1000E7F9002002F0E4F9A12002F0E1F9002038
:102C200002F0DEF9B52002F0E7F9022002F0D8F94F
:102C3000002002F0D5F9032002F0D2F9002002F0C2
:102C4000CFF9042002F0CCF9002002F0C9F9B62037
:102C500002F0D2F9002002F0C3F9002002F0C0F91E
:102C6000B72002F0C9F9002002F0BAF9002002F002
:102C7000B7F93F2002F0B4F9002002F0B1F95E206C
:102C800002F0AEF9002002F0ABF9642002F0A8F9DE
:102C9000002002F0A5F98C2002F0A2F9002002F039
:102CA0009FF9AC2002F09CF9002002F099F9DC2099
:102CB00002F096F9002002F093F9702002F090F9EA
:102CC000002002F08DF9902002F08AF9002002F035
:102CD00087F9EB2002F084F9002002F081F9DC2072
:102CE00002F07EF9002002F07BF9B82002F084F9AE
:102CF000002002F075F9002002F072F9002002F0C5
:102D00006FF9002002F06CF9002002F069F9002050
:102D100002F066F9002002F063F9002002F060F989
:102D2000BA2002F069F9242002F05AF9002002F0DA
:102D300057F9002002F054F9002002F051F9C120A7
:102D400002F05AF9202002F04BF9002002F048F975
:102D5000542002F045F9002002F042F9FF2002F071
:102D60003FF9002002F03CF9C22002F045F90A20A8
:102D700002F036F9002002F033F9042002F030F9B5
:102D8000002002F02DF9C32002F036F93C2002F0B9
:102D900027F9002002F024F93A2002F021F900205E
:102DA00002F01EF9392002F01BF9002002F018F998
:102DB000372002F015F9002002F012F93C2002F051
:102DC0000FF9002002F00CF9362002F009F900207A
:102DD00002F006F9322002F003F9002002F000F9B7
:102DE0002F2002F0FDF8002002F0FAF82C2002F06B
:102DF000F7F8002002F0F4F8292002F0F1F80020A2
:102E000002F0EEF8262002F0EBF8002002F0E8F8DD
:102E1000242002F0E5F801E08C010020002002F0FF
:102E2000DFF8242002F0DCF8002002F0D9F823209B
:102E300002F0D6F8002002F0D3F83C2002F0D0F8DF
:102E4000002002F0CDF8362002F0CAF8002002F08F
:102E5000C7F8322002F0C4F8002002F0C1F82F2099
:102E600002F0BEF8002002F0BBF82C2002F0B8F807
:102E7000002002F0B5F8292002F0B2F8002002F09C
:102E8000AFF8262002F0ACF8002002F0A9F82420C8
:102E900002F0A6F8002002F0A3F8242002F0A0F827
:102EA000002002F09DF8232002F09AF8002002F0A2
:102EB00097F8C42002F0A0F8622002F091F80020F8
:102EC00002F08EF8052002F08BF8002002F088F85E
:102ED000842002F085F8002002F082F8F02002F051
:102EE0007FF8002002F07CF8182002F079F800202A
:102EF00002F076F8A42002F073F8002002F070F8D7
:102F0000182002F06DF8002002F06AF8502002F05C
:102F100067F8002002F064F80C2002F061F800204D
:102F200002F05EF8172002F05BF8002002F058F87B
:102F3000952002F055F8002002F052F8F32002F03C
:102F40004FF8002002F04CF8E62002F049F800208B
:102F500002F046F8C52002F04FF8322002F040F8A7
:102F6000002002F03DF8442002F03AF8002002F080
:102F700037F8652002F034F8002002F031F87620AE
:102F800002F02EF8002002F02BF8882002F028F83A
:102F9000002002F025F8C62002F02EF8202002F0D2
:102FA0001FF8002002F01CF8172002F019F800208A
:102FB00002F016F8012002F013F8002002F010F8D9
:102FC000C72002F019F8002002F00AF8002002F0F1
:102FD00007F8002002F004F8002002F001F8C820F1
:102FE00002F00AF8002001F0FBFF002001F0F8FFDA
:102FF000002001F0F5FF002001F0F2FFC92001F0F0
:10300000FBFF002001F0ECFF002001F0E9FF0020B1
:1030100001F0E6FF002001F0E3FF002001F0E0FFF7
:10302000002001F0DDFF002001F0DAFF002001F0B8
:10303000D7FF002001F0D4FF002001F0D1FF0020D5
:1030400001F0CEFF002001F0CBFF002001F0C8FF0F
:10305000002001F0C5FF002001F0C2FF002001F0B8
:10306000BFFFE02001F0C8FF162001F0B9FF0020EB
:1030700001F0B6FF1C2001F0B3FF002001F0B0FF0B
:10308000212001F0ADFF002001F0AAFF362001F061
:10309000A7FF002001F0A4FF462001F0A1FF0020BF
:1030A00001F09EFF522001F09BFF002001F098FFED
:1030B000642001F095FF002001F092FF7A2001F0DA
:1030C0008FFF002001F08CFF8B2001F089FF002092
:1030D00001F086FF992001F083FF002001F080FFBE
:1030E000A82001F07DFF002001F07AFFB92001F057
:1030F00077FF002001F074FFC42001F071FF002071
:1031000001F06EFFCA2001F06BFF002001F068FFA4
:10311000D22001F065FF002001F062FFD92001F00C
:103120005FFF002001F05CFFE02001F059FF00206C
:1031300001F056FFF32001F053FF002001F050FF93
:10314000E12001F059FF162001F04AFF002001F0B4
:1031500047FF1C2001F044FF002001F041FF222026
:1031600001F03EFF002001F03BFF362001F038FF68
:10317000002001F035FF452001F032FF002001F072
:103180002FFF522001F02CFF002001F029FF6420C6
:1031900001F026FF002001F023FF7A2001F020FF3C
:1031A000002001F01DFF8B2001F01AFF002001F02C
:1031B00017FF992001F014FF002001F011FFA82053
:1031C00001F00EFF002001F00BFFB92001F008FF15
:1031D000002001F005FFC42001F002FF002001F0F3
:1031E000FFFECA2001F0FCFE002001F0F9FED22013
:1031F00001F0F6FE002001F0F3FED82001F0F0FE11
:10320000002001F0EDFEE02001F0EAFE002001F0D8
:10321000E7FEF32001F0E4FE002001F0E1FEE220F1
:1032200001F0EAFE052001F0DBFE002001F0D8FEEF
:103230000B2001F0D5FE002001F0D2FE1B2001F092
:10324000CFFE002001F0CCFE342001F0C9FE0020AA
:1032500001F0C6FE442001F0C3FE002001F0C0FED4
:103260004F2001F0BDFE002001F0BAFE612001F008
:10327000B7FE002001F0B4FE792001F0B1FE00207D
:1032800001F0AEFE882001F0ABFE002001F0A8FEA8
:10329000972001F0A5FE002001F0A2FEA62001F07B
:1032A0009FFE002001F09CFEB72001F099FE002057
:1032B00001F096FEC22001F093FE002001F090FE86
:1032C000C72001F08DFE002001F08AFED12001F020
:1032D00087FE002001F084FED62001F081FE002050
:1032E00001F07EFEDD2001F07BFE002001F078FE83
:1032F000F32001F075FE002001F072FEE32001F0E2
:103300007BFE052001F06CFE002001F069FE0A2022
:1033100001F066FE002001F063FE1C2001F060FE5B
:10332000002001F05DFE332001F05AFE002001F084
:1033300057FE442001F054FE002001F051FE5020C1
:1033400001F04EFE002001F04BFE622001F048FE2D
:10335000002001F045FE782001F042FE002001F03F
:103360003FFE882001F03CFE002001F039FE97204E
:1033700001F036FE002001F033FEA62001F030FE01
:10338000002001F02DFEB72001F02AFE002001F000
:1033900027FEC22001F024FE002001F021FEC720FC
:1033A00001F01EFE002001F01BFED12001F018FEEE
:1033B000002001F015FED52001F012FE002001F0E2
:1033C0000FFEDD2001F00CFE002001F009FEF320CD
:1033D00001F006FE002001F003FEE42001F00CFEE7
:1033E000012001F0FDFD002001F0FAFD012001F0B7
:1033F000F7FD002001F0F4FD022001F0F1FD0020B6
:1034000001F0EEFD2A2001F0EBFD002001F0E8FDC7
:103410003C2001F0E5FD002001F0E2FD4B2001F031
:10342000DFFD002001F0DCFD5D2001F0D9FD002072
:1034300001F0D6FD742001F0D3FD002001F0D0FD95
:10344000842001F0CDFD002001F0CAFD932001F0A1
:10345000C7FD002001F0C4FDA22001F0C1FD002045
:1034600001F0BEFDB32001F0BBFD002001F0B8FD6E
:10347000BE2001F0B5FD002001F0B2FDC42001F036
:10348000AFFD002001F0ACFDCD2001F0A9FD002032
:1034900001F0A6FDD32001F0A3FD002001F0A0FD66
:1034A000DD2001F09DFD002001F09AFDF32001F0E8
:1034B00097FD002001F094FDE52001F09DFD002026
:1034C00001F08EFD002001F08BFD002001F088FD51
:1034D000002001F085FD022001F082FD002001F0B6
:1034E0007FFD292001F07CFD002001F079FD3C20CA
:1034F00001F076FD002001F073FD4B2001F070FD1E
:10350000002001F06DFD5D2001F06AFD002001F05A
:1035100067FD742001F064FD002001F061FD84204E
:1035200001F05EFD002001F05BFD932001F058FDED
:10353000002001F055FDA22001F052FD002001F015
:103540004FFDB32001F04CFD002001F049FDBE20ED
:1035500001F046FD002001F043FDC42001F040FDD4
:10356000002001F03DFDCD2001F03AFD002001F0EA
:1035700037FDD32001F034FD002001F031FDDC20C7
:1035800001F02EFD002001F02BFDF32001F028FDBD
:10359000002001F025FDE62001F02EFD112001F0B4
:1035A0001FFD002001F01CFD342001F019FD00205A
:1035B00001F016FD562001F013FD002001F010FD72
:1035C000762001F00DFD002001F00AFD772001F0CA
:1035D00007FD002001F004FD662001F001FD002040
:1035E00001F0FEFC882001F0FBFC002001F0F8FC5B
:1035F000992001F0F5FC002001F0F2FCBB2001F065
:10360000EFFC002001F0ECFC992001F0E9FC002027
:1036100001F0E6FC662001F0E3FC002001F0E0FC94
:10362000552001F0DDFC002001F0DAFC552001F00E
:10363000D7FC002001F0D4FC452001F0D1FC002093
:1036400001F0CEFC432001F0CBFC002001F0C8FCCF
:10365000442001F0C5FC002001F0C2FCE72001F08D
:10366000CBFC322001F0BCFC002001F0B9FC55205D
:1036700001F0B6FC002001F0B3FC762001F0B0FCB4
:10368000002001F0ADFC662001F0AAFC002001F052
:10369000A7FC672001F0A4FC002001F0A1FC67203A
:1036A00001F09EFC002001F09BFC872001F098FCBB
:1036B000002001F095FC992001F092FC002001F01F
:1036C0008FFCBB2001F08CFC002001F089FC9920CC
:1036D00001F086FC002001F083FC772001F080FCE3
:1036E000002001F07DFC442001F07AFC002001F074
:1036F00077FC562001F074FC002001F071FC2320BF
:1037000001F06EFC002001F06BFC332001F068FC3E
:10371000002001F065FC452001F062FC002001F072
:103720005FFCE82001F068FC002001F059FC00205B
:1037300001F056FC992001F053FC002001F050FCF0
:10374000872001F04DFC002001F04AFC882001F0A8
:1037500047FC002001F044FC772001F041FC0020F0
:1037600001F03EFC662001F03BFC002001F038FC3B
:10377000882001F035FC002001F032FCAA2001F085
:103780002FFC002001F02CFCBB2001F029FC0020C4
:1037900001F026FC992001F023FC002001F020FC20
:1037A000662001F01DFC002001F01AFC552001F0FC
:1037B00017FC002001F014FC552001F011FC002042
:1037C00001F00EFC442001F00BFC002001F008FC8D
:1037D000442001F005FC002001F002FC552001F01E
:1037E000FFFB002001F0FCFBE92001F005FCAA2012
:1037F00001F0F6FB002001F0F3FB002001F0F0FBEC
:10380000002001F0EDFB002001F0F6FBAA2001F002
:10381000E7FBCF2001F0F0FB002001F0E1FB0020EE
:1038200001F0DEFB002001F0DBFB002001F0D8FB03
:10383000002001F0D5FB002001F0D2FB002001F0B8
:10384000CFFB002001F0CCFB002001F0C9FB0020E1
:1038500001F0C6FB002001F0C3FB002001F0C0FB1B
:10386000002001F0BDFB002001F0BAFB002001F0B8
:10387000B7FB002001F0B4FB002001F0B1FBF02009
:1038800001F0BAFB002001F0ABFB502001F0A8FBD7
:10389000002001F0A5FB002001F0A2FB002001F0B8
:1038A0009FFBF32001F0A8FB002001F099FBF92019
:1038B00001F0A2FB062001F093FB102001F090FB29
:1038C000292001F08DFB002001F08AFB3A2001F055
:1038D00093FB552001F084FB112001F08DFB642047
:1038E00002F06AFB292001F087FB352001F084FB00
:1038F000002001F075FB512001F07EFBFF2001F05C
:103900006FFB532001F078FB2C2001F069FB552060
:1039100001F072FB822001F063FB2C2001F06CFBB4
:1039200001F048B8FE48808845F2105188427DD1A8
:1039300055214FF4704001F075FBAA214FF20100B0
:1039400001F070FB52214FF2020001F06BFB0821E5
:103950004FF2030001F066FB01214FF2040001F079
:1039600061FB0D214FF4304001F05CFB0D214BF267
:10397000010001F057FB0D214BF2020001F052FB58
:1039800034214FF4364001F04DFB34214BF20160FD
:1039900001F048FB34214BF2026001F043FB0D21A2
:1039A0004FF4314001F03EFB0D214BF2011001F0CC
:1039B00039FB0D214BF2021001F034FB34214FF49E
:1039C000374001F02FFB34214BF2017001F02AFB4C
:1039D00034214BF2027001F025FB00214FF43240FC
:1039E00001F020FB00214BF2012001F01BFB002124
:1039F0004BF2022001F016FB24214FF4384001F075
:103A000011FB24214BF6010001F00CFB24214BF6A5
:103A1000020001F007FB01214FF43F4001F002FBDF
:103A20000F214FF4334001F0FDFA00E0FDE30F21D8
:103A30004BF2013001F0F6FA0F214BF2023001F0A7
:103A4000F1FA34214FF4394001F0ECFA34214BF60D
:103A5000011001F0E7FA34214BF6021001F0E2FA0E
:103A600008214FF4354001F0DDFA08214BF20150F6
:103A700001F0D8FA08214BF2025001F0D3FA0321E9
:103A80004FF4424001F0CEFA24214FF43A4001F0C5
:103A9000C9FA24214BF6012001F0C4FA24214BF687
:103AA000022001F0BFFA00214FF43C4001F0BAFAC5
:103AB00078214BF6014001F0B5FA00214BF60240A7
:103AC00001F0B0FA00214FF43D4001F0ABFA78214B
:103AD0004BF6015001F0A6FA00214BF6025001F01E
:103AE000A1FA00214FF43E4001F09CFA64214BF60C
:103AF000016001F097FA00214FF4514001F092FA71
:103B000033214DF2011001F08DFA00214DF2021027
:103B100001F088FA34214DF2031001F083FA0021FC
:103B20004DF2041001F07EFA3A214DF2051001F039
:103B300079FA00214DF2061001F074FA4A214DF293
:103B4000071001F06FFA00214DF2081001F06AFA37
:103B50005C214DF2091001F065FA00214DF20A10C6
:103B600001F060FA81214DF20B1001F05BFA0021A7
:103B70004DF20C1001F056FAA6214DF20D1001F095
:103B800051FA00214DF20E1001F04CFAE5214DF2F0
:103B90000F1001F047FA01214DF2101001F042FA26
:103BA00013214DF2111001F03DFA01214DF21210D6
:103BB00001F038FA54214DF2131001F033FA0121CB
:103BC0004DF2141001F02EFA82214DF2151001F081
:103BD00029FA01214DF2161001F024FACA214DF202
:103BE000171001F01FFA02214DF2181001F01AFA15
:103BF00000214DF2191001F015FA02214DF21A10B0
:103C000001F010FA01214DF21B1001F00BFA022114
:103C10004DF21C1001F006FA34214DF21D1001F096
:103C200001FA02214DF21E1001F0FCF967214DF25C
:103C30001F1001F0F7F902214DF2201001F0F2F906
:103C400084214DF2211001F0EDF902214DF22210F4
:103C500001F0E8F9A4214DF2231001F0E3F902216B
:103C60004DF2241001F0DEF9B7214DF2251001F0DC
:103C7000D9F902214DF2261001F0D4F9CF214DF2ED
:103C8000271001F0CFF902214DF2281001F0CAF9F6
:103C9000DE214DF2291001F0C5F902214DF22A1062
:103CA00001F0C0F9F2214DF22B1001F0BBF9022115
:103CB0004DF22C1001F0B6F9FE214DF22D1001F05D
:103CC000B1F903214DF22E1001F0ACF910214DF2A3
:103CD0002F1001F0A7F903214DF2301001F0A2F9E5
:103CE00033214DF2311001F09DF903214DF23210D4
:103CF00001F098F96D214DF2331001F093F9002194
:103D00004FF4524001F08EF933214DF2012001F0C1
:103D100089F900214DF2022001F084F9342101E0FB
:103D20008C0100204DF2032001F07CF900214DF2BE
:103D3000042001F077F93A214DF2052001F072F9E3
:103D400000214DF2062001F06DF94A214DF20720C5
:103D500001F068F900214DF2082001F063F95C21BF
:103D60004DF2092001F05EF900214DF20A2001F028
:103D700059F981214DF20B2001F054F900214DF247
:103D80000C2001F04FF9A6214DF20D2001F04AF967
:103D900000214DF20E2001F045F9E5214DF20F20F2
:103DA00001F040F901214DF2102001F03BF91321FF
:103DB0004DF2112001F036F901214DF2122001F0EF
:103DC00031F954214DF2132001F02CF901214DF26B
:103DD000142001F027F982214DF2152001F022F97B
:103DE00001214DF2162001F01DF9CA214DF21720D4
:103DF00001F018F902214DF2182001F013F9002109
:103E00004DF2192001F00EF902214DF21A2001F0B5
:103E100009F901214DF21B2001F004F902214DF2B4
:103E20001C2001F0FFF834214DF21D2001F0FAF8BA
:103E300002214DF21E2001F0F5F867214DF21F20FE
:103E400001F0F0F802214DF2202001F0EBF884217E
:103E50004DF2212001F0E6F802214DF2222001F07E
:103E6000E1F8A4214DF2232001F0DCF802214DF20B
:103E7000242001F0D7F8B7214DF2252001F0D2F827
:103E800002214DF2262001F0CDF8CF214DF227205E
:103E900001F0C8F802214DF2282001F0C3F8DE211C
:103EA0004DF2292001F0BEF802214DF22A2001F046
:103EB000B9F8F2214DF22B2001F0B4F802214DF2B5
:103EC0002C2001F0AFF8FE214DF22D2001F0AAF8D0
:103ED00003214DF22E2001F0A5F810214DF22F20E4
:103EE00001F0A0F803214DF2302001F09BF83321BE
:103EF0004DF2312001F096F803214DF2322001F00D
:103F000091F86D214DF2332001F08CF800214FF42F
:103F1000534001F087F833214DF2013001F082F86F
:103F200000214DF2023001F07DF834214DF20330D2
:103F300001F078F800214DF2043001F073F83A21D5
:103F40004DF2053001F06EF800214DF2063001F01F
:103F500069F84A214DF2073001F064F800214DF272
:103F6000083001F05FF85C214DF2093001F05AF899
:103F700000214DF20A3001F055F881214DF20B304D
:103F800001F050F800214DF20C3001F04BF8A62161
:103F90004DF20D3001F046F800214DF20E3001F0E7
:103FA00041F8E5214DF20F3001F03CF801214DF2CE
:103FB000103001F037F813214DF2113001F032F8D2
:103FC00001214DF2123001F02DF854214DF2133041
:103FD00001F028F801214DF2143001F023F882217C
:103FE0004DF2153001F01EF801214DF2163001F0AE
:103FF00019F8CA214DF2173001F014F802214DF2E0
:10400000183001F00FF800214DF2193001F00AF8D4
:1040100002214DF21A3001F005F801214DF21B305A
:1040200001F000F802214DF21C3000F0FBFF3421BA
:104030004DF21D3000F0F6FF02214DF21E3000F06F
:10404000F1FF67214DF21F3000F0ECFF02214DF22D
:10405000203000F0E7FF84214DF2213000F0E2FF34
:1040600002214DF2223000F0DDFFA4214DF2233079
:1040700000F0D8FF02214DF2243000F0D3FFB72129
:104080004DF2253000F0CEFF02214DF2263000F037
:10409000C9FFCF214DF2273000F0C4FF02214DF2BD
:1040A000283000F0BFFFDE214DF2293000F0BAFFCA
:1040B00002214DF22A3000F0B5FFF2214DF22B30F3
:1040C00000F0B0FF02214DF22C3000F0ABFFFE21DA
:1040D0004DF22D3000F0A6FF03214DF22E3000F0FE
:1040E000A1FF10214DF22F3000F09CFF03214DF273
:1040F000303000F097FF33214DF2313000F092FF65
:1041000003214DF2323000F08DFF6D214DF233303E
:1041100000F088FF00214FF4544000F083FF33216A
:104120004DF2014000F07EFF00214DF2024000F010
:1041300079FF34214DF2034000F074FF00214DF26D
:10414000044000F06FFF3A214DF2054000F06AFF95
:1041500000214DF2064000F065FF4A214DF2074074
:1041600000F060FF00214DF2084000F05BFF5C2191
:104170004DF2094000F056FF00214DF20A4000F0D8
:1041800051FF81214DF20B4000F04CFF00214DF218
:104190000C4000F047FFA6214DF20D4000F042FF19
:1041A00000214DF20E4000F03DFFE5214DF20F40A1
:1041B00000F038FF01214DF2104000F033FF1321D1
:1041C0004DF2114000F02EFF01214DF2124000F09F
:1041D00029FF54214DF2134000F024FF01214DF23C
:1041E000144000F01FFF82214DF2154000F01AFF2D
:1041F00001214DF2164000F015FFCA214DF2174083
:1042000000F010FF02214DF2184000F00BFF0021DA
:104210004DF2194000F006FF02214DF21A4000F065
:1042200001FF01214DF21B4000E005E300F0FAFE22
:1042300002214DF21C4000F0F5FE34214DF21D40EC
:1042400000F0F0FE02214DF21E4000F0EBFE67216F
:104250004DF21F4000F0E6FE02214DF2204000F03A
:10426000E1FE84214DF2214000F0DCFE02214DF2FE
:10427000224000F0D7FEA4214DF2234000F0D2FEF0
:1042800002214DF2244000F0CDFEB7214DF2254031
:1042900000F0C8FE02214DF2264000F0C3FECF21FF
:1042A0004DF2274000F0BEFE02214DF2284000F002
:1042B000B9FEDE214DF2294000F0B4FE02214DF29C
:1042C0002A4000F0AFFEF2214DF22B4000F0AAFE92
:1042D00002214DF22C4000F0A5FEFE214DF22D40B2
:1042E00000F0A0FE03214DF22E4000F09BFE1021B5
:1042F0004DF22F4000F096FE03214DF2304000F0C9
:1043000091FE33214DF2314000F08CFE03214DF23D
:10431000324000F087FE6D214DF2334000F082FE06
:1043200000214FF4554000F07DFE33214DF2015045
:1043300000F078FE00214DF2025000F073FE3421AF
:104340004DF2035000F06EFE00214DF2045000F0DB
:1043500069FE3A214DF2055000F064FE00214DF255
:10436000065000F05FFE4A214DF2075000F05AFE61
:1043700000214DF2085000F055FE5C214DF209502D
:1043800000F050FE00214DF20A5000F04BFE81215A
:104390004DF20B5000F046FE00214DF20C5000F0A3
:1043A00041FEA6214DF20D5000F03CFE00214DF2E1
:1043B0000E5000F037FEE5214DF20F5000F032FEB6
:1043C00001214DF2105000F02DFE13214DF211503D
:1043D00000F028FE01214DF2125000F023FE54217E
:1043E0004DF2135000F01EFE01214DF2145000F06A
:1043F00019FE82214DF2155000F014FE01214DF2FC
:10440000165000F00FFECA214DF2175000F00AFEC0
:1044100002214DF2185000F005FE00214DF2195016
:1044200000F000FE02214DF21A5000F0FBFD0121C8
:104430004DF21B5000F0F6FD02214DF21C5000F031
:10444000F1FD34214DF21D5000F0ECFD02214DF242
:104450001E5000F0E7FD67214DF21F5000F0E2FD15
:1044600002214DF2205000F0DDFD84214DF221505B
:1044700000F0D8FD02214DF2225000F0D3FDA4211E
:104480004DF2235000F0CEFD02214DF2245000F0F9
:10449000C9FDB7214DF2255000F0C4FD02214DF2B7
:1044A000265000F0BFFDCF214DF2275000F0BAFD9D
:1044B00002214DF2285000F0B5FDDE214DF22950C9
:1044C00000F0B0FD02214DF22A5000F0ABFDF221C8
:1044D0004DF22B5000F0A6FD02214DF22C5000F0C1
:1044E000A1FDFE214DF22D5000F09CFD03214DF267
:1044F0002E5000F097FD10214DF22F5000F092FD4C
:1045000003214DF2305000F08DFD33214DF231503A
:1045100000F088FD03214DF2325000F083FD6D2143
:104520004DF2335000F07EFD00214FF4564000F074
:1045300079FD33214DF2016000F074FD00214DF250
:10454000026000F06FFD34214DF2036000F06AFD5F
:1045500000214DF2046000F065FD3A214DF2056046
:1045600000F060FD00214DF2066000F05BFD4A2185
:104570004DF2076000F056FD00214DF2086000F09A
:1045800051FD5C214DF2096000F04CFD00214DF21F
:104590000A6000F047FD81214DF20B6000F042FD02
:1045A00000214DF20C6000F03DFDA6214DF20D60A2
:1045B00000F038FD00214DF20E6000F033FDE521E2
:1045C0004DF20F6000F02EFD01214DF2106000F061
:1045D00029FD13214DF2116000F024FD01214DF25F
:1045E000126000F01FFD54214DF2136000F01AFD1F
:1045F00001214DF2146000F015FD82214DF215608D
:1046000000F010FD01214DF2166000F00BFDCA21F3
:104610004DF2176000F006FD02214DF2186000F027
:1046200001FD00214DF2196000F0FCFC02214DF269
:104630001A6000F0F7FC01214DF21B6000F0F2FC63
:1046400002214DF21C6000F0EDFC34214DF21D60A2
:1046500000F0E8FC02214DF21E6000F0E3FC67214F
:104660004DF21F6000F0DEFC02214DF2206000F0F0
:10467000D9FC84214DF2216000F0D4FC02214DF2DE
:10468000226000F0CFFCA4214DF2236000F0CAFCB0
:1046900002214DF2246000F0C5FCB7214DF22560E7
:1046A00000F0C0FC02214DF2266000F0BBFCCF21DF
:1046B0004DF2276000F0B6FC02214DF2286000F0B8
:1046C000B1FCDE214DF2296000F0ACFC02214DF27C
:1046D0002A6000F0A7FCF2214DF22B6000F0A2FC52
:1046E00002214DF22C6000F09DFCFE214DF22D6068
:1046F00000F098FC03214DF22E6000F093FC102195
:104700004DF22F6000F08EFC03214DF2306000F07E
:1047100089FC33214DF2316000F084FC03214DF21D
:10472000326000F07FFC6D214DF2336000F07AFCC6
:1047300055214FF4704000F075FCAA214FF20100A2
:1047400000F070FC52214FF2020000F06BFC0821D7
:104750004FF2030000F066FC00214FF2040000F06D
:1047600061FCCC214FF4314000F05CFC00214BF2A5
:10477000011000F057FC05214FF4364000F052FCC8
:1047800070214FF4374000F04DFC70214BF2017066
:1047900000F048FC01214FF4384000F043FC0321B5
:1047A0004BF6010000F03EFC03214BF6020000F046
:1047B00039FC03214BF6030000F034FC02214FF4D6
:1047C0003C4000F02FFC00214BF6014000F02AFC99
:1047D00000214BF6024000F025FCD0214FF4494067
:1047E00000F020FC02214CF6011000F01BFC5021CF
:1047F0004CF6021000F016FC50214CF6031000F0AD
:1048000011FC50214CF6041000F00CFC00214FF478
:10481000545000F007FC55214FF4685000F002FCA2
:104820004FF4885000F0E8FB782001F0D1FB4FF402
:10483000245000F0E1FBBDE07548808841F663112B
:104840008842F8D1E22000F0D7FB1D2000F0C8FB21
:10485000022000F0C5FB042000F0C2FB642001F040
:10486000B7FBE02000F0C8FB012000F0B9FB0A20F4
:1048700001F0A2FBE02000F0BFFB032000F0B0FB42
:104880000C2001F099FB012000F0B6FB0A2001F09A
:1048900093FBE62000F0B0FB2F2000F0A1FBFF20EF
:1048A00000F09EFBFF2000F09BFBB02000F0A4FB7B
:1048B000202000F095FB002000F092FB032000F088
:1048C0008FFB40F2FF3000F08BFB022000F088FBF2
:1048D00040F2572000F084FB002000F081FBB42060
:1048E00000F08AFB042000F07BFB40F2FF4000F068
:1048F00077FB002000F074FB2E2000F071FB0920F4
:1049000000F06EFB002000F06BFB002000F068FB65
:10491000002000F065FBB62000F06EFB022000F0E6
:104920005FFB4FF4217000F05BFB002000F058FBB0
:10493000172000F055FB152000F052FB002000F07E
:104940004FFB002000F04CFBF02000F055FB032053
:1049500000F046FB292000F04FFBD02000F04CFB7C
:10496000002000F03DFBBE2000F046FB052000F0DB
:1049700037FBFE2000F034FB012000F031FB00206B
:1049800000F02EFB002000F02BFB002000F028FBA5
:10499000B82000F031FB032000F022FB012000F0E2
:1049A0001FFBBA2000F028FB012000F019FB642057
:1049B00000F03EF81648808849F24131884211D013
:1049C0001348808845F2103188420BD01048808807
:1049D00045F21051884205D00D48808841F6631198
:1049E000884209D10420029004900A490B6B8A681E
:1049F000486802A9FBF75AFE0020FDF78DFC012054
:104A0000054908604FF6FF70FDF762FC15B000BD68
:104A10008C0100203C010020B482414208B50348CB
:104A200000880090BDF8000008BD0000000008608C
:104A300070B52DED048B0446BE2000F0DDFA052094
:104A400000F0CEFA204601F012FC41EC190B9FED6C
:104A50000E0B53EC102B01F01DFC41EC180B01F078
:104A6000D9FB85B2284600F0BBFA012000F0B8FA65
:104A7000FF2000F0B5FA002000F0B2FA002000F0AC
:104A8000AFFABDEC048B70BD666666666666044070
:104A9000F0B505460024002799488079012805D102
:104AA0009748808841F66311884208D194488079FC
:104AB000F0B99348808841F66311884218D1082DD7
:104AC00015D2DFE805F00406080A0C0E10120625C0
:104AD0000DE007250BE0042509E0052507E0012589
:104AE00005E0002503E0032501E0022500BF00BF2B
:104AF0008348808849F24131884211D080488088BB
:104B000045F2103188420BD07D48808845F2105123
:104B1000884205D07A48808841F6631188427DD169
:104B2000082D1CD2DFE805F00406090C0F12151839
:104B300000BF14E044F0800411E044F040040EE0B3
:104B400044F0C0040BE044F0200408E044F06004AA
:104B500005E044F0A00402E044F0E00400BF00BF20
:104B60006748808845F21051884202D14FF4585767
:104B700000E036276248808845F2103188420DD027
:104B80005F48808845F21051884207D05C48808891
:104B900041F66311884201D044F0080421463846AA
:104BA00000F040FA5648808841F6631188421DD0D3
:104BB00004F0200068B15248008851494988884271
:104BC00014DA4F48068840884D49088008464680D8
:104BD0000CE04B4800884A494988884206DD48482D
:104BE00006884088464908800846468044488088B0
:104BF00045F21051884254D14149488900F0FCF9EE
:104C0000002000F0EDF93E494989491C88B200F0C6
:104C1000F3F9002000F0E4F9394900E06FE0498938
:104C2000891C88B200F0E8F935490988491EC1F3AA
:104C30000F2000F0D5F932494989C91C88B200F02B
:104C4000DBF92F490978491EC8B200F0C9F92C498F
:104C5000888900F0D1F9002000F0C2F9284989893B
:104C6000491C88B200F0C8F9002000F0B9F92449C5
:104C70008989891C88B200F0BFF921494988491EF9
:104C8000C1F30F2000F0ACF91D498989C91C88B215
:104C900000F0B2F91A498978491EC8B200F0A0F9AB
:104CA0002DE01749488900F0A7F9002000F098F995
:104CB000002000F095F912490988491EC1F30F2020
:104CC00000F08EF90E490978491EC8B200F088F943
:104CD0000B49888900F090F9002000F081F900204C
:104CE00000F07EF906494988491EC1F30F2000F003
:104CF00077F903498978491EC8B200F071F9F0BD0F
:104D00008C01002010B502460C464B48808849F2C1
:104D10004131884205D04848808845F210318842A8
:104D200014D14549488900F067F9101200F058F98C
:104D3000D0B200F055F94049888900F05DF92012A1
:104D400000F04EF9E0B200F04BF973E03A48808889
:104D500041F66311884247D137488079A8B936486F
:104D60000088401E801A82B23349488900F044F915
:104D7000002000F035F9002000F032F9101200F0A8
:104D80002FF9D0B200F02CF916E02B49488900F039
:104D900033F9101200F024F9D0B200F021F92649BD
:104DA0000988491EC1F30F2000F01AF92249097839
:104DB000491EC8B200F014F91F49888900F01CF997
:104DC000201200F00DF9E0B200F00AF91A49498802
:104DD000491EC1F30F2000F003F917498978491ED5
:104DE000C8B200F0FDF825E01348808845F2105164
:104DF00088421FD11049488900F0FEF8101200F0D7
:104E0000EFF80D494989491C88B200F0F5F8D0B295
:104E100000F0E6F80849888900F0EEF8201200F06A
:104E2000DFF805498989491C88B200F0E5F8E0B24D
:104E300000F0D6F810BD00008C0100202DE9F84FDD
:104E400080460F4616461C46BB462046E31704EB39
:104E50005373DB1021464FEAE47C04EB5C7C4FEAA1
:104E6000EC0CA4EBCC0CBCF1000F02D04FF0010C09
:104E700001E04FF0000C6344224604EBD27C4FEA81
:104E80006C0C03FB0CF3DBB20093A6F12000C6B25E
:104E900000255EE00C2C07D106EB46002F4901EB04
:104EA000800010F805901BE0102C05D12C4800EB79
:104EB000061010F8059013E0182C07D106EBC60079
:104EC000284901EB800010F8059009E0202C05D15D
:104ED000254800EBC61010F8059001E0BDE8F88FFA
:104EE0004FF0000A2FE009F0800030B11F4839462A
:104EF00002684046FDF7D0FA07E00A9828B91C4836
:104F0000394602684046FDF7C7FA4FEA49604FEA62
:104F10001069781C87B217484088B84200DCDDE78A
:104F2000A7EB0B00A0420AD15F4608F101001FFA6F
:104F300080F810480088404500DCCFE706E00AF121
:104F4000010000F0FF0ABAF1080FCCDB00BF681CBB
:104F5000C5B2009885429DDB00BFBFE7AA64000888
:104F60001E6900080E6F00086A7C000824000020FB
:104F7000280000208C0100202DE9F84F04460D4642
:104F800090469946DDE90A6704F0FF0A08EB040041
:104F90001FFA80F809EB05001FFA80F916E0444576
:104FA00002DB5446A81985B24D4500DB14E0002011
:104FB00000903A78334629462046FFF73FFF3046B7
:104FC00006EBD07104EB61018CB27F1C38787E282F
:104FD00002DC38782028E2DA00BFBDE8F88F000054
:104FE00001B5BDF800000090BDF80000014908803F
:104FF00008BD00000000086001B5BDF80000009089
:10500000BDF800000149088008BD0000FEFF0760F0
:105010000248008902490880704700008C01002086
:10502000FEFF0760024A1080921C1180704700004A
:10503000FEFF076000B587B000BF00200190224846
:10504000006840F00200204908600846006800F04F
:105050000200019000BF00BF00BF00200190084681
:10506000006840F0080008600846006800F008008A
:10507000019000BF00BF0320029001200390049024
:105080000320059002A91148FBF75AFC4FF4005089
:1050900002900120039004900320059002A90C487F
:1050A000FBF74EFC012211460848FBF757FD012291
:1050B00002210648FBF752FD012251030448FBF789
:1050C0004DFD07B000BD0000303802400004024032
:1050D000000C024018B5044606480094008B401EA0
:1050E00083B20448C08A401E82B20021084600F004
:1050F00055F818BDB802002070B58CB004460E46B5
:105100001546082000900494069609956846FBF71A
:10511000BBFF10B900200CB070BD0120FBE7000000
:105120000949487530B98988074AD18211460988EA
:10513000118308E0012806D103490988024AD18277
:105140001146898811837047B802002070B5114B51
:105150005B7D6BB10F4BDB690E4D2D6805FB0105C7
:105160006B430C4D2D7D0C4E56F82550EA520FE046
:10517000084B1D685B681B1A5B1E05FB0313054D7E
:10518000ED696B43034D2D7D034E56F82550EA52D1
:1051900070BD0000B80200202C0000202DE9F84F5F
:1051A00004460D4616464FF0000CDFF8449199F87E
:1051B0001590B9F1000F04D02046294632461F460B
:1051C00011E02846DFF82891D9F80490A9EB0609E8
:1051D000A9F101011A46DFF81891D9F80490A9EB5A
:1051E0000409A9F10107DFF80891B9F80090A2EBD2
:1051F000000A0AF1010AA9EB0A091FFA89F8DFF887
:10520000F09099F81490DFF8ECA05AF82990DFF8A4
:10521000E0A0DAF81CA0DFF8D8B0DBF800B00BFB98
:10522000010B0AFB0B9E00BF4FF00009CDF8009068
:10523000DFF8C490D9F8009049F40009DFF8B8A06D
:10524000CAF80090D146D9F8009009F40009CDF8C9
:10525000009000BF00BFDFF8A490D9F8009029F0BB
:105260000109DFF898A0CAF800904FF44039CAF855
:1052700000904FF00209CAF83490D146C9F8408036
:10528000C9F83CE0A7EB010909F10109A2EB000A0A
:105290000AF1010A49EA0A49DFF860A0CAF8449015
:1052A000DDF82890CAF83890D146D9F8009049F036
:1052B0000109CAF8009005E00CF1010CBCF5001FD3
:1052C00000D308E0DFF83490D9F8049009F002091F
:1052D000B9F1000FF0D000BFDFF82090D9F80890A6
:1052E00049F00209DFF814A0CAF80890BDE8F88F69
:1052F000B80200202C0000203038024000B00240EC
:105300001FB5002447F2160444F24230844218D1FB
:105310004FF4F070804908604FF4887048600120B5
:1053200008814881282088810820C88105200882BA
:1053300008204882820304214FF49070FFF7DCFEBE
:1053400051E047F28400844219D14FF44870724909
:1053500008604FF4F07048600120088148812E20D9
:1053600088811720C881D2200882162048824FF4F5
:10537000803203214FF4C670FFF7BEFE33E047F2E0
:105380001600844219D14FF48060634908604FF4DD
:1053900016704860142008810420488128208881E4
:1053A0001420C8813C200882162048820022062151
:1053B0004FF4B470FFF7A0FE15E047F218008442E6
:1053C00007D14FF4A060544908604FF4487048601A
:1053D00009E048F21700844205D140114E490860A7
:1053E0004FF4407048604C4800884C4908804A4857
:1053F0008088488002204849C86149484949086076
:1054000047F28400844200D000BF47484749086003
:1054100000204860002145488160C16001613E482C
:105420000089401E414948613B484089401E8861CF
:1054300039480089384989890844401E3B49C86178
:10544000354840893449C9890844401E37490862B3
:10545000314800893049898908442F49096808443E
:10546000401E324948622C4840892B49C98908446A
:10547000294949680844401E2C4988622648008909
:105480002549898908442449096808442249098A28
:105490000844401E2549C8621F4840891E49C989E1
:1054A00008441D49496808441B49498A0844401E6C
:1054B0001E49086300211D4880F8361080F8351019
:1054C00080F83410FBF7A0FB002007210622CDE96D
:1054D0000002CDE902101348FF23022201680020D8
:1054E00000F028F80C48808880B200900A480088B4
:1054F00083B200221146104600F05AF80020FFF750
:105500000FFE002000F06CF8012009490860801EA1
:10551000FFF7E0FD1FBD0000B80200208C01002055
:10552000000000D02C00002000680140D0010020C5
:10553000B48241422DE9F04F8DB005460E46174624
:105540009846DDE917ABDDF85890199C00200090D3
:105550000290154800680190134840680390049732
:10556000CDF81480CDF818904FEA0A2007904FEA42
:105570000B20089009960C4800680A900A48406879
:105580000B90002001148DF8321001128DF83110AB
:10559000E0B28DF830002A4669460448FBF704FB68
:1055A0000DB0BDE8F08F0000B8020020D00100204F
:1055B0002DE9F04104460E4617461D46DDF81880D9
:1055C00023463A4631460548FBF750FC23464246FF
:1055D00029460248FBF780FCBDE8F081D00100209D
:1055E0000149087570470000B8020020F0B500239B
:1055F000002400258E880768FF68C7F30B473E44E8
:10560000330406688436802707FB0266766806F452
:105610007047066884364FF0800C0CFB026677609A
:105620000E680768FF68C7F30B473E44761C1E43AD
:10563000076884370CFB02777E608E890768FF68F5
:10564000C7F30A073E44330406688436802707FB05
:105650000266B66806F47047066884360CFB02667C
:10566000B7608E680768FF68C7F30A073E44761C78
:105670001E43076884370CFB0277BE6006688436D9
:10568000802707FB0266366926F00707066884361E
:105690000CFB026637610F69066884360CFB0266F4
:1056A00037613126765C33023226765C34040E7E16
:1056B000350606688436802707FB0266B669002730
:1056C000066884360CFB0266B76191F830601E43B1
:1056D00026432E43076884370CFB0277BE610668B9
:1056E0008436802707FB0266766926F0FF07066886
:1056F00084360CFB026677614F69066884360CFBC2
:105700000266776106688436802707FB0266F769C0
:1057100040F20776B743066884360CFB0266F761F1
:10572000D1E907673E43076884370CFB0277FE61C7
:1057300006688436802707FB0266B66A002706687B
:1057400084360CFB0266B7624F6A066884360CFB2F
:105750000266B7620E690EB9042313E00E69012ECA
:1057600001D103230EE00E69042E08D00E69022E2B
:1057700005D00E69032E02D00E69072E01D1022337
:1057800000E0012306688436802707FB0266F66A7C
:1057900006F0E027066884364FF0800C0CFB0266AA
:1057A000F762D1E90076F61B5E43F71C0E8D5E436F
:1057B00047EA0647066884360CFB0266F76206680D
:1057C0008436802707FB0266366BF70AFF020668FD
:1057D00084360CFB02663763CF6A066884360CFB9E
:1057E0000266376306688436D701F65946F001072A
:1057F000066884364FEAC21C46F80C70F0BD00BF44
:10580000FEE7704702480068C0F3022070470000BE
:105810000CED00E010B5002807DA0A07140E054A5F
:1058200000F00F031B1FD45403E00A07130E024AB3
:10583000135410BD18ED00E000E400E070470000D4
:1058400000B587B01748184908600120486000215A
:10585000154881600421C16020210161402141611E
:105860004FF4C07181610021C1614FF40061016298
:1058700049004162490081620220009007200190A6
:1058800004200290072003900220049005900690C7
:1058900069460548FCF7AAF9034800F007F807B085
:1058A00000BD0000400100A09C01002070B505462D
:1058B0000024002301221146184600F021F84FF47D
:1058C000FA7000F085FB002301220221184600F047
:1058D00017F8002308220321184600F011F840F2BF
:1058E0003124234601220421002000F009F840F26F
:1058F000AB210248FCF764FA70BD00009C01002057
:105900002DE9FF4104460D4616461F464FF000089C
:1059100014B94FF0100803E0012C01D14FF0080832
:105920000095CDF80480029603974FF480526946A3
:105930000448FCF759FA18B9002004B0BDE8F0811A
:105940000120FAE79C010020704700002DE9F0419A
:1059500092B00546884616461F46002400BF002028
:1059600000902648006840F08050244908600846AE
:10597000006800F08050009000BF00BF00BF002012
:1059800000901F48006840F440401D4908600846E8
:10599000006800F44040009000BF00BF0120069066
:1059A000079002200C9041050D91CDF838800F959D
:1059B0001096119706A8FBF715FF04460CB100BF1F
:1059C000FEE7FBF70FFB04460CB100BFFEE70F201C
:1059D000019002200290002003904FF4A050049008
:1059E0004FF480500590052101A8FBF701FD044606
:1059F0000CB100BFFEE712B0BDE8F08140380240B4
:105A00000070004010B5FBF7B5F810BD14480068F1
:105A100040F47000124908601248006840F001002C
:105A20001049086000200F49083108600D480068DF
:105A30000D4908400B4908600C48091D0860081F03
:105A4000006820F48020091F0860002005490C31FF
:105A500008604FF00060024980390860704700001C
:105A600088ED00E000380240FFFFF6FE1030002411
:105A700010B504462068C06820F040002168C86066
:105A800094F83900322803D1222084F8390002E04A
:105A9000012084F839002046FCF717FC002010BDD7
:105AA00070B50446002694F83960222E01D0322EBB
:105AB00052D1A068B0F5805F13D1A56A206940B9C2
:105AC00020684068C0F308002880A06A801CA0629B
:105AD00019E020684068C0B22880A06A401CA0621B
