:020000040800F2
:10000000F808002055020008D1260008231B00082C
:10001000CF26000861060008392C00080000000007
:10002000000000000000000000000000D9270008C8
:100030006306000800000000F3260008612800089D
:100040006F0200086F0200086F0200086F020008CC
:100050006F0200086F0200086F0200086F020008BC
:100060006F0200086F0200086F0200086F020008AC
:100070006F0200086F0200086F0200086F0200089C
:100080006F0200086F0200086F0200086F0200088C
:100090006F0200086F0200086F0200086F0200087C
:1000A0006F0200086F0200086F0200086F0200086C
:1000B0006F0200086F0200086F0200086F0200085C
:1000C0006F0200086F0200086F0200086F0200084C
:1000D0006F020008CD2B00086F0200086F020008B5
:1000E0006F0200086F0200086F0200086F0200082C
:1000F0006F0200086F0200086F0200086F0200081C
:100100006F0200086F0200086F0200086F0200080B
:100110006F0200086F0200086F0200086F020008FB
:100120006F0200086F0200086F0200086F020008EB
:100130006F0200086F0200086F0200086F020008DB
:100140006F0200086F0200086F0200086F020008CB
:100150006F0200086F0200086F0200086F020008BB
:100160006F0200086F0200086F0200086F020008AB
:100170006F0200086F0200086F0200080000000014
:100180006F0200086F0200086F0200086F0200088B
:100190006F0200086F0200086F0200086F0200087B
:1001A0006F0200086F0200086F02000800F002F8FA
:1001B00000F041F80AA090E8000C82448344AAF1C0
:1001C0000107DA4501D100F036F8AFF2090EBAE8BE
:1001D0000F0013F0010F18BFFB1A43F0010318477B
:1001E0000C7400002C740000103A24BF78C878C149
:1001F000FAD8520724BF30C830C144BF04680C602D
:10020000704700000023002400250026103A28BF74
:1002100078C1FBD8520728BF30C148BF0B60704778
:10022000782900F07580002070471FB502F014FE99
:100230001FBD10B510BD00F0E0F91146FFF7F5FF46
:1002400002F036FD00F0FEF903B4FFF7F2FF03BC45
:1002500002F0FAFC0948804709480047FEE7FEE73C
:10026000FEE7FEE7FEE7FEE7FEE7FEE7FEE7FEE766
:1002700004480549054A064B7047000065280008F8
:10028000AD010008F8020020F8080020F804002062
:10029000F8040020704700000FB41CB5074B06AAF5
:1002A0007B4469460090059800F08FF9002069466C
:1002B00000F09EF91CBC5DF814FB00004D0300002B
:1002C00070B5044685690068C10601D5302600E096
:1002D0002026C00707D070BDD4E9012130469047E1
:1002E000206A401C20626D1EF6D570BD70B50446B4
:1002F00085690078C00707D170BDD4E901212020AD
:100300009047206A401C20626D1EF6D570BD00002B
:1003100070B504460D4621461068AFF30080218871
:10032000090502D50F4A7A4402E00E4A7A440E3299
:10033000002104F1240305E000F00F060009965D9A
:100340005E54491C0028F7D120780023000704D50B
:10035000702D02D009B1022311322046BDE8704051
:1003600000F0D4B8887200002DE9F05F8946044699
:100370004FF0000ADFF824B1FB44C0F820A020466B
:10038000E168884700287DD0252806D0D4E90121DE
:100390009047206A401C2062F1E700255F46204616
:1003A000E16888472028064607DB312E05D2B819B8
:1003B00010F8200C08B10543F1E7A80701D525F096
:1003C0000405C4F81CA00027C4F818A02A2E09D0E0
:1003D000304602F032FC38B304EB8708303EC8F8F0
:1003E000186019E059F8041B204604EB870291615C
:1003F000E1688847012F064618D1E069002820DA15
:1004000025F020051DE0D8F8180000EB800006EB71
:1004100040003038C8F818002046E1688847064692
:1004200002F00BFC0028EED1012F0AD02E2E08D1AD
:100430002046E16888477F1C0646022F45F02005CC
:10044000C4DBA069002803DA404245F00105A06141
:10045000E80701D025F01005A6B1A6F14100192842
:1004600002D8203645F400654A46314620462560CC
:100470004D46FFF7D5FE60B1012807D0ED1D25F0F0
:10048000070000E007E000F1080978E705F104093A
:1004900075E730467AE7206ABDE8F09F5E7200009B
:1004A00010B5203AC0F00B80B1E81850203AA0E80F
:1004B0001850B1E81850A0E81850BFF4F5AF5FEA43
:1004C000027C24BFB1E81850A0E8185044BF18C9F6
:1004D00018C0BDE810405FEA827C24BF51F8043B9D
:1004E00040F8043B08BF7047D20728BF31F8023BF1
:1004F00048BF11F8012B28BF20F8023B48BF00F885
:10050000012B704770477047704770472DE9F047DF
:100510000D4699469246044600F124080168880673
:1005200004D5E06921F01001216000E00120A8421B
:1005300001DD471B00E00027A1697A1902EB0900E1
:10054000081AA0612078C00602D42046FFF7B8FE42
:10055000002608E0D4E901211AF806009047206A35
:10056000401C761C20624E45F4DB2078C0060AD57C
:100570002046FFF7A5FE06E0D4E901213020904790
:10058000206A401C2062381EA7F10107F4DC07E056
:10059000D4E9012118F805009047206A401C206228
:1005A000281EA5F10105F3DC2046FFF79FFE207809
:1005B000000602D50220BDE8F0870120FBE700001D
:1005C00001694A1C02610878704700B58FB0CDE917
:1005D00001310021059105497944CDE90310114607
:1005E0006846FFF7C1FE0FB000BD0000E5FFFFFF4A
:1005F0000A6802F8010B0A607047754600F02CF893
:10060000AE4605006946534620F00700854618B0FF
:1006100020B5FFF72DFEBDE820404FF000064FF05B
:1006200000074FF000084FF0000B21F00701AC4627
:10063000ACE8C009ACE8C009ACE8C009ACE8C00946
:100640008D46704710B50446AFF300802046BDE8E4
:100650001040FFF7F9BD00000048704794020020E9
:10066000FEE7704770B5B3F5804F05D06FF070416D
:1006700040F82210002070BD50F82230084C234072
:10068000D1E9004544EA05148D688E892D0245EABA
:10069000064589692C430C431C4340F82240E9E796
:1006A0000000F0CF30B5D1E901231A43D1E903347A
:1006B00023431A434B690D681A438B691A43D1E9E6
:1006C0000734012D496A05686FF30E0505D01A43FA
:1006D00022430A432A43026008E0234329430B4391
:1006E000416803606FF30E010A434260002030BD91
:1006F000426942EA4101416100207047F8B5144661
:100700000546D1E9000210438A686FF01F03C968EB
:1007100003EB421242EA412108430090286100F0B5
:1007200043F9064609E0601C07D024B100F03CF90B
:10073000801BA04201D90320F8BDA8698006F2D42D
:100740000020F8BDF0B56FF00F05D1E9003405EBDE
:1007500004145B1E2E0123438C682F0306EB042434
:100760004FEA054C23430D8A8E8ACC68097E4FF0F0
:100770007F4E07EB05450CEB06560EEB0161012A97
:100780000CD082683F1107EB043423432B433343DF
:1007900002F070420B43134383600FE0C2682B43A7
:1007A0000B4302F070428168134301F07042210351
:1007B000A1F5805131431143C36081600020F0BD39
:1007C0002DE9F84FDFF8A091002209F1040A0AF19F
:1007D000040B4FF00F080BF1040E01260B68964036
:1007E0003340B34271D14C68022C01D0122C11D18C
:1007F000D40800EB84073D6A5407E40E08FA04FCB1
:1008000025EA0C05D1F810C00CFA04FC4CEA050CE2
:10081000C7F820C007685400032591F804C0A5401C
:100820000CF0030CAF430CFA04FC4CEA070CC0F8C4
:1008300000C04F68012F05D0022F03D0112F01D027
:10084000122F11D18768D1F80CC0AF430CFA04FC09
:100850004CEA070CC0F808C04768B7430E79C6F3E6
:10086000001696403E434660C668AE438D68A5407C
:100870003543C5604C68E4006FD53C4C256845F4B1
:1008800080452560246822F0030504F48044009428
:10089000374C2E19D6F808789407250F08FA05F476
:1008A000A743344CA04201D100242EE0324CA04298
:1008B00001D1012429E0314CA04201D1022424E0DD
:1008C0002F4CA04202D103241FE046E02D4CA04251
:1008D00001D1042419E02C4CA04201D1052414E0DC
:1008E0002A4CA04201D106240FE0294CA04201D19C
:1008F00007240AE0274CA04201D1082405E0264C39
:10090000A04201D1092400E00A24AC403C43C6F8CF
:100910000848D9F800404D464E689C43F60300D580
:100920001C432C60DAF8004055464E689C43B603E1
:1009300000D51C432C60DBF800405D464E689C43AC
:10094000F60200D51C432C60DEF8004075464E6868
:100950009C43B60200D51C432C60521C102AFFF4A5
:100960003CAFBDE8F88F0000003C01404438024035
:100970000030014000000240000402400008024034
:10098000000C024000100240001402400018024017
:10099000001C024000200240002402400AB1816194
:1009A00070470904FBE70000014800687047000039
:1009B0001400002002480168491C016070470000D3
:1009C0001400002010B5044600F04AFC4FF47A7180
:1009D000B0FBF1F000F036FF00222146501E00F07F
:1009E00083F9002010BD2DE9F041044690F8A000E5
:1009F00015460F4601281DD0012684F8A06002206C
:100A000084F8A10005EB850000EBC50004EB800035
:100A100034223830FFF744FD2A463946204601F09B
:100A2000A5FD2068466284F8A160002084F8A0003B
:100A3000BDE8F0810220FBE770B5040004D094F813
:100A4000A100002510B106E0012070BD84F8A0507F
:100A5000204600F06FF8022084F8A1002068816928
:100A600021F070418161D4E901100143D4E903020E
:100A700010430143206882691143816120688268C4
:100A80002B490A408260A08A020420688368A66914
:100A90003343134383602068C2680A40C260A08B5E
:100AA00002042068C368266A33431343C360206886
:100AB00002690A400261A08C020420680369A66AE8
:100AC000334313430361206842690A404261A08DA9
:100AD000010420684269236B1A430A43426194F877
:100AE0003500020294F8360001042068C36A03F05E
:100AF0007F43C3622068C36A94F834601143334370
:100B00000B43C3622068416B41F0040141632068DC
:100B1000416B41F0020141632068816941F00101AC
:100B20008161C4F8A450012084F8A100002070BDA8
:100B300000F800F030B5364887B00025016841F074
:100B400080610160006800F08060059030481438D2
:100B5000016841F400010160016801F400010591A0
:100B6000016841F002010160016801F00201059194
:100B7000016841F020010160016801F02001059148
:100B8000016841F040010160016801F040010591F8
:100B9000016841F080010160016801F08001059168
:100BA000016841F4807101600068032400F48070E2
:100BB0000590202000900120CDE9020401906946B3
:100BC0001448FFF7FDFD4FF4806000900220CDE94E
:100BD00001050E20CDE9034069460F48FFF7F0FDFF
:100BE0004FF40C60009069460C48FFF7E9FD4FF4A4
:100BF0007E40009069460A48FFF7E2FD40F2F76048
:100C0000009069460748FFF7DBFD07B030BD0000E4
:100C10004438024000040240001402400018024020
:100C2000001C02400020024070B5044690F8A0006D
:100C30000E46012820D0012584F8A050022084F817
:100C4000A10003EB830000EBC30004EB800141F83B
:100C5000386F886A3044C1E90102C86A1044C8602C
:100C60001A46204601F082FC2068456284F8A150B3
:100C7000002084F8A00070BD022070BD2DE9F04175
:100C8000044690F8A0000F4601281FD0012584F8E3
:100C9000A050022084F8A10003EB830000EBC30006
:100CA00004EB80010026E1E90E672046C1E90262FB
:100CB000C1E90A721A4601F059FC2068456284F8BD
:100CC000A15084F8A0600020BDE8F0810220FBE77D
:100CD00000F01F02012191404009800000F1E02056
:100CE000C0F8001170470000F0B40E4B1B68C3F34E
:100CF0000223C3F10704042C00D904241D1D072D71
:100D000001D2002300E0DB1E012606FA04F56D1E69
:100D10000D409D409E40761E164045EA0601F0BCFF
:100D200001F0D7BC0CED00E02DE9F8431D48016847
:100D300041F0805101600068012700F08050009070
:100D4000380490FAA0F0DFF86080B0FA80F048F83C
:100D50002070FFF729FE04464FF47A75134E04E025
:100D6000FFF722FE001BA84213D87068C003F7D516
:100D70004FF4003090FAA0F0B0FA80F048F82070FC
:100D8000FFF712FE044607E0FFF70EFE001BA84225
:100D900002D90320BDE8F88370688003F4D50020F1
:100DA000F8E700004038024000000E4200700040AA
:100DB0002DE9F84F04460068DFF878829E4DC107A0
:100DC00047F6C07A4FF0E0464FF0010B4FF00009B4
:100DD00001D180074BD59949C1F86890FFF7E4FD30
:100DE000074604E0FFF7E0FDC01B64287ED82868B2
:100DF0000001F7D420789249C0070DD09AFAAAF2E0
:100E00006068B2FA82F2904096FAA6F3A268B3FA4A
:100E100083F39A40104308602078800718D508684B
:100E200096FAA6F200F0E040B2FA82F2D040626890
:100E3000237B920142EA036242EA00700860D8F81C
:100E40000010E26921F01F01521E1143C8F8001082
:100E50007A49C1F868B0FFF7A7FD074604E0FFF73D
:100E6000A3FDC01B642841D828680001F7D520687D
:100E7000410701D4000776D57049C1F87090FFF79B
:100E800093FD074604E0FFF78FFDC01B64282DD8B3
:100E90002868C0438000F6D520786A4F40074FF09D
:100EA000706C29D5386896FAA6F100F0E040B1FAE6
:100EB00081F1C8409AFAAAF22169B2FA82F291400D
:100EC0009CFAACF36269B3FA83F39A40114396FA41
:100ED000A6F2B2FA82F2904001433960D8F80010CD
:100EE0006FF0FF0321F4F851226A00E079E003EB90
:100EF00002221143C8F800102078000723D5386873
:100F00009CFAACF100F07060B1FA81F1C8409AFA35
:100F1000AAF22169B2FA82F291409CFAACF2B2FADA
:100F200082F29040014396FAA6F2A069B2FA82F2E8
:100F3000904001433960D8F80010626A21F44031D2
:100F40001143C8F800103D49C1F870B0FFF72CFDFF
:100F5000064604E0FFF728FD801B642841D8286876
:100F6000C0438000F6D42078800651D532484F46E1
:100F70004030016841F0805101600068324E00F05D
:100F800080500090306840F480703060FFF70CFDB6
:100F9000054604E0FFF708FD401B642821D83068AF
:100FA000C005F7D5264E143E3068218D00F4407000
:100FB00001F4407188422BD03068244920F44070FD
:100FC000C1F800B00F603060800710D5FFF7ECFC6F
:100FD000054641F2883707E0FFF7E6FC401BB842C0
:100FE00002D90320BDE8F88F30688007F4D5A06AE5
:100FF0001149C0F301220831032A13D0086820F4F4
:10100000F81008603068218DC1F30B01084330608F
:101010002078C00604D50E4994F82C00C1F8E001F0
:101020000020DFE70A680B4B22F4F8121840024355
:101030000A60E7E78C38024000380240000047426F
:10104000843802408838024000700040400E474219
:1010500000104742FFFCFF0F2DE9F05FDFF8F8A119
:1010600004460F46DAF80000DFF8F08100F00F02C6
:10107000C8B27A49814641F2883608F10808BA4276
:1010800061D202468AF80020DAF8000000F00F0072
:10109000B8427DD12078800707D5D8F80020A36812
:1010A00022F0F0021A43C8F800202078C0072DD0A3
:1010B000606801281AD002281BD0032819D00968BB
:1010C0008907002964DAD8F80010474621F00301A7
:1010D0000143C8F80010FFF767FC05466068012867
:1010E0000FD0022818D003281CD027E009688903F4
:1010F000E7E709688901E4E7FFF756FC401BB042C7
:1011000058D83868C0F381000128F5D188E0FFF78E
:101110004BFC401BB0424DD83868C0F38100022818
:10112000F5D17DE03868FFF73FFC401BB042F9D9AC
:1011300040E0FFF739FC401BB0423BD8386810F064
:101140000C0FF6D16CE02078800707D5D8F8002086
:10115000A36822F0F0021A43C8F800202078C007E4
:101160004CD06068012828D0022829D0032827D035
:1011700009688907002949DAD8F8002022F003021B
:101180000243C8F80020FFF70FFC0546606800E046
:101190003CE001281DD0022829D0032838D0B346CE
:1011A0004646306810F00C0F28D0FFF7FDFB411BBE
:1011B0005945F6D90320BDE8F09F09688903D9E7AE
:1011C00009688901D6E7FFF7EFFB411B594502D9B2
:1011D000F0E7B34646463068C0F381000128F2D1FB
:1011E0000CE0FFF7E1FB411B594502D9E2E7B346AA
:1011F00046463068C0F381000228F2D18AF8009098
:10120000DAF8000000F00F00B84209D00120D2E760
:1012100044462068FFF7C8FB401BB042F9D9C9E734
:101220002078400707D5D8F80010E26821F4E05193
:101230001143C8F800102078000708D5D8F800102E
:10124000226921F4604141EAC201C8F800100F2070
:10125000FFF7B8FB0020AEE7003C02400038024038
:1012600010B500F043F808490968F02292FAA2F29A
:1012700001F0F001B2FA82F2D140044A515CC84058
:101280000349086010BD000008380240622E0008C3
:101290000000002010B5FFF7E3FF074909684FF48D
:1012A000E05292FAA2F201F4E051B2FA82F2D14095
:1012B000024A515CC84010BD08380240622E000846
:1012C00010B5FFF7CDFF074909684FF4604292FA65
:1012D000A2F201F46041B2FA82F2D140024A515CBA
:1012E000C84010BD08380240622E000830B51948C9
:1012F000006810F00C01184812D0184C04290ED0C8
:1013000008290DD1134A121F1168136801F03F011B
:101310005D0247F6C07304D5B4FBF1F003E020464C
:1013200030BDB0FBF1F01168194093FAA3F3B3FAA2
:1013300083F3D940484311684FF4403292FAA2F245
:1013400001F44031B2FA82F2D140491C4900B0FBAD
:10135000F1F030BD083802400024F40040787D01EF
:101360002DE9F84F04460078DFF8FCA2BF4DC00716
:101370004FF0000648D0DAF800105046C1F3810162
:10138000012908D00068C0F3810002280AD1281D75
:101390000068400206D52868800335D560680028BB
:1013A00073D031E0DFF8C49209F1020989F80060D6
:1013B000FFF7FAFA074641F2883804E0FFF7F4FA3B
:1013C000C11B41457AD828688003F7D4207989F871
:1013D0000000606860B1FFF7E7FA074604E0FFF736
:1013E000E3FAC11B4145EDD828688003F7D50BE02F
:1013F000FFF7DAFA074604E0FFF7D6FAC11B4145CA
:10140000E0D828688003F7D42078DFF8649280075A
:1014100044D5DAF80010504611F00C0F4FF0F808E0
:1014200009D00068C0F3810002280BD18E48001F4C
:101430000068400206D42868800714D5E0680128B7
:1014400023D110E0E068D0B10120C9F80000FFF717
:10145000ABFA074604E0FFF7A7FAC01B6428B1D82F
:1014600028688007F7D5286898FAA8F22169B2FAA7
:1014700082F220F0F8009140084328600EE0C9F89D
:101480000060FFF791FA074605E0EAE0FFF78CFA03
:10149000C01B642812D828688007F7D4207800077A
:1014A00025D5DFF8C4817348616908F16C0881B102
:1014B00001210160FFF778FA074605E07EE0FFF7BB
:1014C00073FAC01B642879D8D8F800008007F6D5D5
:1014D0000DE00660FFF768FA074604E0FFF764FADC
:1014E000C01B64286AD8D8F800008007F6D420789A
:1014F000400753D55C483830016841F080510160A5
:101500000068DFF8748100F080500090D8F8001077
:1015100041F48071C8F80010FFF746FA074604E06E
:10152000FFF742FAC01B642848D8D8F80000C0056D
:10153000F6D5DFF834B10BF1680B8BF80060FFF7DC
:1015400033FA074641F2883804E0FFF72DFAC11B51
:1015500041457ED8DBF800008007F6D4207A8BF86E
:101560000000A06868B1FFF71FFA074604E0FFF724
:101570001BFAC11B41456CD8DBF800008007F6D58B
:101580000CE0FFF711FA074604E0FFF70DFAC11B64
:1015900041455ED8DBF800008007F6D4A069E8B3C7
:1015A000DAF80010C1F3810102295AD0022806D0CE
:1015B000C9F86060FFF7F8F904464DE049E04F468E
:1015C000C9F86060FFF7F0F9064604E0FFF7ECF9B0
:1015D000801B64283DD828688001F7D4D4E907012E
:1015E000084347F6C07191FAA1F1626AB1FA81F13C
:1015F0008A40A16A4FF0FF3303EB51014FF44033AF
:1016000093FAA3F3B3FA83F399400A4310434FF0DC
:10161000706292FAA2F2B2FA82F200E01FE0E16A8E
:10162000914008431049091F086001203866FFF700
:10163000BBF9044604E0FFF7B7F9001B642808D89B
:1016400028688001F7D50AE0FFF7AEF9001B64288F
:1016500002D90320BDE8F88F28688001F4D4002067
:10166000F8E70120F6E700000838024000380240A1
:1016700000004742800E47420070004070B50D46A2
:10168000040003D094F82C0010B107E0012070BDD5
:10169000002084F82D00204600F012F8022084F883
:1016A0002C00211D2068FEF7FDFFD4E90002294629
:1016B000FFF748F8012084F82C00002070BD0000DE
:1016C0003E4800B5016887B041F001010160006843
:1016D00000F00100059039480838016841F0040124
:1016E0000160016801F004010591016841F0080101
:1016F0000160016801F008010591016841F01001E5
:101700000160016801F010010591016841F02001BC
:101710000160016801F020010591016841F040017C
:101720000160016801F040010591016841F080010C
:101730000160016801F080010591016841F4807148
:1017400001600068022100F4807005900120CDE95D
:1017500000010290032003900C2004906946184871
:10176000FFF72EF84CF20370009069461548FFF71A
:1017700027F84FF68370009069461348FFF720F86A
:101780004FF63F00009069461048FFF719F848F2FD
:101790003310009069460E48FFF712F84FF6C070FC
:1017A000009069460B48FFF70BF840F2FF6000908D
:1017B00069460948FFF704F807B000BD3838024011
:1017C00000080240000C02400010024000140240D9
:1017D00000180240001C02400020024010B50446E0
:1017E00090F82C00022809D0022084F82C002068F0
:1017F000FEF77EFF012084F82C00002010BD70B59C
:10180000044690F82C000D4602280CD0022084F8E3
:101810002C002068FEF772FF2868022804D00120FF
:1018200084F82C00002070BD0520F9E74FF0E0217E
:101830000428086903D020F004000861704740F0D4
:101840000400FAE710B5401EB0F1807F01D30120FB
:1018500010BD4FF0E02460610F21601700F039FFE8
:101860000020A06107202061002010BD704738B51E
:10187000016804460868CA68C0F3000002F4807278
:1018800038B132B1086848680090E06B40F0010060
:10189000E06308684A69C0F3400002F0010238B111
:1018A00032B1086848680090E06B40F00400E063E3
:1018B00008684A69C0F3800002F0010238B132B111
:1018C000086848680090E06B40F00200E063086838
:1018D0004A69C0F3C00002F0010238B132B10868B1
:1018E00048680090E06B40F00800E0630868C96851
:1018F000C0F3401001F0200118B111B1204600F0F2
:10190000DBFF20680168C068C1F3C01100F08000EF
:1019100019B110B1204601F0DDF821680868CA68E5
:10192000C0F3801002F04002012568B162B1CA68BC
:10193000204622F04002CA6094F8391032290CD0B7
:1019400080F8395000F0ECF8E06B002804D084F8FF
:1019500039502046FFF78AFF38BD222180F8391020
:10196000F0E770B5040004D094F83900002510B1F8
:1019700006E0012070BD84F83850204600F020F8C1
:10198000022084F839002068C16821F40051C16048
:10199000204600F0E5FF2068016921F490410161D3
:1019A0002068416921F02A0141612068C16841F441
:1019B0000051C160E563012084F83900002070BD4A
:1019C00030B504460068204987B0884239D11F48A5
:1019D000016841F001010160006800F0010005901C
:1019E0001A481430016841F01001016000680121BB
:1019F00000F0100005904FF4007000900220CDE937
:101A0000010103900720124D049069462846FEF715
:101A1000D7FE2815009069462846FEF7D1FE2068BB
:101A2000C16821F04001C1602068C16841F0200117
:101A3000C1602520FFF74CF9032211462520FFF74E
:101A400053F907B030BD00000010014030380240AB
:101A5000000002402DE9F047044690F8390099460D
:101A60000D46012801D0122857D125B31AB394F896
:101A70003800012851D0012684F838600027E76338
:101A800094F83900122819D0222084F83900A28550
:101A9000E2854FF48058E08D4B46401EE085A068FB
:101AA0004FF0000240454FF02001204616D101F0D2
:101AB00044F8B0B904E00120BDE8F0873220E4E743
:101AC000206900282068406803D0C1B225F8011BB6
:101AD00012E0C0F3080125F8021B0DE001F02DF81B
:101AE00008B10320E8E7206900282068406801D099
:101AF00000F07F0005F8010BE08D0028CBD194F8B1
:101B00003900322805D084F8396084F83870002014
:101B1000D2E7122084F83900F7E70220CCE77047BB
:101B20007047FEE770B50E490E4A064608881268EF
:101B3000002422B13046BDE8704000F09FBB4D88C4
:101B400000214543084600F015FA00F045FBB1B20C
:101B5000054801E00180641CAC42FBD370BD00006D
:101B60008801002074020020000008602DE9F05F69
:101B7000394C3A4DA071296839B100F09FFBE88AD1
:101B80002080288B6080BDE8F09F33492C232A25D4
:101B900089884FF0F00949F2413A2B2645F2105B53
:101BA0004FF4305E4FF448774FF4A07845F2103C84
:101BB0004FF4F07258B1A4F80080A4F80290514597
:101BC00001D0614529D123816581A68139E0A4F83E
:101BD0000090A4F80280514501D0614508D12381CD
:101BE0006581A681614531D1A4F8008062802DE035
:101BF000594508D1A4F808E04FF4285060814FF40B
:101C00002C50A08106E0A1F5C85063381ED1238175
:101C10006681A5812280678018E0594508D1A4F823
:101C200008E04FF4285060814FF42C50A08106E06A
:101C3000A1F5C850633804D123816581A68127802E
:101C40006280614502D12280A4F80280BDE8F05F85
:101C5000002000F0B3B800008801002074020020CA
:101C60002DE9F041044639480D46006820B1204670
:101C7000BDE8F04100F036BB354E270A3146B0884A
:101C80004989A0F513434FEA1528413B0BD0A0F535
:101C9000A643103B07D0B3F5007311D0A0F5C8538D
:101CA000633B27D04BE0084600F08AFA384600F044
:101CB0007BFAE0B200F078FAB08900F081FA38E0FF
:101CC000084600F07DFA384600F06EFA7089401C34
:101CD00080B200F075FAE0B200F066FAB08900F068
:101CE0006FFA404600F060FAB089401C80B200F004
:101CF00067FA21E0B07918B93088001B401E84B221
:101D0000084600F05DFA270A384600F04DFAE0B2C6
:101D100000F04AFA384600F047FAE0B200F044FA20
:101D2000B08900F04DFA404600F03EFAE8B200F00B
:101D30003BFA404600F038FAE8B200F035FA0549BF
:101D400030890880881C0280BDE8F0817402002080
:101D500088010020FEFF076030B5164D87B00124D2
:101D6000AC8000F037FBA888A0F5134141390AD0B8
:101D7000A0F5A641103906D0B1F5007103D0A0F549
:101D8000C85163390AD1042000900290094869467D
:101D90005038036B82684068FEF764FC0020FFF750
:101DA000E5FE0548C0F8B4424FF6FF70FFF7BAFEF3
:101DB00007B030BD8801002000804142F0B56C4D75
:101DC00000232946AA79898841F66314012A01D0A3
:101DD0001AB11BE0A14202D118E0A14216D1082895
:101DE00014D2DFE800F00406080A0C0E10120620D8
:101DF0000CE007200AE0042008E0052006E00120AE
:101E000004E0002002E0032000E00220A1F51347D7
:101E100045F2103245F21056413F05D0914203D0B1
:101E2000B14201D0A14277D1082812D2DFE800F0F8
:101E3000110406080A0C0E1080230AE0402308E073
:101E4000C02306E0202304E0602302E0A02300E09A
:101E5000E023B14202D14FF4585000E036209142C5
:101E600005D0B14203D0A14201D043F00803194686
:101E700000F0BCF9AA88A2420AD09806288869888E
:101E800002D5884202D303E0884201D929806880C4
:101E90006889B24241D100F093F9002000F084F942
:101EA0006889401C80B200F08BF9002000F07CF9BA
:101EB0006889801C80B200F083F92888401EC0F336
:101EC0000F2000F071F96889C01C80B200F078F929
:101ED0002878401EC0B200F067F9A88900F070F9B8
:101EE000002000F061F9A889401C80B200F068F978
:101EF000002000F059F9A889801C80B200F060F938
:101F00006888401EC0F30F2000F04EF9A889C01C5D
:101F100080B200F055F922E028E000F051F90020ED
:101F200000F042F9002000F03FF92888401EC0F37D
:101F30000F2000F039F92878401EC0B200F034F9C3
:101F4000A88900F03DF9002000F02EF9002000F0F3
:101F50002BF96888401EC0F30F2000F025F9A878FF
:101F6000BDE8F040401EC0B200F01EB9F0BD000058
:101F700088010020F0B53F4D0C460246060AA988AC
:101F80002846270A4089A1F51343413B28D0A1F5F3
:101F9000A643103B24D0A1F5C853633B2FD0A1F535
:101FA000AA43103B64D100F00BF9304600F0FCF876
:101FB0006889401C80B200F003F9D0B200F0F4F858
:101FC000A88900F0FDF8384600F0EEF8A889401C1A
:101FD00080B200F0F5F8E0B2BDE8F04000F0E4B8FF
:101FE00000F0EEF8304600F0DFF8D0B200F0DCF898
:101FF000A88900F0E5F8384600F0D6F8EBE7A979B3
:1020000029B300F0DDF8304600F0CEF8D0B200F091
:10201000CBF82888401EC0F30F2000F0C5F82878C0
:10202000401EC0B200F0C0F8A88900F0C9F83846D8
:1020300000F0BAF8E0B200F0B7F86888401EC0F3CC
:102040000F2000F0B1F8A878401EC0B2C4E729887C
:10205000891A491E8AB200F0B3F8002000F0A4F8F3
:10206000002000F0A1F8100A00F09EF8D0B2D9E7E5
:10207000F0BD0000880100202DE9F84F82461F4680
:102080000E468B46580700D0012000EBD700790898
:1020900010FB01F0203AC0B202F0FF0900250090C9
:1020A00047E00C2F10D0102F12D0182F14D0202F53
:1020B00042D1224901EBC9104FF00008445D2006CF
:1020C00010D51F48026811E009EB49001D4906E0E0
:1020D0001D4901EB0910EFE71C4909EBC90001EBB1
:1020E0008000E9E70A9828B9154842683146504609
:1020F000FFF7B6FD6006040E1548761CB6B24088A0
:10210000B04219D9A6EB0B00B84209D10AF101007F
:102110001FFA80FA0E485E46018851450CD906E048
:1021200008F1010000F0FF08B8F1080FC7D36D1CDB
:10213000EDB200988542B4D3BDE8F88F324600086E
:1021400020000020722E0008E6320008D638000871
:10215000880100202DE9F84F044600F0FF0810190F
:102160000D46DDE90A761FFA80FA58191FFA80F940
:102170004FF0000B11E0544502D3E819444685B2F4
:102180004D450FD23B4629462046CDF800B0FFF71B
:1021900073FF04EB570084B2761C3278A2F1200062
:1021A0005E28E8D9BDE8F88F01B5BDF80000ADF8AC
:1021B0000000BDF800000149088008BD000008606B
:1021C00001B5BDF80000ADF80000BDF80000014900
:1021D000088008BDFEFF07600248034900890880A7
:1021E0007047000088010020FEFF0760024A10804F
:1021F000901C018070470000FEFF0760F0B51C488E
:1022000087B0016841F002010160016801F002013C
:102210000591016841F0080101600068032500F0A4
:10222000080001240590CDE90054124F6946384654
:10223000CDE90245FEF7C4FA6603CDE90064CDE9B5
:1022400002450D4C69462046FEF7BAFA01221146B6
:102250003846FEF7A3FB012202213846FEF79EFB1B
:10226000012231462046FEF799FB07B0F0BD000081
:102270003038024000040240000C024008B50090D3
:102280000548018BC08A491E8BB2401E82B20021D4
:10229000084600F045F808BD7402002000B58DB076
:1022A000082309920490009306916846FEF780FD8A
:1022B000002800D001200DB000BD000010B5084B73
:1022C0001C465875A1888AB2218889B220B101289C
:1022D00001D1D9821A8310BDDA82198310BD0000A2
:1022E00074020020F0B50C4F94B23D46DFF82CC0CC
:1022F0002B68EA692D7D7E7D5CF8255026B103FBB5
:1023000001004243AC52F0BD7E68301A401E03FB10
:10231000001050432C52F0BD740200202800002011
:102320002DE9F843274EDDF820900024757D0DB18E
:10233000054606E077680D46B91A1A463B1A491E4B
:102340005B1E306896F814C0DFF87C80521B871A39
:1023500058F82CC0F66900FB015006FB00C51B486D
:102360007F1EBFB2066846F400060660006800F4EF
:10237000000000901648066826F0010606604FF43B
:1023800040360660022646630764C563591AF303A4
:1023900003EB0242491C11434164C0F838900168C4
:1023A00041F0010101605A0102E0641C944202D232
:1023B00041688907F9D5816841F002018160BDE873
:1023C000F88300007402002028000020303802400A
:1023D00000B002402DE9FF413E4C4FF480600421E3
:1023E00020604FF4167060601420208161818C2180
:1023F000A181E081A0202082162060820022062197
:102400004FF4B470FFF74AFF33482268344E02801D
:10241000616841800220E06130483060A4F1A8008A
:10242000304B0025C0E900358560C5600561238912
:102430005F1E4761B4F80AC0ACF101078761A78944
:102440001F447B1EC361E3896344A3F1010CC0F800
:1024500020C0A2F1010CBC44C0F824C0A1F1010CC1
:102460009C44C0F828C0B4F810C062443A44521EDC
:10247000C262628A11441944491E016380F83650D1
:1024800080F8355080F83450FEF7D6FA0720062140
:10249000CDE90205CDE90051FF2302220020316879
:1024A00000F024F8A088002280B200902088114615
:1024B00083B2104600F048F80020FFF7FFFE0A49FB
:1024C00025750120C1F8B40204B0801EBDE8F041BA
:1024D000FFF7D4BE7402002088010020000000C075
:1024E0002800002000680140008041422DE9F043AF
:1024F0008DB0164614AA002492E88013114D009462
:1025000002942A6801926D68CDE904634FEA0823BA
:10251000CDE9067303954FEA09230DF1240E0893C4
:102520008EE8260002468DF8324006488DF831408C
:102530008DF830C06946A838FEF755FA0DB0BDE8F1
:10254000F08300007402002070B51E460446034666
:102550000548049DFEF768FB23462A463146BDE840
:1025600070400148FEF78ABBCC010020F0B504683A
:102570008B88E568C5F30B452B441D04882303EBCA
:10258000C213E65806F47046E65004680F68E66821
:10259000C6F30B46761C3E442E43E65003688C89F6
:1025A000DD68C5F30A052C4425048C2404EBC21411
:1025B0001E5906F470461E5103688F68DE68C6F324
:1025C0000A06761C3E442E431E519423046803EBF6
:1025D000C213E55825F00705E55005680C69EC5075
:1025E00091F8313005681F0291F832301C040B7EDF
:1025F0001E069C2303EBC21355F803C04FF0000CDA
:1026000045F803C091F8305034433D4325430468F6
:10261000E5509823046803EBC213E55825F0FF0545
:10262000E55005684C69EC50A023046803EBC21325
:10263000E55840F20776B543E550D1E907452C430C
:102640000568EC50AC23046803EBC213E55844F86A
:1026500003C005684C6AEC500B698BB3012B32D078
:10266000042B32D0022B30D0032B2ED0072B2CD0B2
:102670000123B024056804EBC2142E5906F0E026AD
:102680002E51D1E90065AD1B0E8D5D435E43ED1CFF
:1026900045EA064305682B51B423046803EBC213D3
:1026A000E5586FF30A05E5500468C96AE15000680F
:1026B000842101EBC211425842F001024250F0BDA8
:1026C000FFE70423D5E70323D3E70223D1E7FEE79F
:1026D00070470907090E002806DA00F00F0000F124
:1026E000E02080F8141D704700F1E02080F800140D
:1026F0007047704700B5164887B014490160002143
:1027000004224160C0E9021220220261402242619B
:102710004FF4C072C0E906214FF400610162490024
:1027200041624900816202200821CDE900010621B1
:102730000291CDE903100590069069460448FEF722
:102740009DFF034800F006F807B000BD400100A05F
:102750009801002010B5002301221146184600F010
:1027600021F84FF4FA7000F089FA002301220221C7
:10277000184600F017F8002308220321184600F03D
:1027800011F840F2312301220421002000F00AF860
:10279000BDE8104040F2AB210148FFF71FB8000030
:1027A000980100201FB5002410B1012802D002E0DA
:1027B000102400E00824CDE90014CDE902234FF4F1
:1027C000805269460348FFF71AF8002800D001201C
:1027D00004B010BD980100207047000070B51E4C79
:1027E00092B00025266846F080562660246804F0E2
:1027F00080541194194C266846F44046266024689B
:102800000DF1240C04F4404411940124009401942B
:10281000022406948CE80D006605CDE90761684640
:10282000FEF79EFD00B1FEE7FEF77EFA00B1FEE77F
:102830000CA90F2081E831004FF4A0500F904FF405
:102840008050109005210CA8FEF706FC002800D04F
:10285000FEE712B070BD000040380240007000403A
:10286000FEF7A8B81048016841F4700101600F48F4
:10287000016841F0010101600C4A00210832116039
:1028800002680B4B1A400260031D0A4A1A60026874
:1028900022F48022026005480C300160024958068B
:1028A000803908607047000088ED00E00038024081
:1028B000FFFFF6FE1030002410B590F839102229E1
:1028C00003D0322901D0022010BD8168B1F5805FAC
:1028D00011D00169002901681FD0496801F07F0308
:1028E000816A4A1C82620B70C18D491E0904090C61
:1028F000C18518D02FE00269816A002A02685268F7
:1029000005D0D2B20A80816A491C8162ECE7C2F329
:1029100008020A80816A891CF7E74A68816A4B1CB1
:1029200083620A70E0E70168CA6822F02002CA6088
:1029300090F83910322910D00168CA6822F48072E8
:10294000CA6001684A6922F001024A61012180F8E7
:102950003910FFF7E4F8002010BD1221F7E700005E
:102960002DE9F041044600680169E26821F4405114
:102970000A4302612068C16849F20C6291432369ED
:10298000A268E5691A4363692B431A430A43C2608C
:102990002068416921F44072A16911434161E069F5
:1029A00064263225B0F5004F484A494920681DD0B9
:1029B000884201D0904269D1FEF782FC00EBC00151
:1029C00001EB00106168B0468900B0FBF1F1B1FB8A
:1029D000F8F6FEF775FC00EBC00101EB0010616832
:1029E0008900B0FBF1F7FEF76BFC68E0884201D08C
:1029F000904219D1FEF764FC00EBC00101EB00101E
:102A00006168B0464900B0FBF1F1B1FBF8F6FEF7A2
:102A100057FC00EBC00101EB001061684900B0FBFE
:102A2000F1F7FEF74DFC18E0FEF734FC00EBC001B7
:102A300001EB00106168B0464900B0FBF1F1B1FB59
:102A4000F8F6FEF727FC00EBC00101EB001061680F
:102A50004900B0FBF1F7FEF71DFC00EBC00101EBF4
:102A6000001061684900B0FBF1F1B1FBF8F06FF0C4
:102A70001801484307EB800005EB0011B1FBF8F0AB
:102A8000216866F31F108860BDE8F081FEF702FC44
:102A900000EBC00101EB00106168B0468900B0FB9B
:102AA000F1F1B1FBF8F6FEF7F5FB00EBC00101EB2D
:102AB000001061688900B0FBF1F7FEF7EBFB00EB5B
:102AC000C00101EB001061688900CCE700140140EF
:102AD0000010014090F83910122903D0322901D09A
:102AE000022070478168B1F5805F016A0BD04A1CF3
:102AF0000262026809785160C18C491E0904090C00
:102B0000C1840ED017E009880268C1F30801516042
:102B100001690029016A02D0491C0162ECE7891CA5
:102B2000FBE70168CA6822F08002CA600068C168D9
:102B300041F04001C160002070472DE9F0471D467B
:102B400090460F460446FDF72FFF06465FEA080051
:102B50004FF000094FF0010808D030E0681C05D0A4
:102B600095B1FDF721FF801BA8420DD820680068B1
:102B700037EA0000F2D127E0681C20D025B1FDF72C
:102B800013FF801BA8421AD92068C16821F0800178
:102B9000C1602068C16821F02001C1602068C1685F
:102BA00021F48071C1602068416921F00101416117
:102BB00084F8398084F838900320BDE8F0872068D5
:102BC000006837EA0000D7D00020F6E738B518488B
:102BD00000680068C043800622D44FF47A73012253
:102BE00069461348FEF736FF124A1088010417D4CD
:102BF00041049DF800104FF0000304D50A290ED1BE
:102C000040F4004012E00D290ED0C0F30D04084D31
:102C1000401CC83D80B229551080C72800D91380B8
:102C20000348FEF724FE38BD40F480401080F7E7EB
:102C3000F80000201C000020FEE730380A2801D2EE
:102C400001207047002070477047000010B504460F
:102C50000420FEF7EBFD0148046010BD18000020C1
:102C600070B5054600244FF47A7603E0304600F054
:102C700005F8641CAC42F9D370BD000070B54FF08C
:102C8000E02500216C69094AAB6912685043AA69C2
:102C90009A42FCD002D2A3EB020302E0A4EB0206AC
:102CA0003344194413468142F1D370BD180000200B
:102CB00086B000240823022219214FF4B470FFF7D4
:102CC0008DFDB420FFF7C2FF4FF4E13000F0B2F801
:102CD000FFF794FAFFF70EFDFFF73EF8404E41482C
:102CE0004FF47845356082883FA102A8FDF7D4FAF9
:102CF000DFF800810DF108094FF0200A4FF0180BA2
:102D000010270C2C0DD2DFE804F00609404244479E
:102D10004A4D505356594FF6FF7000E00020FEF721
:102D200001FF35A13560CDE900A120234FF4827267
:102D300028210A20FFF70EFA34A1CDE900B11823AB
:102D4000F02250210A20FFF705FA33A0CDE90070E8
:102D50001023F0226E210A20FFF7FCF9CDE900795B
:102D60001023F02282210A20FFF7F4F90C202EA173
:102D7000CDE900010346F02296210A20FFF7EAF987
:102D8000641CE4B20C2C1CD01CE01F20C7E72846B2
:102D9000C5E74FF61F00C2E74FF4FC60BFE747F6F8
:102DA000FF70BCE74FF6E070B9E74FF60740B6E7B3
:102DB00048F23040B3E74CF21860B0E74BF64040C1
:102DC000ADE70024D8F88402414638B10020C1F8AC
:102DD00084024FF4FA60FFF743FF92E70120F6E721
:102DE00020000020880100204C43442049443A251B
:102DF000303458000080404241706F6C6C6F20533B
:102E0000544D333246342F46370000004C5444436F
:102E1000205445535400000041544F4D40414C490B
:102E2000454E54454B000000323031362F312F369D
:102E3000000000000749064AC1E900200020886020
:102E4000C860086188610C2048610846FEF789BDAA
:102E500000100140F80000204FF04070E1EE100A31
:102E6000704700000000010203040102030406078A
:102E70000809000000000000000000000000000041
:102E800000003F4000000000000000003000400053
:102E900030004000000009000BC03D000BC03D00A9
:102EA000090018C024407FE0224031800000180053
:102EB00024C01B000D803240018003801C4027404D
:102EC0001C8007400040100060000000000000006F
:102ED00000000000000000001F8020404020000093
:102EE000402020401F8000000000090006001F80D5
:102EF000060009000000040004003F8004000400F4
:102F0000000000100060000000000000000004004D
:102F10000400040004000400000000000040000061
:102F2000000000000000002001C006003800400042
:102F300000001F802040204020401F800000000033
:102F400010403FC000400000000018C02140224057
:102F500024401840000010802040244024401B8062
:102F6000000002000D0011003FC0014000003C8045
:102F7000244024402440238000001F80244024401B
:102F80003440038000003000200027C038002000BB
:102F900000001B802440244024401B8000001C00B3
:102FA00022C0224022401F80000000000000084094
:102FB00000000000000000000000046000000000AD
:102FC0000000000004000A001100208040400900B9
:102FD00009000900090009000000000040402080AD
:102FE00011000A00040018002000234024001800EB
:102FF00000001F802040274029401F400000004063
:1030000007C039000F0001C0004020403FC02440ED
:1030100024401B8000001F80204020402040308042
:10302000000020403FC0204020401F800000204082
:103030003FC024402E4030C0000020403FC024400C
:103040002E00300000000F0010802040224033800E
:10305000020020403FC0040004003FC02040204048
:1030600020403FC020402040000000602020202061
:103070003FC02000200020403FC024400B0030C053
:10308000204020403FC020400040004000C03FC0E2
:103090003C0003C03C003FC0000020403FC00C404B
:1030A00023003FC020001F802040204020401F8080
:1030B000000020403FC024402400180000001F8072
:1030C0002140214020E01FA0000020403FC02440BC
:1030D000260019C0004018C02440244022403180FE
:1030E0000000300020403FC02040300000002000A1
:1030F0003F80004000403F80200020003E0001C093
:10310000070038002000380007C03C0007C0380026
:103110000000204039C0060039C0204000002000D7
:10312000384007C0384020000000304021C0264011
:10313000384020C00000000000007FE04020402018
:103140000000000070000C00038000400000000040
:10315000402040207FE000000000000020004000F0
:1031600020000000000000100010001000100010EF
:1031700000100000000040000000000000000000FF
:1031800002800540054003C0004020003FC00440CD
:103190000440038000000000038004400440064017
:1031A000000000000380044024403FC000400000B5
:1031B00003800540054003400000000004401FC09C
:1031C000244024402000000002E005500550065035
:1031D000042020403FC00440040003C00040000021
:1031E000044027C000400000000000100010041040
:1031F00027E00000000020403FC00140070004C05D
:103200000440204020403FC000400040000007C074
:10321000040007C0040003C00000044007C00440CD
:10322000040003C000400000038004400440038009
:103230000000041007F00450044003800000000068
:1032400003800440045007F00010044007C002400F
:10325000040004000000000006400540054004C0D2
:103260000000000004001F80044000400000040033
:1032700007800040044007C000400400070004C06D
:10328000018006000400060001C0070001C006001E
:103290000000044006C0010006C004400000041005
:1032A000071004E00180060004000000044005C08F
:1032B0000640044000000000000004007BE04020C5
:1032C0000000000000000000FFF00000000000000F
:1032D00040207BE00400000000004000800040002F
:1032E000200020004000000000000000000000005E
:1032F0000000000000000000000000001FCC000CD7
:10330000000000000000000008003000600008001D
:10331000300060000000022003FC1E20022003FC9D
:103320001E200220000000000E1811043FFF108430
:103330000C78000000000F0010840F3800C00778E0
:1033400018840078000000780F8410C411240E98AF
:1033500000E400840008080068007000000000001D
:1033600000000000000000000000000007E0181846
:10337000200440020000000040022004181807E06A
:103380000000000000000240024001800FF00180B8
:103390000240024000000080008000800FF80080A2
:1033A0000080008000000001000D000E0000000001
:1033B000000000000000000000800080008000800D
:1033C0000080008000800000000C000C0000000065
:1033D00000000000000000000006001800600180EE
:1033E000060018002000000007F008081004100470
:1033F000080807F000000000080408041FFC00048F
:1034000000040000000000000E0C101410241044F2
:1034100011840E0C000000000C181004110411049B
:1034200012880C700000000000E00320042408242F
:103430001FFC0024000000001F98108411041104D8
:10344000108810700000000007F0088811041104B3
:1034500018880070000000001C00100010FC130011
:103460001C001000000000000E381144108410846D
:1034700011440E38000000000700088C104410446E
:10348000088807F00000000000000000030C030C97
:103490000000000000000000000000010106000024
:1034A0000000000000000000008001400220041025
:1034B000080810040000022002200220022002203E
:1034C000022002200000000010040808041002205E
:1034D00001400080000000000E001200100C106C73
:1034E00010800F00000003E00C1813E4142417C42C
:1034F000082807D000000004003C03C41C4007401B
:1035000000E4001C000410041FFC11041104110449
:103510000E880070000003E00C1810041004100462
:1035200010081C10000010041FFC100410041004EC
:10353000080807F0000010041FFC1104110417C450
:1035400010040818000010041FFC1104110017C01B
:1035500010000800000003E00C18100410041044D0
:103560001C780040000010041FFC108400800080C4
:1035700010841FFC10040000100410041FFC100431
:1035800010040000000000030001100110011FFEE4
:1035900010001000000010041FFC110403801464CC
:1035A000181C1004000010041FFC10040004000488
:1035B0000004000C000010041FFC1F0000FC1F0092
:1035C0001FFC1004000010041FFC0C04030000E0AA
:1035D00010181FFC100007F0080810041004100455
:1035E000080807F0000010041FFC108410801080F1
:1035F00010800F00000007F0081810241024101C81
:10360000080A07F2000010041FFC1104110011C089
:1036100011300E0C000400000E1C110410841084E4
:1036200010441C3800001800100010041FFC100487
:1036300010001800000010001FF81004000400041F
:1036400010041FF8100010001E0011E0001C007094
:1036500013801C0010001FC0103C00E01F0000E0A1
:10366000103C1FC000001004180C163401C001C02B
:103670001634180C100410001C00130400FC130472
:103680001C00100000000804101C106410841304B7
:103690001C04101800000000000000007FFE400223
:1036A000400240020000000030000C000380006077
:1036B000001C0003000000004002400240027FFEA8
:1036C000000000000000000000002000400040005A
:1036D0004000200000000001000100010001000185
:1036E0000001000100010000400040002000000037
:1036F0000000000000000000009801240144014483
:10370000014400FC000410001FFC008801040104B7
:1037100000880070000000000070008801040104AF
:10372000010400880000000000700088010401040A
:1037300011081FFC0004000000F80144014401448A
:10374000014400C800000000010401040FFC110442
:10375000110411001800000000D6012901290129D7
:1037600001C90106000010041FFC008401000100D3
:10377000010400FC000400000104190419FC000409
:103780000004000000000000000300010101190115
:1037900019FE0000000010041FFC0024004001B4CA
:1037A000010C010400000000100410041FFC0004C0
:1037B000000400000000010401FC0104010001FC00
:1037C0000104010000FC010401FC0084010001006F
:1037D000010400FC0004000000F8010401040104DD
:1037E000010400F80000010101FF0085010401044B
:1037F00000880070000000000070008801040104CF
:10380000010501FF00010104010401FC0084010421
:10381000010001800000000000CC012401240124EB
:1038200001240198000000000100010007F80104D4
:10383000010400000000010001F80004000400047D
:10384000010801FC0004010001800170000C00105F
:1038500001600180010001F0010C003001C0003066
:10386000010C01F0010000000104018C00740170E2
:10387000018C01040000010101810171000E00189A
:1038800001600180010000000184010C0134014449
:103890000184010C00000000000000000000010095
:1038A0003EFC400240020000000000000000FFFF5C
:1038B0000000000000000000400240023EFC010049
:1038C0000000000000000000600080008000400058
:1038D0004000200020000000000000000000000068
:1038E00000000000000000000000000000000000D8
:1038F00000000000000000000000000000000000C8
:103900000000000000000000000F80380FFE380F9C
:1039100080380000000000000000000000000000EF
:10392000000000000100000600000C00003800004C
:103930003100000600000C000038000030000000DC
:1039400000000000000061800067F807F980006156
:10395000800061800061800061800067F807F98065
:1039600000618000000000000000000001C0E003D2
:10397000E0F00630080418081FFFFE040E08078751
:10398000F00381E000000000000001F000060C00E0
:10399000040408060C7001F9C0000E00003BE000B2
:1039A000EC18070808040C180003E00000000001F0
:1039B000E00007F003F818041C0804170807E1D01A
:1039C00003C0E00023B0003C080020080000100005
:1039D00000000000000100003100003200001C0067
:1039E00000000000000000000000000000000000D7
:1039F00000000000000000000000000000000000C7
:103A00000000000000007F0001FFC00780F00C00F4
:103A10001810000420000200000000000020000236
:103A20001000040C00180780F001FFC0007F0000A8
:103A30000000000000000000000000000000000086
:103A400000004200006600006600003C0000180014
:103A500003FFC0001800003C000066000066000084
:103A600042000000000008000008000008000008F4
:103A70000000080001FFC000080000080000080066
:103A800000080000080000000000000100003100F4
:103A9000003200001C0000000000000000000000D8
:103AA000000000000000000000000000000008000E
:103AB00000080000080000080000080000080000DE
:103AC00008000008000008000008000000000000D6
:103AD000000000000000380000380000380000003E
:103AE00000000000000000000000000000000000D6
:103AF000000000000000000600001C000070000133
:103B000080000E0000380000C0000700001C00000C
:103B1000300000000000000000007F8001FFE00393
:103B200080700600180400080400080600180380CE
:103B30007001FFE0007F8000000000000000000036
:103B400001000801000801000803FFF807FFF80062
:103B5000000800000800000800000000000000004D
:103B60000001C03802C0580400980401180402186B
:103B7000040418061C1803F81801E0F800000000FF
:103B8000000000000001C0E003C0F00400080408C9
:103B90000804080806180803F41801E7F00001E01B
:103BA000000000000000000000000300000D000005
:103BB000110000610000810803010807FFF80FFFF2
:103BC000F80001080001080000000000000000E00B
:103BD00007FCD0060808061008061008061008069C
:103BE0001838060FF00607C00000000000000000B3
:103BF00000003F8001FFE003843002081804100831
:103C0000041008041008071810030FF00007C00084
:103C1000000000000000000003C0000700000600D4
:103C2000000600F80607F806180006E00007000086
:103C300006000000000000000001E1E003F7F006CC
:103C40003410041808041808040C08040C0806169C
:103C50001803F3F001C1E000000000000000F800CC
:103C600003FC3003063804020804020804020804B6
:103C700004100308F001FFC0007F000000000000F6
:103C8000000000000000000000000000000070388C
:103C900000703800703800000000000000000000D4
:103CA0000000000000000000000000000000000014
:103CB0000000301A00301C0000000000000000006E
:103CC00000000000000000000000000000080000EC
:103CD000140000220000410000808001004002002A
:103CE000200400100800080000000000000021006F
:103CF000002100002100002100002100002100001F
:103D0000210000210000210000210000000000002F
:103D1000000000000800080400100200200100401C
:103D20000080800041000022000014000008000014
:103D3000000000000003C00004C0000400000800F0
:103D400038080F380808380810000C300007E00069
:103D500003C000000000000000003F8000FFE003FF
:103D60008070020F1006708804C088048308047FE6
:103D70008802C09003012000FE40000008000018E7
:103D80000001F8003E0801C20007020007E200003F
:103D9000FE00001FC80001F8000038000008040001
:103DA0000807FFF807FFF8040808040808040808D3
:103DB00004080806180803F41801E7F00001E00001
:103DC0000000000000003F8001FFE003807002005F
:103DD000180400080400080400080400100600206D
:103DE0000780C000000004000807FFF807FFF80480
:103DF00000080400080400080400180200100380F2
:103E00007001FFE0007F8000000004000807FFF859
:103E100007FFF80408080408080408080408080450
:103E20003E080400080600180100600000000400BD
:103E30000807FFF807FFF804080804080004080052
:103E4000040800043E000600000600000180000097
:103E50000000000000003F8001FFE00380700600CA
:103E6000180400080402080402080203F00783F0A3
:103E700000020000020004000807FFF807FFF80432
:103E800008080008000008000008000008000408F6
:103E90000807FFF807FFF804000800000000000012
:103EA00004000804000804000807FFF807FFF804EE
:103EB00000080400080400080000000000000000E2
:103EC00000000006000007000001040001040001DA
:103ED00004000307FFFE07FFFC04000004000004C9
:103EE000000004000807FFF807FFF8040C0800189A
:103EF00000003E0004C7800503C80600F80400382F
:103F000004001800000804000807FFF807FFF80481
:103F10000008000008000008000008000008000079
:103F20000800001800006000000004000807FFF807
:103F300007800807FC00007FC00003F80007C000EE
:103F4000780007800807FFF807FFF804000804005E
:103F50000807FFF807000803C00000E00000380071
:103F6000001E000007000001C00400F007FFF80475
:103F70000000000000007F8001FFE0038070060069
:103F80001804000804000806001803003001FFE0D0
:103F9000007F8000000004000807FFF807FFF80416
:103FA0000408040400040400040400040400060CD3
:103FB0000003F80001F000000000000000007F8016
:103FC00001FFE00380700600880400880400C80632
:103FD000003C03003E01FFE6007F84000000040077
:103FE0000807FFF807FFF8040808040800040C009D
:103FF000040F00040BC00610F003F03801E00800C5
:10400000000800000001E0F803F03006301004184A
:1040100008041808040C08040C080206180207F02B
:104020000781E00000000180000600000400000499
:10403000000004000807FFF807FFF8040008040068
:104040000004000006000001800004000007FFE0FB
:1040500007FFF00400180000080000080000080036
:10406000000800000804001007FFE004000004003E
:104070000006000007E00007FE00041FE00001F852
:104080000000380001E0043E0007C0000600000404
:10409000000004000007E00007FFC0041FF800074D
:1040A000C007F80007FF80043FF80007C004F800CD
:1040B00007000004000000000004000806001807C4
:1040C000C07805F1C8003E00001F800463E8078047
:1040D000F8060018040008000000040000060000B4
:1040E00007800007E008047C08001FF80007F800BC
:1040F000180804E0080700000600000400000000A3
:10410000000100080600380400F80403E8040F0862
:10411000047C0805F00807C00807001804006000C8
:10412000000000000000000000000000000000008F
:10413000003FFFFE200002200002200002200002BB
:10414000200002000000000000000000080000073E
:10415000000000C0000038000006000001C00000A0
:104160003000000E00000100000000000000000010
:104170002000022000022000022000022000023F56
:10418000FFFE000000000000000000000000000032
:1041900000000000000000080000100000300000D7
:1041A00020000030000010000008000000000000A7
:1041B00000000000010000010000010000010000FB
:1041C00001000001000001000001000001000001E9
:1041D00000000100000100000000000000000020BD
:1041E000000020000010000010000000000000008F
:1041F000000000000000000000000000000000F0CF
:104200000019F8001B1800220800260800240800E6
:104210002410003FF8001FF80000080000180000FC
:104220000004000007FFF80FFFF000181800100846
:10423000002008002008003018001FF0000FC00008
:1042400000000000000007C0001FF0001830002030
:1042500008002008002008003C08001C1000006036
:104260000000000000000000000007C0001FF00078
:10427000381800200800200800200804101007FF4C
:10428000F80FFFF000001000000000000000000028
:104290000007C0001FF000123000221800220800A2
:1042A0002208003208001E10000E2000000000004E
:1042B0000000200000200800200801FFF803FFF89C
:1042C000062008042008042008072000030000003E
:1042D000000000000000000E000E6E001FF3003111
:1042E000B10020B10020B1003191001F13002E1E3B
:1042F00000200E00300000000004000807FFF80F47
:10430000FFF8001008002000002000002008003FF7
:10431000F8001FF800000800000000000000000086
:10432000002008002008002008063FF8063FF8009B
:104330000008000008000008000000000000000065
:104340000000000000000300000300200100200125
:10435000002003063FFE063FFC00000000000000B6
:10436000000000000004000807FFF80FFFF800013C
:1043700088000300002FC00038F800203800200813
:104380000000080000000000000000000400080415
:10439000000804000807FFF80FFFF80000080000FD
:1043A00008000008000000000000002008003FF89E
:1043B000003FF8001008002000003FF8003FF80020
:1043C0001008002000003FF8003FF800000800003F
:1043D00000002008003FF8003FF80010080010001F
:1043E000002000002008003FF8001FF8000008002F
:1043F00000000000000007C0000FF000183000307F
:1044000008002008002008003008001830000FF0D5
:104410000007C0000000000000002001003FFF0076
:104420003FFF001011002009002008002008003084
:1044300038001FF0000FC00000000000000007C09F
:10444000001FF00038180020080020080020090094
:104450001011001FFF003FFF0000010000000020BE
:1044600008002008002008003FF8003FF800080876
:10447000001008002008002000003000003000007C
:104480000000000000000000000C78001E1800333F
:10449000080023080021080021880021980030F03E
:1044A0000038600000000000000020000020000034
:1044B000200000FFF003FFF8002008002008002083
:1044C0000800003000000000000000000000200094
:1044D000003FF0007FF8000018000008000008000E
:1044E0002010003FF8007FF00000100000000000E6
:1044F00000002000003000003C00003F800023F05E
:10450000000078000070002380003C0000300000B4
:104510002000002000003C00003FE00023F80000E5
:10452000E0002700003E00003FE00021F80001E02D
:10453000003E0000200000000000200800200800CD
:104540003838003E680027800003C8002CF8003887
:1045500038002018002008000000000000002000A3
:10456000003003003C01003F830023EC000070009A
:104570002380003C0000200000200000000000001C
:10458000000000000038080020380020F80023E870
:10459000002F88003E080038080020180000700036
:1045A000000000000000000000000000000000000B
:1045B000000008000014001FF7FC30000620000275
:1045C00000000000000000000000000000000000EB
:1045D0000000000000000000FFFFFF0000000000DE
:1045E00000000000000000000000000000000000CB
:1045F0002000023000061FF7FC0014000008000035
:1046000000000000000000000000000000000000AA
:104610000018000060000040000040000020000082
:104620001000000800000400000400000C0000104E
:10463000000000000000000000000000000000007A
:10464000000000000000000000000000000000006A
:10465000000000000000000000000000000000005A
:10466000000000000000000000000000000000004A
:10467000000000000000000000000000000000003A
:10468000000000000000000000000000000000002A
:10469000000000000000000000000000000000001A
:1046A000000000000000000000000000000000000A
:1046B00000000000000000000000000000000000FA
:1046C0000000000000000000000007F000C007FF2D
:1046D000E1E007F001E0000000C000000000000081
:1046E00000000000000000000000000000000000CA
:1046F00000000000000000000000000000000000BA
:1047000000000000000000000000000000000000A9
:104710000000000000000000000000000000000099
:104720000000000000000000000000000000000089
:10473000000000000000000000000020000001C098
:104740000000078000001F0000001E0000001C2069
:10475000000001C00000078000001F0000001E00D4
:1047600000001C000000000000000000000000002D
:104770000000000000000000000000000000000039
:104780000000000000000000000000000000000029
:104790000000000000000000000000000000000019
:1047A0000000000000000000000000000000000009
:1047B00000000000000000180C0000180C00001899
:1047C0000FE0001FFC0003F80C0000180C0000189C
:1047D0000C0000180C0000180C0000180FE0001F5F
:1047E000FC0003F80C0000180C0000180C0000007E
:1047F00000000000000000000000000000000000B9
:1048000000000000000000000000000000000000A8
:104810000000000000000000000000000000000098
:104820000000000000000000000000000000000088
:104830000000000000000000000000000780007879
:1048400007C000FC0640010E002003070020020301
:1048500080200FFFFFFC0201C0200200E060013059
:10486000704001F03F8000F01F00000000000000D9
:104870000000000000000000000000000000000038
:104880000000000000000000000000000000000028
:104890000000000000000000000000000000000018
:1048A0000000000000000000000000000000000008
:1048B000000000FE000001FF000003018000020074
:1048C0008060030181C001FF070000FE18000000A6
:1048D000E0000003BF00000CFFC00071806001C158
:1048E0000020030180600000FFC000003F000000C6
:1048F00000000000000000000000000000000000B8
:1049000000000000000000000000000000000000A7
:104910000000000000000000000000000000000097
:104920000000000000000000000000000000000087
:10493000000000001F0000007FC000FCC0C001FF9D
:1049400080600303E0200202782002061E2003FCA0
:10495000074001F00380000103C000011C6000015A
:10496000E020000100200001004000000180000064
:104970000000000000000000000000000000000037
:104980000000000000000000000000000000000027
:104990000000000000000000000000000000000017
:1049A0000000000000000000000000000000000007
:1049B000000000000000002000001C6000001C40FF
:1049C00000001F8000000F00000000000000000039
:1049D00000000000000000000000000000000000D7
:1049E00000000000000000000000000000000000C7
:1049F00000000000000000000000000000000000B7
:104A000000000000000000000000000000000000A6
:104A10000000000000000000000000000000000096
:104A20000000000000000000000000000000000086
:104A30000000000000000000000000000000000076
:104A4000000000000000000000000000000000075F
:104A5000F800003FFF00007807C001C000E003003D
:104A600000300400000808000004100000020000EC
:104A70000000000000000000000000000000000036
:104A80000000000000000000000000000000000026
:104A90000000000000000000000000000000000016
:104AA0000000000000000000000000000000000006
:104AB00000000000000010000002080000040400D4
:104AC00000080300003001C000E0007807C0003F8C
:104AD000FF000007F80000000000000000000000D8
:104AE00000000000000000000000000000000000C6
:104AF00000000000000000000000000000000000B6
:104B000000000000000000000000000000000000A5
:104B10000000000000000000000000000000000095
:104B20000000000000000000000000000000000085
:104B300000000000000000000000000C1800000E43
:104B40003800000E380000063000000360000061ED
:104B5000438000FFFF800061430000036000000607
:104B60003000000E3800000E3800000C1800000065
:104B70000000000000000000000000000000000035
:104B80000000000000000000000000000000000025
:104B90000000000000000000000000000000000015
:104BA0000000000000000000000000000000000005
:104BB0000000000000000000000000008000000075
:104BC00080000000800000008000000080000000E5
:104BD0008000007FFF0000008000000080000000D7
:104BE00080000000800000008000000080000000C5
:104BF00000000000000000000000000000000000B5
:104C000000000000000000000000000000000000A4
:104C10000000000000000000000000000000000094
:104C20000000000000000000000000000000000084
:104C300000000000000000000001000000E3000090
:104C400000E2000000FC000000780000000000000E
:104C50000000000000000000000000000000000054
:104C60000000000000000000000000000000000044
:104C70000000000000000000000000000000000034
:104C80000000000000000000000000000000000024
:104C90000000000000000000000000000000000014
:104CA0000000000000000000000000000000000004
:104CB00000000000000000008000000080000000F4
:104CC00080000000800000008000000080000000E4
:104CD00080000000800000008000000080000000D4
:104CE00080000000800000008000000080000000C4
:104CF00000000000000000000000000000000000B4
:104D000000000000000000000000000000000000A3
:104D10000000000000000000000000000000000093
:104D20000000000000000000000000000000000083
:104D300000000000000000000000000000C00000B3
:104D400001E0000001E0000000C0000000000000E1
:104D50000000000000000000000000000000000053
:104D60000000000000000000000000000000000043
:104D70000000000000000000000000000000000033
:104D80000000000000000000000000000000000023
:104D90000000000000000000000000000000000013
:104DA0000000000000000000000000000000000003
:104DB0000000000000000000000C000000380000AF
:104DC00000E00000038000000E000000380000003A
:104DD000E00000038000000E00000038000000E04A
:104DE0000000038000000E0000001800000000001A
:104DF00000000000000000000000000000000000B3
:104E000000000000000000000000000000000000A2
:104E10000000000000000000000000000000000092
:104E20000000000000000000000000000000000082
:104E300000000000000000000000000FF800007FEC
:104E4000FF0000F00780018000C003000060020046
:104E5000002002000020020000200300006001800A
:104E600000C000E00380007FFF00000FF80000009A
:104E70000000000000000000000000000000000032
:104E80000000000000000000000000000000000022
:104E90000000000000000000000000000000000012
:104EA0000000000000000000000000000000000002
:104EB0000000000000000000000000000000008072
:104EC000002000800020008000200080006001FFA2
:104ED000FFE003FFFFE00000006000000020000092
:104EE0000020000000200000000000000000000082
:104EF00000000000000000000000000000000000B2
:104F000000000000000000000000000000000000A1
:104F10000000000000000000000000000000000091
:104F20000000000000000000000000000000000081
:104F300000000000000000000000007800E0009881
:104F400001600100026002000460020008600200CB
:104F50001060020020600200406003008060018356
:104F6000006001FE00E0007C0780000000000000FF
:104F70000000000000000000000000000000000031
:104F80000000000000000000000000000000000021
:104F90000000000000000000000000000000000011
:104FA0000000000000000000000000000000000001
:104FB0000000000000000000000000F0078001F089
:104FC00007C0010000400200002002010020020191
:104FD000002002010020030380200186804001FCA4
:104FE000C0C000787F8000001E00000000000000AC
:104FF00000000000000000000000000000000000B1
:1050000000000000000000000000000000000000A0
:105010000000000000000000000000000000000090
:105020000000000000000000000000000000000080
:105030000000000000000000080000003800000030
:1050400048000001880000060800000C081000302D
:1050500008100040081001FFFFF003FFFFF003FFFE
:10506000FFF0000008100000081000000810000009
:105070000000000000000000000000000000000030
:105080000000000000000000000000000000000020
:105090000000000000000000000000000000000010
:1050A0000000000000000000000000000000000000
:1050B0000000000000000000000000000780001F4A
:1050C000864003E1002003020020030400200304C3
:1050D0000020030400200304002003060040030313
:1050E00001C00301FF8003007E00000000000000FB
:1050F00000000000000000000000000000000000B0
:10510000000000000000000000000000000000009F
:10511000000000000000000000000000000000008F
:10512000000000000000000000000000000000007F
:10513000000000000000000000000007FC00003F2D
:10514000FF000070C380008180C001010060030285
:1051500000200202002002020020020200200203BE
:10516000004001C180C000C0FF8000007E00000040
:10517000000000000000000000000000000000002F
:10518000000000000000000000000000000000001F
:10519000000000000000000000000000000000000F
:1051A00000000000000000000000000000000000FF
:1051B0000000000000000000000000F0000003C03C
:1051C00000000380000003000000030007E003006C
:1051D0003FE00301C0000306000003180000036065
:1051E0000000038000000300000000000000000039
:1051F00000000000000000000000000000000000AF
:10520000000000000000000000000000000000009E
:10521000000000000000000000000000000000008E
:10522000000000000000000000000000000000007E
:1052300000000000000000001F0000783F8000FC1C
:1052400060C0018EC04003078020020300200201DD
:105250008020020180200201C0200301E04001867D
:1052600070C000FC3F8000781F00000000000000BC
:10527000000000000000000000000000000000002E
:10528000000000000000000000000000000000001E
:10529000000000000000000000000000000000000E
:1052A00000000000000000000000000000000000FE
:1052B000000000000000003F000000FF81C001C0AE
:1052C000C1C0010060200200202002002020020056
:1052D000202002002060020040C00100C18000C107
:1052E0008F00007FFE00001FF000000000000000A3
:1052F00000000000000000000000000000000000AE
:10530000000000000000000000000000000000009D
:10531000000000000000000000000000000000008D
:10532000000000000000000000000000000000007D
:10533000000000000000000000000000000000006D
:1053400000000000000000000000000300C0000793
:1053500081E0000781E0000300C0000000000000C1
:10536000000000000000000000000000000000003D
:10537000000000000000000000000000000000002D
:10538000000000000000000000000000000000001D
:10539000000000000000000000000000000000000D
:1053A00000000000000000000000000000000000FD
:1053B00000000000000000000000000000000000ED
:1053C000000000000000000000000006006600066B
:1053D0000078000000000000000000000000000055
:1053E00000000000000000000000000000000000BD
:1053F00000000000000000000000000000000000AD
:10540000000000000000000000000000000000009C
:10541000000000000000000000000000000000008C
:10542000000000000000000000000000000000007C
:1054300000000000000000000000000080000001EB
:10544000C0000003600000063000000C18000018C7
:105450000C00003006000060030000C00180010065
:1054600000400200002004000010000000000000C6
:10547000000000000000000000000000000000002C
:10548000000000000000000000000000000000001C
:10549000000000000000000000000000000000000C
:1054A00000000000000000000000000000000000FC
:1054B00000000000000000041000000410000004C0
:1054C000100000041000000410000004100000048C
:1054D000100000041000000410000004100000047C
:1054E0001000000410000004100000041000000070
:1054F00000000000000000000000000000000000AC
:10550000000000000000000000000000000000009B
:10551000000000000000000000000000000000008B
:10552000000000000000000000000000000000007B
:105530000000000000000000000004000010020055
:1055400000200100004000C0018000600300003026
:10555000060000180C00000C1800000630000003C4
:1055600060000001C000000080000000000000009A
:10557000000000000000000000000000000000002B
:10558000000000000000000000000000000000001B
:10559000000000000000000000000000000000000B
:1055A00000000000000000000000000000000000FB
:1055B000000000000000000000000078000001F87A
:1055C00000000238000002000000040000C00400D7
:1055D00079E0040081E0040100C00403000002023D
:1055E00000000306000001FC000000F800000000BD
:1055F00000000000000000000000000000000000AB
:10560000000000000000000000000000000000009A
:10561000000000000000000000000000000000008A
:10562000000000000000000000000000000000007A
:10563000000000000000000FF800003FFE000070B6
:10564000078000C000C00101F8400307FC20021ED3
:1056500004200230082002203020023FFC20013FBD
:10566000044001800CC000E03180001FC200000037
:10567000000000000000000000000000000000002A
:10568000000000000000000000000000000000001A
:10569000000000000000000000000000000000000A
:1056A00000000000000000000000000000000000FA
:1056B00000000000002000000060000003E0000087
:1056C0003E200003E020003E200003E02000038095
:1056D000200007FC2000003FE0000003FE20000047
:1056E0003FE0000001E0000000200000002000007A
:1056F00000000000000000000000000000000000AA
:105700000000000000000000000000000000000099
:105710000000000000000000000000000000000089
:105720000000000000000000000000000000000079
:10573000000000000000020000200200002003FF23
:10574000FFE003FFFFE00201002002010020020150
:105750000020020100200201002003030020018636
:10576000806001FCC0C000F87F8000001F000000C6
:105770000000000000000000000000000000000029
:105780000000000000000000000000000000000019
:105790000000000000000000000000000000000009
:1057A00000000000000000000000000000000000F9
:1057B0000000000000000007F800003FFF0000703C
:1057C000078000C000C0010000400300002002006C
:1057D0000020020000200200002002000020010042
:1057E0000040018000C003C00180003006000000BE
:1057F00000000000000000000000000000000000A9
:105800000000000000000000000000000000000098
:105810000000000000000000000000000000000088
:105820000000000000000000000000000000000078
:10583000000000000000020000200200002003FF22
:10584000FFE003FFFFE00200002002000020020052
:1058500000200200002003000060010000400180E1
:1058600000C000F00780007FFE00000FF80000007D
:105870000000000000000000000000000000000028
:105880000000000000000000000000000000000018
:105890000000000000000000000000000000000008
:1058A00000000000000000000000000000000000F8
:1058B000000000000000020000200200002003FFA2
:1058C000FFE003FFFFE002010020020100200201CF
:1058D0000020020100200201002002038020020FAC
:1058E000E0200300006003C000E00060030000004F
:1058F00000000000000000000000000000000000A8
:105900000000000000000000000000000000000097
:105910000000000000000000000000000000000087
:105920000000000000000000000000000000000077
:10593000000000000000020000200200002003FF21
:10594000FFE003FFFFE0020100200201002002014E
:105950000000020100000201000002010000020339
:105960008000030FE0000300000003C0000000609F
:105970000000000000000000000000000000000027
:105980000000000000000000000000000000000017
:105990000000000000000000000000000000000007
:1059A00000000000000000000000000000000000F7
:1059B0000000000000000007F800003FFE0000703B
:1059C000078001C001C00100004003000020020068
:1059D0000020020000200200002001002020010021
:1059E000204003C03F8000303F80000020000000C6
:1059F0002000000000000000000000000000000087
:105A00000000000000000000000000000000000096
:105A10000000000000000000000000000000000086
:105A20000000000000000000000000000000000076
:105A30000000020000200200002003FFFFE003FF3F
:105A4000FFE00200802002008020000080000000B3
:105A5000800000008000020080200200802003FF00
:105A6000FFE003FFFFE00200002002000020000032
:105A70000000000000000000000000000000000026
:105A80000000000000000000000000000000000016
:105A90000000000000000000000000000000000006
:105AA00000000000000000000000000000000000F6
:105AB00000000000000000000000000000000200E4
:105AC000002002000020020000200200002003FF4E
:105AD000FFE003FFFFE002000020020000200200C0
